{"contracts/TokenizationManager.sol":{"TokenizationManager":{"abi":[{"inputs":[],"stateMutability":"nonpayable","type":"constructor"},{"inputs":[{"internalType":"address","name":"owner","type":"address"}],"name":"OwnableInvalidOwner","type":"error"},{"inputs":[{"internalType":"address","name":"account","type":"address"}],"name":"OwnableUnauthorizedAccount","type":"error"},{"anonymous":false,"inputs":[{"indexed":true,"internalType":"uint256","name":"propertyId","type":"uint256"},{"indexed":true,"internalType":"address","name":"buyer","type":"address"},{"indexed":false,"internalType":"uint256","name":"amount","type":"uint256"},{"indexed":false,"internalType":"uint256","name":"totalPaid","type":"uint256"}],"name":"FractionsPurchased","type":"event"},{"anonymous":false,"inputs":[{"indexed":true,"internalType":"address","name":"previousOwner","type":"address"},{"indexed":true,"internalType":"address","name":"newOwner","type":"address"}],"name":"OwnershipTransferred","type":"event"},{"anonymous":false,"inputs":[{"indexed":true,"internalType":"uint256","name":"propertyId","type":"uint256"},{"indexed":false,"internalType":"address","name":"deedAddress","type":"address"},{"indexed":false,"internalType":"address","name":"fractionsAddress","type":"address"},{"indexed":false,"internalType":"address","name":"propertyOwner","type":"address"}],"name":"PropertyTokenized","type":"event"},{"anonymous":false,"inputs":[{"indexed":true,"internalType":"uint256","name":"propertyId","type":"uint256"},{"indexed":false,"internalType":"uint256","name":"pricePerFraction","type":"uint256"}],"name":"SaleStarted","type":"event"},{"inputs":[{"internalType":"uint256","name":"propertyId","type":"uint256"},{"internalType":"uint256","name":"numberOfFractions","type":"uint256"}],"name":"buyFractions","outputs":[],"stateMutability":"payable","type":"function"},{"inputs":[{"internalType":"uint256","name":"","type":"uint256"}],"name":"fractionContracts","outputs":[{"internalType":"address","name":"","type":"address"}],"stateMutability":"view","type":"function"},{"inputs":[{"internalType":"uint256","name":"","type":"uint256"}],"name":"fractionSales","outputs":[{"internalType":"uint256","name":"pricePerFraction","type":"uint256"},{"internalType":"bool","name":"active","type":"bool"}],"stateMutability":"view","type":"function"},{"inputs":[],"name":"manager","outputs":[{"internalType":"address","name":"","type":"address"}],"stateMutability":"view","type":"function"},{"inputs":[],"name":"mintedSupply","outputs":[{"internalType":"uint256","name":"","type":"uint256"}],"stateMutability":"view","type":"function"},{"inputs":[{"internalType":"address","name":"","type":"address"},{"internalType":"address","name":"","type":"address"},{"internalType":"uint256","name":"","type":"uint256"},{"internalType":"bytes","name":"","type":"bytes"}],"name":"onERC721Received","outputs":[{"internalType":"bytes4","name":"","type":"bytes4"}],"stateMutability":"nonpayable","type":"function"},{"inputs":[],"name":"owner","outputs":[{"internalType":"address","name":"","type":"address"}],"stateMutability":"view","type":"function"},{"inputs":[{"internalType":"uint256","name":"","type":"uint256"}],"name":"properties","outputs":[{"internalType":"string","name":"name","type":"string"},{"internalType":"string","name":"location","type":"string"},{"internalType":"uint256","name":"valuation","type":"uint256"}],"stateMutability":"view","type":"function"},{"inputs":[],"name":"propertyCounter","outputs":[{"internalType":"uint256","name":"","type":"uint256"}],"stateMutability":"view","type":"function"},{"inputs":[],"name":"propertyDeed","outputs":[{"internalType":"address","name":"","type":"address"}],"stateMutability":"view","type":"function"},{"inputs":[],"name":"propertyDeedAddress","outputs":[{"internalType":"address","name":"","type":"address"}],"stateMutability":"view","type":"function"},{"inputs":[{"internalType":"uint256","name":"","type":"uint256"}],"name":"propertyOwner","outputs":[{"internalType":"address","name":"","type":"address"}],"stateMutability":"view","type":"function"},{"inputs":[],"name":"renounceOwnership","outputs":[],"stateMutability":"nonpayable","type":"function"},{"inputs":[{"internalType":"address","name":"_propertyDeed","type":"address"}],"name":"setPropertyDeedAddress","outputs":[],"stateMutability":"nonpayable","type":"function"},{"inputs":[{"internalType":"uint256","name":"propertyId","type":"uint256"},{"internalType":"uint256","name":"pricePerFractionInWei","type":"uint256"}],"name":"startDistribution","outputs":[],"stateMutability":"nonpayable","type":"function"},{"inputs":[],"name":"tokenId","outputs":[{"internalType":"uint256","name":"","type":"uint256"}],"stateMutability":"view","type":"function"},{"inputs":[{"internalType":"string","name":"name","type":"string"},{"internalType":"string","name":"location","type":"string"},{"internalType":"uint256","name":"valuation","type":"uint256"},{"internalType":"uint256","name":"totalFractionsTokens","type":"uint256"},{"internalType":"string","name":"fractionName","type":"string"},{"internalType":"string","name":"fractionSymbol","type":"string"}],"name":"tokenizeProperty","outputs":[],"stateMutability":"nonpayable","type":"function"},{"inputs":[{"internalType":"uint256","name":"","type":"uint256"}],"name":"totalFractions","outputs":[{"internalType":"uint256","name":"","type":"uint256"}],"stateMutability":"view","type":"function"},{"inputs":[{"internalType":"address","name":"newOwner","type":"address"}],"name":"transferOwnership","outputs":[],"stateMutability":"nonpayable","type":"function"},{"inputs":[{"internalType":"address payable","name":"to","type":"address"}],"name":"withdrawETH","outputs":[],"stateMutability":"nonpayable","type":"function"},{"stateMutability":"payable","type":"receive"}],"evm":{"bytecode":{"linkReferences":{},"object":"60806040523480156200001157600080fd5b50336001600b81905550600073ffffffffffffffffffffffffffffffffffffffff168173ffffffffffffffffffffffffffffffffffffffff1603620000905760006040517f1e4fbdf7000000000000000000000000000000000000000000000000000000008152600401620000879190620001b3565b60405180910390fd5b620000a181620000a860201b60201c565b50620001d0565b6000600c60009054906101000a900473ffffffffffffffffffffffffffffffffffffffff16905081600c60006101000a81548173ffffffffffffffffffffffffffffffffffffffff021916908373ffffffffffffffffffffffffffffffffffffffff1602179055508173ffffffffffffffffffffffffffffffffffffffff168173ffffffffffffffffffffffffffffffffffffffff167f8be0079c531659141344cd1fd0a4f28419497f9722a3daafe3b4186f6b6457e060405160405180910390a35050565b600073ffffffffffffffffffffffffffffffffffffffff82169050919050565b60006200019b826200016e565b9050919050565b620001ad816200018e565b82525050565b6000602082019050620001ca6000830184620001a2565b92915050565b6156ea80620001e06000396000f3fe6080604052600436106200013f5760003560e01c8063766de47f11620000af578063ea370276116200006d578063ea3702761462000465578063f2fde38b1462000485578063f54e30e614620004b3578063f657a95d14620004e1578063f7b1080814620005115762000147565b8063766de47f146200034d5780638da5cb5b1462000391578063c1bd8cf914620003c1578063d090e47e14620003f1578063d1fedbc214620004215762000147565b80632e4da13211620000fd5780632e4da1321462000277578063359cd67b14620002a5578063481c6a7514620002d5578063690d83201462000305578063715018a614620003335762000147565b806312cda254146200014c578063150b7a02146200019057806317d70f7c14620001d45780631da0f20314620002045780632d487d2f14620002325762000147565b366200014757005b600080fd5b3480156200015957600080fd5b5062000178600480360381019062000172919062001999565b62000557565b60405162000187919062001a10565b60405180910390f35b3480156200019d57600080fd5b50620001bc6004803603810190620001b6919062001bc0565b6200058a565b604051620001cb919062001c8e565b60405180910390f35b348015620001e157600080fd5b50620001ec6200059e565b604051620001fb919062001cbc565b60405180910390f35b3480156200021157600080fd5b506200023060048036038101906200022a919062001d8d565b620005a4565b005b3480156200023f57600080fd5b506200025e600480360381019062000258919062001999565b62000ac4565b6040516200026e92919062001ec2565b60405180910390f35b3480156200028457600080fd5b50620002a360048036038101906200029d919062001eef565b62000af5565b005b348015620002b257600080fd5b50620002bd62000cd4565b604051620002cc919062001a10565b60405180910390f35b348015620002e257600080fd5b50620002ed62000cfa565b604051620002fc919062001a10565b60405180910390f35b3480156200031257600080fd5b506200033160048036038101906200032b919062001f7b565b62000d20565b005b3480156200034057600080fd5b506200034b62000de1565b005b3480156200035a57600080fd5b5062000379600480360381019062000373919062001999565b62000df9565b60405162000388919062001cbc565b60405180910390f35b3480156200039e57600080fd5b50620003a962000e11565b604051620003b8919062001a10565b60405180910390f35b348015620003ce57600080fd5b50620003d962000e3b565b604051620003e8919062001cbc565b60405180910390f35b348015620003fe57600080fd5b506200040962000e41565b60405162000418919062001cbc565b60405180910390f35b3480156200042e57600080fd5b506200044d600480360381019062000447919062001999565b62000e47565b6040516200045c919062001a10565b60405180910390f35b6200048360048036038101906200047d919062001eef565b62000e7a565b005b3480156200049257600080fd5b50620004b16004803603810190620004ab919062001fad565b62001521565b005b348015620004c057600080fd5b50620004df6004803603810190620004d9919062001fad565b620015ae565b005b348015620004ee57600080fd5b50620004f96200166e565b60405162000508919062001a10565b60405180910390f35b3480156200051e57600080fd5b506200053d600480360381019062000537919062001999565b62001694565b6040516200054e9392919062002068565b60405180910390f35b60036020528060005260406000206000915054906101000a900473ffffffffffffffffffffffffffffffffffffffff1681565b600063150b7a0260e01b9050949350505050565b60075481565b600073ffffffffffffffffffffffffffffffffffffffff16600460009054906101000a900473ffffffffffffffffffffffffffffffffffffffff1673ffffffffffffffffffffffffffffffffffffffff160362000638576040517f08c379a00000000000000000000000000000000000000000000000000000000081526004016200062f9062002103565b60405180910390fd5b600083116200067e576040517f08c379a0000000000000000000000000000000000000000000000000000000008152600401620006759062002175565b60405180910390fd5b3073ffffffffffffffffffffffffffffffffffffffff16600460009054906101000a900473ffffffffffffffffffffffffffffffffffffffff1673ffffffffffffffffffffffffffffffffffffffff16638da5cb5b6040518163ffffffff1660e01b8152600401602060405180830381865afa15801562000703573d6000803e3d6000fd5b505050506040513d601f19601f82011682018060405250810190620007299190620021ae565b73ffffffffffffffffffffffffffffffffffffffff161462000782576040517f08c379a0000000000000000000000000000000000000000000000000000000008152600401620007799062002256565b60405180910390fd5b6000600460009054906101000a900473ffffffffffffffffffffffffffffffffffffffff1673ffffffffffffffffffffffffffffffffffffffff1663f2364122308989896040518563ffffffff1660e01b8152600401620007e7949392919062002278565b6020604051808303816000875af115801562000807573d6000803e3d6000fd5b505050506040513d601f19601f820116820180604052508101906200082d9190620022ea565b9050604051806060016040528088815260200187815260200186815250600080838152602001908152602001600020600082015181600001908162000873919062002552565b5060208201518160010190816200088b919062002552565b50604082015181600201559050508060018190555060008383600460009054906101000a900473ffffffffffffffffffffffffffffffffffffffff16843089604051620008d8906200193c565b620008e99695949392919062002639565b604051809103906000f08015801562000906573d6000803e3d6000fd5b509050806003600084815260200190815260200160002060006101000a81548173ffffffffffffffffffffffffffffffffffffffff021916908373ffffffffffffffffffffffffffffffffffffffff16021790555060008173ffffffffffffffffffffffffffffffffffffffff1663313ce5676040518163ffffffff1660e01b8152600401602060405180830381865afa158015620009a9573d6000803e3d6000fd5b505050506040513d601f19601f82011682018060405250810190620009cf9190620026f2565b90508060ff16600a620009e39190620028a7565b86620009f09190620028f8565b6002600085815260200190815260200160002081905550336006600085815260200190815260200160002060006101000a81548173ffffffffffffffffffffffffffffffffffffffff021916908373ffffffffffffffffffffffffffffffffffffffff160217905550827f0616a80693ceeda2f38244d6c54a248b71a7bb82fa74ad42eb092243033b5982600460009054906101000a900473ffffffffffffffffffffffffffffffffffffffff16843360405162000ab19392919062002943565b60405180910390a2505050505050505050565b60056020528060005260406000206000915090508060000154908060010160009054906101000a900460ff16905082565b600073ffffffffffffffffffffffffffffffffffffffff166003600084815260200190815260200160002060009054906101000a900473ffffffffffffffffffffffffffffffffffffffff1673ffffffffffffffffffffffffffffffffffffffff160362000b9a576040517f08c379a000000000000000000000000000000000000000000000000000000000815260040162000b9190620029d0565b60405180910390fd5b3373ffffffffffffffffffffffffffffffffffffffff166006600084815260200190815260200160002060009054906101000a900473ffffffffffffffffffffffffffffffffffffffff1673ffffffffffffffffffffffffffffffffffffffff161462000c3e576040517f08c379a000000000000000000000000000000000000000000000000000000000815260040162000c359062002a68565b60405180910390fd5b604051806040016040528082815260200160011515815250600560008481526020019081526020016000206000820151816000015560208201518160010160006101000a81548160ff021916908315150217905550905050817f87d03dcfa12666a6f670d52387c414c3147775a8cc623d78088c0e23b4a903468260405162000cc8919062001cbc565b60405180910390a25050565b600860009054906101000a900473ffffffffffffffffffffffffffffffffffffffff1681565b600960009054906101000a900473ffffffffffffffffffffffffffffffffffffffff1681565b62000d2a620017de565b60008173ffffffffffffffffffffffffffffffffffffffff164760405162000d529062002abf565b60006040518083038185875af1925050503d806000811462000d91576040519150601f19603f3d011682016040523d82523d6000602084013e62000d96565b606091505b505090508062000ddd576040517f08c379a000000000000000000000000000000000000000000000000000000000815260040162000dd49062002b26565b60405180910390fd5b5050565b62000deb620017de565b62000df760006200186e565b565b60026020528060005260406000206000915090505481565b6000600c60009054906101000a900473ffffffffffffffffffffffffffffffffffffffff16905090565b600a5481565b60015481565b60066020528060005260406000206000915054906101000a900473ffffffffffffffffffffffffffffffffffffffff1681565b6002600b540362000ec2576040517f08c379a000000000000000000000000000000000000000000000000000000000815260040162000eb99062002b98565b60405180910390fd5b6002600b81905550600060056000848152602001908152602001600020604051806040016040529081600082015481526020016001820160009054906101000a900460ff1615151515815250509050806020015162000f58576040517f08c379a000000000000000000000000000000000000000000000000000000000815260040162000f4f9062002c0a565b60405180910390fd5b6000821162000f9e576040517f08c379a000000000000000000000000000000000000000000000000000000000815260040162000f959062002c7c565b60405180910390fd5b600073ffffffffffffffffffffffffffffffffffffffff166003600085815260200190815260200160002060009054906101000a900473ffffffffffffffffffffffffffffffffffffffff1673ffffffffffffffffffffffffffffffffffffffff160362001043576040517f08c379a00000000000000000000000000000000000000000000000000000000081526004016200103a9062002cee565b60405180910390fd5b60006003600085815260200190815260200160002060009054906101000a900473ffffffffffffffffffffffffffffffffffffffff16905060008173ffffffffffffffffffffffffffffffffffffffff1663313ce5676040518163ffffffff1660e01b8152600401602060405180830381865afa158015620010c9573d6000803e3d6000fd5b505050506040513d601f19601f82011682018060405250810190620010ef9190620026f2565b905060008160ff16600a620011059190620028a7565b85620011129190620028f8565b905060008373ffffffffffffffffffffffffffffffffffffffff166370a08231306040518263ffffffff1660e01b815260040162001151919062001a10565b602060405180830381865afa1580156200116f573d6000803e3d6000fd5b505050506040513d601f19601f82011682018060405250810190620011959190620022ea565b905081811015620011dd576040517f08c379a0000000000000000000000000000000000000000000000000000000008152600401620011d49062002d60565b60405180910390fd5b6000856000015187620011f19190620028f8565b90508034101562001239576040517f08c379a0000000000000000000000000000000000000000000000000000000008152600401620012309062002dd2565b60405180910390fd5b60008573ffffffffffffffffffffffffffffffffffffffff1663a9059cbb33866040518363ffffffff1660e01b81526004016200127892919062002df4565b6020604051808303816000875af115801562001298573d6000803e3d6000fd5b505050506040513d601f19601f82011682018060405250810190620012be919062002e52565b90508062001303576040517f08c379a0000000000000000000000000000000000000000000000000000000008152600401620012fa9062002ed4565b60405180910390fd5b6000600660008b815260200190815260200160002060009054906101000a900473ffffffffffffffffffffffffffffffffffffffff16905060008173ffffffffffffffffffffffffffffffffffffffff1684604051620013639062002abf565b60006040518083038185875af1925050503d8060008114620013a2576040519150601f19603f3d011682016040523d82523d6000602084013e620013a7565b606091505b5050905080620013ee576040517f08c379a0000000000000000000000000000000000000000000000000000000008152600401620013e59062002f46565b60405180910390fd5b83341115620014b95760003373ffffffffffffffffffffffffffffffffffffffff1685346200141e919062002f68565b6040516200142c9062002abf565b60006040518083038185875af1925050503d80600081146200146b576040519150601f19603f3d011682016040523d82523d6000602084013e62001470565b606091505b5050905080620014b7576040517f08c379a0000000000000000000000000000000000000000000000000000000008152600401620014ae9062002ff3565b60405180910390fd5b505b3373ffffffffffffffffffffffffffffffffffffffff168b7f4baafac02d651b8886d3212cc69aff0fb3c687080a4fe86b0674563ac1493e828c876040516200150492919062003015565b60405180910390a35050505050505050506001600b819055505050565b6200152b620017de565b600073ffffffffffffffffffffffffffffffffffffffff168173ffffffffffffffffffffffffffffffffffffffff1603620015a05760006040517f1e4fbdf700000000000000000000000000000000000000000000000000000000815260040162001597919062001a10565b60405180910390fd5b620015ab816200186e565b50565b620015b8620017de565b600073ffffffffffffffffffffffffffffffffffffffff168173ffffffffffffffffffffffffffffffffffffffff16036200162a576040517f08c379a0000000000000000000000000000000000000000000000000000000008152600401620016219062003092565b60405180910390fd5b80600460006101000a81548173ffffffffffffffffffffffffffffffffffffffff021916908373ffffffffffffffffffffffffffffffffffffffff16021790555050565b600460009054906101000a900473ffffffffffffffffffffffffffffffffffffffff1681565b6000602052806000526040600020600091509050806000018054620016b9906200234b565b80601f0160208091040260200160405190810160405280929190818152602001828054620016e7906200234b565b8015620017385780601f106200170c5761010080835404028352916020019162001738565b820191906000526020600020905b8154815290600101906020018083116200171a57829003601f168201915b5050505050908060010180546200174f906200234b565b80601f01602080910402602001604051908101604052809291908181526020018280546200177d906200234b565b8015620017ce5780601f10620017a257610100808354040283529160200191620017ce565b820191906000526020600020905b815481529060010190602001808311620017b057829003601f168201915b5050505050908060020154905083565b620017e862001934565b73ffffffffffffffffffffffffffffffffffffffff166200180862000e11565b73ffffffffffffffffffffffffffffffffffffffff16146200186c576200182e62001934565b6040517f118cdaa700000000000000000000000000000000000000000000000000000000815260040162001863919062001a10565b60405180910390fd5b565b6000600c60009054906101000a900473ffffffffffffffffffffffffffffffffffffffff16905081600c60006101000a81548173ffffffffffffffffffffffffffffffffffffffff021916908373ffffffffffffffffffffffffffffffffffffffff1602179055508173ffffffffffffffffffffffffffffffffffffffff168173ffffffffffffffffffffffffffffffffffffffff167f8be0079c531659141344cd1fd0a4f28419497f9722a3daafe3b4186f6b6457e060405160405180910390a35050565b600033905090565b61260080620030b583390190565b6000604051905090565b600080fd5b600080fd5b6000819050919050565b62001973816200195e565b81146200197f57600080fd5b50565b600081359050620019938162001968565b92915050565b600060208284031215620019b257620019b162001954565b5b6000620019c28482850162001982565b91505092915050565b600073ffffffffffffffffffffffffffffffffffffffff82169050919050565b6000620019f882620019cb565b9050919050565b62001a0a81620019eb565b82525050565b600060208201905062001a276000830184620019ff565b92915050565b62001a3881620019eb565b811462001a4457600080fd5b50565b60008135905062001a588162001a2d565b92915050565b600080fd5b600080fd5b6000601f19601f8301169050919050565b7f4e487b7100000000000000000000000000000000000000000000000000000000600052604160045260246000fd5b62001ab38262001a68565b810181811067ffffffffffffffff8211171562001ad55762001ad462001a79565b5b80604052505050565b600062001aea6200194a565b905062001af8828262001aa8565b919050565b600067ffffffffffffffff82111562001b1b5762001b1a62001a79565b5b62001b268262001a68565b9050602081019050919050565b82818337600083830152505050565b600062001b5962001b538462001afd565b62001ade565b90508281526020810184848401111562001b785762001b7762001a63565b5b62001b8584828562001b33565b509392505050565b600082601f83011262001ba55762001ba462001a5e565b5b813562001bb784826020860162001b42565b91505092915050565b6000806000806080858703121562001bdd5762001bdc62001954565b5b600062001bed8782880162001a47565b945050602062001c008782880162001a47565b935050604062001c138782880162001982565b925050606085013567ffffffffffffffff81111562001c375762001c3662001959565b5b62001c458782880162001b8d565b91505092959194509250565b60007fffffffff0000000000000000000000000000000000000000000000000000000082169050919050565b62001c888162001c51565b82525050565b600060208201905062001ca5600083018462001c7d565b92915050565b62001cb6816200195e565b82525050565b600060208201905062001cd3600083018462001cab565b92915050565b600067ffffffffffffffff82111562001cf75762001cf662001a79565b5b62001d028262001a68565b9050602081019050919050565b600062001d2662001d208462001cd9565b62001ade565b90508281526020810184848401111562001d455762001d4462001a63565b5b62001d5284828562001b33565b509392505050565b600082601f83011262001d725762001d7162001a5e565b5b813562001d8484826020860162001d0f565b91505092915050565b60008060008060008060c0878903121562001dad5762001dac62001954565b5b600087013567ffffffffffffffff81111562001dce5762001dcd62001959565b5b62001ddc89828a0162001d5a565b965050602087013567ffffffffffffffff81111562001e005762001dff62001959565b5b62001e0e89828a0162001d5a565b955050604062001e2189828a0162001982565b945050606062001e3489828a0162001982565b935050608087013567ffffffffffffffff81111562001e585762001e5762001959565b5b62001e6689828a0162001d5a565b92505060a087013567ffffffffffffffff81111562001e8a5762001e8962001959565b5b62001e9889828a0162001d5a565b9150509295509295509295565b60008115159050919050565b62001ebc8162001ea5565b82525050565b600060408201905062001ed9600083018562001cab565b62001ee8602083018462001eb1565b9392505050565b6000806040838503121562001f095762001f0862001954565b5b600062001f198582860162001982565b925050602062001f2c8582860162001982565b9150509250929050565b600062001f4382620019cb565b9050919050565b62001f558162001f36565b811462001f6157600080fd5b50565b60008135905062001f758162001f4a565b92915050565b60006020828403121562001f945762001f9362001954565b5b600062001fa48482850162001f64565b91505092915050565b60006020828403121562001fc65762001fc562001954565b5b600062001fd68482850162001a47565b91505092915050565b600081519050919050565b600082825260208201905092915050565b60005b838110156200201b57808201518184015260208101905062001ffe565b60008484015250505050565b6000620020348262001fdf565b62002040818562001fea565b93506200205281856020860162001ffb565b6200205d8162001a68565b840191505092915050565b6000606082019050818103600083015262002084818662002027565b905081810360208301526200209a818562002027565b9050620020ab604083018462001cab565b949350505050565b7f50726f706572747944656564206e6f7420736574000000000000000000000000600082015250565b6000620020eb60148362001fea565b9150620020f882620020b3565b602082019050919050565b600060208201905081810360008301526200211e81620020dc565b9050919050565b7f546f74616c206672616374696f6e73207a65726f000000000000000000000000600082015250565b60006200215d60148362001fea565b91506200216a8262002125565b602082019050919050565b6000602082019050818103600083015262002190816200214e565b9050919050565b600081519050620021a88162001a2d565b92915050565b600060208284031215620021c757620021c662001954565b5b6000620021d78482850162002197565b91505092915050565b7f4d616e61676572206e6f74206f776e6572206f66204465656420636f6e74726160008201527f6374000000000000000000000000000000000000000000000000000000000000602082015250565b60006200223e60228362001fea565b91506200224b82620021e0565b604082019050919050565b6000602082019050818103600083015262002271816200222f565b9050919050565b60006080820190506200228f6000830187620019ff565b8181036020830152620022a3818662002027565b90508181036040830152620022b9818562002027565b9050620022ca606083018462001cab565b95945050505050565b600081519050620022e48162001968565b92915050565b60006020828403121562002303576200230262001954565b5b60006200231384828501620022d3565b91505092915050565b7f4e487b7100000000000000000000000000000000000000000000000000000000600052602260045260246000fd5b600060028204905060018216806200236457607f821691505b6020821081036200237a57620023796200231c565b5b50919050565b60008190508160005260206000209050919050565b60006020601f8301049050919050565b600082821b905092915050565b600060088302620023e47fffffffffffffffffffffffffffffffffffffffffffffffffffffffffffffffff82620023a5565b620023f08683620023a5565b95508019841693508086168417925050509392505050565b6000819050919050565b6000620024336200242d62002427846200195e565b62002408565b6200195e565b9050919050565b6000819050919050565b6200244f8362002412565b620024676200245e826200243a565b848454620023b2565b825550505050565b600090565b6200247e6200246f565b6200248b81848462002444565b505050565b5b81811015620024b357620024a760008262002474565b60018101905062002491565b5050565b601f8211156200250257620024cc8162002380565b620024d78462002395565b81016020851015620024e7578190505b620024ff620024f68562002395565b83018262002490565b50505b505050565b600082821c905092915050565b6000620025276000198460080262002507565b1980831691505092915050565b600062002542838362002514565b9150826002028217905092915050565b6200255d8262001fdf565b67ffffffffffffffff81111562002579576200257862001a79565b5b6200258582546200234b565b62002592828285620024b7565b600060209050601f831160018114620025ca5760008415620025b5578287015190505b620025c1858262002534565b86555062002631565b601f198416620025da8662002380565b60005b828110156200260457848901518255600182019150602085019450602081019050620025dd565b8683101562002624578489015162002620601f89168262002514565b8355505b6001600288020188555050505b505050505050565b600060c082019050818103600083015262002655818962002027565b905081810360208301526200266b818862002027565b90506200267c6040830187620019ff565b6200268b606083018662001cab565b6200269a6080830185620019ff565b620026a960a083018462001cab565b979650505050505050565b600060ff82169050919050565b620026cc81620026b4565b8114620026d857600080fd5b50565b600081519050620026ec81620026c1565b92915050565b6000602082840312156200270b576200270a62001954565b5b60006200271b84828501620026db565b91505092915050565b7f4e487b7100000000000000000000000000000000000000000000000000000000600052601160045260246000fd5b60008160011c9050919050565b6000808291508390505b6001851115620027b2578086048111156200278a576200278962002724565b5b60018516156200279a5780820291505b8081029050620027aa8562002753565b94506200276a565b94509492505050565b600082620027cd5760019050620028a0565b81620027dd5760009050620028a0565b8160018114620027f65760028114620028015762002837565b6001915050620028a0565b60ff84111562002816576200281562002724565b5b8360020a91508482111562002830576200282f62002724565b5b50620028a0565b5060208310610133831016604e8410600b8410161715620028715782820a9050838111156200286b576200286a62002724565b5b620028a0565b62002880848484600162002760565b925090508184048111156200289a576200289962002724565b5b81810290505b9392505050565b6000620028b4826200195e565b9150620028c1836200195e565b9250620028f07fffffffffffffffffffffffffffffffffffffffffffffffffffffffffffffffff8484620027bb565b905092915050565b600062002905826200195e565b915062002912836200195e565b925082820262002922816200195e565b915082820484148315176200293c576200293b62002724565b5b5092915050565b60006060820190506200295a6000830186620019ff565b620029696020830185620019ff565b620029786040830184620019ff565b949350505050565b7f50726f7065727479206e6f74206672616374696f6e616c697a65640000000000600082015250565b6000620029b8601b8362001fea565b9150620029c58262002980565b602082019050919050565b60006020820190508181036000830152620029eb81620029a9565b9050919050565b7f4f6e6c792070726f7065727479206f776e65722063616e20737461727420736160008201527f6c65000000000000000000000000000000000000000000000000000000000000602082015250565b600062002a5060228362001fea565b915062002a5d82620029f2565b604082019050919050565b6000602082019050818103600083015262002a838162002a41565b9050919050565b600081905092915050565b50565b600062002aa760008362002a8a565b915062002ab48262002a95565b600082019050919050565b600062002acc8262002a98565b9150819050919050565b7f455448207472616e73666572206661696c656400000000000000000000000000600082015250565b600062002b0e60138362001fea565b915062002b1b8262002ad6565b602082019050919050565b6000602082019050818103600083015262002b418162002aff565b9050919050565b7f5265656e7472616e637947756172643a207265656e7472616e742063616c6c00600082015250565b600062002b80601f8362001fea565b915062002b8d8262002b48565b602082019050919050565b6000602082019050818103600083015262002bb38162002b71565b9050919050565b7f53616c65206e6f74206163746976650000000000000000000000000000000000600082015250565b600062002bf2600f8362001fea565b915062002bff8262002bba565b602082019050919050565b6000602082019050818103600083015262002c258162002be3565b9050919050565b7f4d75737420627579203e20300000000000000000000000000000000000000000600082015250565b600062002c64600c8362001fea565b915062002c718262002c2c565b602082019050919050565b6000602082019050818103600083015262002c978162002c55565b9050919050565b7f4672616374696f6e73206e6f7420666f756e6400000000000000000000000000600082015250565b600062002cd660138362001fea565b915062002ce38262002c9e565b602082019050919050565b6000602082019050818103600083015262002d098162002cc7565b9050919050565b7f4e6f7420656e6f756768206672616374696f6e7320617661696c61626c650000600082015250565b600062002d48601e8362001fea565b915062002d558262002d10565b602082019050919050565b6000602082019050818103600083015262002d7b8162002d39565b9050919050565b7f496e73756666696369656e74204554482073656e740000000000000000000000600082015250565b600062002dba60158362001fea565b915062002dc78262002d82565b602082019050919050565b6000602082019050818103600083015262002ded8162002dab565b9050919050565b600060408201905062002e0b6000830185620019ff565b62002e1a602083018462001cab565b9392505050565b62002e2c8162001ea5565b811462002e3857600080fd5b50565b60008151905062002e4c8162002e21565b92915050565b60006020828403121562002e6b5762002e6a62001954565b5b600062002e7b8482850162002e3b565b91505092915050565b7f4552433230207472616e73666572206661696c65640000000000000000000000600082015250565b600062002ebc60158362001fea565b915062002ec98262002e84565b602082019050919050565b6000602082019050818103600083015262002eef8162002ead565b9050919050565b7f4661696c656420746f20666f72776172642066756e647320746f206f776e6572600082015250565b600062002f2e60208362001fea565b915062002f3b8262002ef6565b602082019050919050565b6000602082019050818103600083015262002f618162002f1f565b9050919050565b600062002f75826200195e565b915062002f82836200195e565b925082820390508181111562002f9d5762002f9c62002724565b5b92915050565b7f526566756e64206661696c656400000000000000000000000000000000000000600082015250565b600062002fdb600d8362001fea565b915062002fe88262002fa3565b602082019050919050565b600060208201905081810360008301526200300e8162002fcc565b9050919050565b60006040820190506200302c600083018562001cab565b6200303b602083018462001cab565b9392505050565b7f5a65726f20616464726573730000000000000000000000000000000000000000600082015250565b60006200307a600c8362001fea565b9150620030878262003042565b602082019050919050565b60006020820190508181036000830152620030ad816200306b565b905091905056fe60806040523480156200001157600080fd5b5060405162002600380380620026008339818101604052810190620000379190620007bb565b858581600e90816200004a919062000ad6565b5080600f90816200005c919062000ad6565b505050600073ffffffffffffffffffffffffffffffffffffffff168273ffffffffffffffffffffffffffffffffffffffff1603620000d1576040517f08c379a0000000000000000000000000000000000000000000000000000000008152600401620000c89062000c1e565b60405180910390fd5b600073ffffffffffffffffffffffffffffffffffffffff168473ffffffffffffffffffffffffffffffffffffffff160362000143576040517f08c379a00000000000000000000000000000000000000000000000000000000081526004016200013a9062000c90565b60405180910390fd5b6000811162000189576040517f08c379a0000000000000000000000000000000000000000000000000000000008152600401620001809062000d02565b60405180910390fd5b83600860006101000a81548173ffffffffffffffffffffffffffffffffffffffff021916908373ffffffffffffffffffffffffffffffffffffffff1602179055508260078190555033600960006101000a81548173ffffffffffffffffffffffffffffffffffffffff021916908373ffffffffffffffffffffffffffffffffffffffff160217905550600062000224620002bf60201b60201c565b90508060ff16600a62000238919062000ea7565b8262000245919062000ef8565b600a819055506200025f83600a54620002c860201b60201c565b838373ffffffffffffffffffffffffffffffffffffffff167f1ada2eae037fb6ff59f185305a4720bc3e809772c23b4f0d70e3462db5d13e6d600a54604051620002aa919062000f54565b60405180910390a35050505050505062001017565b60006012905090565b600073ffffffffffffffffffffffffffffffffffffffff168273ffffffffffffffffffffffffffffffffffffffff16036200033d5760006040517fec442f0500000000000000000000000000000000000000000000000000000000815260040162000334919062000f82565b60405180910390fd5b62000351600083836200035560201b60201c565b5050565b600073ffffffffffffffffffffffffffffffffffffffff168373ffffffffffffffffffffffffffffffffffffffff1603620003ab5780600d60008282546200039e919062000f9f565b9250508190555062000483565b6000600b60008573ffffffffffffffffffffffffffffffffffffffff1673ffffffffffffffffffffffffffffffffffffffff168152602001908152602001600020549050818110156200043b578381836040517fe450d38c000000000000000000000000000000000000000000000000000000008152600401620004329392919062000fda565b60405180910390fd5b818103600b60008673ffffffffffffffffffffffffffffffffffffffff1673ffffffffffffffffffffffffffffffffffffffff16815260200190815260200160002081905550505b600073ffffffffffffffffffffffffffffffffffffffff168273ffffffffffffffffffffffffffffffffffffffff1603620004ce5780600d600082825403925050819055506200051c565b80600b60008473ffffffffffffffffffffffffffffffffffffffff1673ffffffffffffffffffffffffffffffffffffffff168152602001908152602001600020600082825401925050819055505b8173ffffffffffffffffffffffffffffffffffffffff168373ffffffffffffffffffffffffffffffffffffffff167fddf252ad1be2c89b69c2b068fc378daa952ba7f163c4a11628f55a4df523b3ef836040516200057b919062000f54565b60405180910390a3505050565b6000604051905090565b600080fd5b600080fd5b600080fd5b600080fd5b6000601f19601f8301169050919050565b7f4e487b7100000000000000000000000000000000000000000000000000000000600052604160045260246000fd5b620005f182620005a6565b810181811067ffffffffffffffff82111715620006135762000612620005b7565b5b80604052505050565b60006200062862000588565b9050620006368282620005e6565b919050565b600067ffffffffffffffff821115620006595762000658620005b7565b5b6200066482620005a6565b9050602081019050919050565b60005b838110156200069157808201518184015260208101905062000674565b60008484015250505050565b6000620006b4620006ae846200063b565b6200061c565b905082815260208101848484011115620006d357620006d2620005a1565b5b620006e084828562000671565b509392505050565b600082601f8301126200070057620006ff6200059c565b5b8151620007128482602086016200069d565b91505092915050565b600073ffffffffffffffffffffffffffffffffffffffff82169050919050565b600062000748826200071b565b9050919050565b6200075a816200073b565b81146200076657600080fd5b50565b6000815190506200077a816200074f565b92915050565b6000819050919050565b620007958162000780565b8114620007a157600080fd5b50565b600081519050620007b5816200078a565b92915050565b60008060008060008060c08789031215620007db57620007da62000592565b5b600087015167ffffffffffffffff811115620007fc57620007fb62000597565b5b6200080a89828a01620006e8565b965050602087015167ffffffffffffffff8111156200082e576200082d62000597565b5b6200083c89828a01620006e8565b95505060406200084f89828a0162000769565b94505060606200086289828a01620007a4565b93505060806200087589828a0162000769565b92505060a06200088889828a01620007a4565b9150509295509295509295565b600081519050919050565b7f4e487b7100000000000000000000000000000000000000000000000000000000600052602260045260246000fd5b60006002820490506001821680620008e857607f821691505b602082108103620008fe57620008fd620008a0565b5b50919050565b60008190508160005260206000209050919050565b60006020601f8301049050919050565b600082821b905092915050565b600060088302620009687fffffffffffffffffffffffffffffffffffffffffffffffffffffffffffffffff8262000929565b62000974868362000929565b95508019841693508086168417925050509392505050565b6000819050919050565b6000620009b7620009b1620009ab8462000780565b6200098c565b62000780565b9050919050565b6000819050919050565b620009d38362000996565b620009eb620009e282620009be565b84845462000936565b825550505050565b600090565b62000a02620009f3565b62000a0f818484620009c8565b505050565b5b8181101562000a375762000a2b600082620009f8565b60018101905062000a15565b5050565b601f82111562000a865762000a508162000904565b62000a5b8462000919565b8101602085101562000a6b578190505b62000a8362000a7a8562000919565b83018262000a14565b50505b505050565b600082821c905092915050565b600062000aab6000198460080262000a8b565b1980831691505092915050565b600062000ac6838362000a98565b9150826002028217905092915050565b62000ae18262000895565b67ffffffffffffffff81111562000afd5762000afc620005b7565b5b62000b098254620008cf565b62000b1682828562000a3b565b600060209050601f83116001811462000b4e576000841562000b39578287015190505b62000b45858262000ab8565b86555062000bb5565b601f19841662000b5e8662000904565b60005b8281101562000b885784890151825560018201915060208501945060208101905062000b61565b8683101562000ba8578489015162000ba4601f89168262000a98565b8355505b6001600288020188555050505b505050505050565b600082825260208201905092915050565b7f496e697469616c20686f6c646572207a65726f00000000000000000000000000600082015250565b600062000c0660138362000bbd565b915062000c138262000bce565b602082019050919050565b6000602082019050818103600083015262000c398162000bf7565b9050919050565b7f50726f706572747944656564207a65726f000000000000000000000000000000600082015250565b600062000c7860118362000bbd565b915062000c858262000c40565b602082019050919050565b6000602082019050818103600083015262000cab8162000c69565b9050919050565b7f546f74616c20737570706c79207a65726f000000000000000000000000000000600082015250565b600062000cea60118362000bbd565b915062000cf78262000cb2565b602082019050919050565b6000602082019050818103600083015262000d1d8162000cdb565b9050919050565b7f4e487b7100000000000000000000000000000000000000000000000000000000600052601160045260246000fd5b60008160011c9050919050565b6000808291508390505b600185111562000db25780860481111562000d8a5762000d8962000d24565b5b600185161562000d9a5780820291505b808102905062000daa8562000d53565b945062000d6a565b94509492505050565b60008262000dcd576001905062000ea0565b8162000ddd576000905062000ea0565b816001811462000df6576002811462000e015762000e37565b600191505062000ea0565b60ff84111562000e165762000e1562000d24565b5b8360020a91508482111562000e305762000e2f62000d24565b5b5062000ea0565b5060208310610133831016604e8410600b841016171562000e715782820a90508381111562000e6b5762000e6a62000d24565b5b62000ea0565b62000e80848484600162000d60565b9250905081840481111562000e9a5762000e9962000d24565b5b81810290505b9392505050565b600062000eb48262000780565b915062000ec18362000780565b925062000ef07fffffffffffffffffffffffffffffffffffffffffffffffffffffffffffffffff848462000dbb565b905092915050565b600062000f058262000780565b915062000f128362000780565b925082820262000f228162000780565b9150828204841483151762000f3c5762000f3b62000d24565b5b5092915050565b62000f4e8162000780565b82525050565b600060208201905062000f6b600083018462000f43565b92915050565b62000f7c816200073b565b82525050565b600060208201905062000f99600083018462000f71565b92915050565b600062000fac8262000780565b915062000fb98362000780565b925082820190508082111562000fd45762000fd362000d24565b5b92915050565b600060608201905062000ff1600083018662000f71565b62001000602083018562000f43565b6200100f604083018462000f43565b949350505050565b6115d980620010276000396000f3fe608060405234801561001057600080fd5b50600436106101375760003560e01c806357dbcd8d116100b8578063c1bd8cf91161007c578063c1bd8cf91461037d578063d090e47e1461039b578063d1fedbc2146103b9578063dd62ed3e146103e9578063f657a95d14610419578063f7b108081461043757610137565b806357dbcd8d146102b157806370a08231146102cf578063766de47f146102ff57806395d89b411461032f578063a9059cbb1461034d57610137565b806323b872dd116100ff57806323b872dd146101f65780632d487d2f14610226578063313ce56714610257578063359cd67b14610275578063481c6a751461029357610137565b806306fdde031461013c578063095ea7b31461015a57806312cda2541461018a57806317d70f7c146101ba57806318160ddd146101d8575b600080fd5b610144610469565b6040516101519190610fb4565b60405180910390f35b610174600480360381019061016f919061106f565b6104fb565b60405161018191906110ca565b60405180910390f35b6101a4600480360381019061019f91906110e5565b61051e565b6040516101b19190611121565b60405180910390f35b6101c2610551565b6040516101cf919061114b565b60405180910390f35b6101e0610557565b6040516101ed919061114b565b60405180910390f35b610210600480360381019061020b9190611166565b610561565b60405161021d91906110ca565b60405180910390f35b610240600480360381019061023b91906110e5565b610590565b60405161024e9291906111b9565b60405180910390f35b61025f6105c1565b60405161026c91906111fe565b60405180910390f35b61027d6105ca565b60405161028a9190611121565b60405180910390f35b61029b6105f0565b6040516102a89190611121565b60405180910390f35b6102b9610616565b6040516102c6919061114b565b60405180910390f35b6102e960048036038101906102e49190611219565b610646565b6040516102f6919061114b565b60405180910390f35b610319600480360381019061031491906110e5565b61068f565b604051610326919061114b565b60405180910390f35b6103376106a7565b6040516103449190610fb4565b60405180910390f35b6103676004803603810190610362919061106f565b610739565b60405161037491906110ca565b60405180910390f35b61038561075c565b604051610392919061114b565b60405180910390f35b6103a3610762565b6040516103b0919061114b565b60405180910390f35b6103d360048036038101906103ce91906110e5565b610768565b6040516103e09190611121565b60405180910390f35b61040360048036038101906103fe9190611246565b61079b565b604051610410919061114b565b60405180910390f35b610421610822565b60405161042e9190611121565b60405180910390f35b610451600480360381019061044c91906110e5565b610848565b60405161046093929190611286565b60405180910390f35b6060600e8054610478906112fa565b80601f01602080910402602001604051908101604052809291908181526020018280546104a4906112fa565b80156104f15780601f106104c6576101008083540402835291602001916104f1565b820191906000526020600020905b8154815290600101906020018083116104d457829003601f168201915b5050505050905090565b600080610506610982565b905061051381858561098a565b600191505092915050565b60036020528060005260406000206000915054906101000a900473ffffffffffffffffffffffffffffffffffffffff1681565b60075481565b6000600d54905090565b60008061056c610982565b905061057985828561099c565b610584858585610a31565b60019150509392505050565b60056020528060005260406000206000915090508060000154908060010160009054906101000a900460ff16905082565b60006012905090565b600860009054906101000a900473ffffffffffffffffffffffffffffffffffffffff1681565b600960009054906101000a900473ffffffffffffffffffffffffffffffffffffffff1681565b60006106206105c1565b60ff16600a61062f919061148d565b610637610557565b6106419190611507565b905090565b6000600b60008373ffffffffffffffffffffffffffffffffffffffff1673ffffffffffffffffffffffffffffffffffffffff168152602001908152602001600020549050919050565b60026020528060005260406000206000915090505481565b6060600f80546106b6906112fa565b80601f01602080910402602001604051908101604052809291908181526020018280546106e2906112fa565b801561072f5780601f106107045761010080835404028352916020019161072f565b820191906000526020600020905b81548152906001019060200180831161071257829003601f168201915b5050505050905090565b600080610744610982565b9050610751818585610a31565b600191505092915050565b600a5481565b60015481565b60066020528060005260406000206000915054906101000a900473ffffffffffffffffffffffffffffffffffffffff1681565b6000600c60008473ffffffffffffffffffffffffffffffffffffffff1673ffffffffffffffffffffffffffffffffffffffff16815260200190815260200160002060008373ffffffffffffffffffffffffffffffffffffffff1673ffffffffffffffffffffffffffffffffffffffff16815260200190815260200160002054905092915050565b600460009054906101000a900473ffffffffffffffffffffffffffffffffffffffff1681565b600060205280600052604060002060009150905080600001805461086b906112fa565b80601f0160208091040260200160405190810160405280929190818152602001828054610897906112fa565b80156108e45780601f106108b9576101008083540402835291602001916108e4565b820191906000526020600020905b8154815290600101906020018083116108c757829003601f168201915b5050505050908060010180546108f9906112fa565b80601f0160208091040260200160405190810160405280929190818152602001828054610925906112fa565b80156109725780601f1061094757610100808354040283529160200191610972565b820191906000526020600020905b81548152906001019060200180831161095557829003601f168201915b5050505050908060020154905083565b600033905090565b6109978383836001610b25565b505050565b60006109a8848461079b565b90507fffffffffffffffffffffffffffffffffffffffffffffffffffffffffffffffff811015610a2b5781811015610a1b578281836040517ffb8f41b2000000000000000000000000000000000000000000000000000000008152600401610a1293929190611538565b60405180910390fd5b610a2a84848484036000610b25565b5b50505050565b600073ffffffffffffffffffffffffffffffffffffffff168373ffffffffffffffffffffffffffffffffffffffff1603610aa35760006040517f96c6fd1e000000000000000000000000000000000000000000000000000000008152600401610a9a9190611121565b60405180910390fd5b600073ffffffffffffffffffffffffffffffffffffffff168273ffffffffffffffffffffffffffffffffffffffff1603610b155760006040517fec442f05000000000000000000000000000000000000000000000000000000008152600401610b0c9190611121565b60405180910390fd5b610b20838383610cfc565b505050565b600073ffffffffffffffffffffffffffffffffffffffff168473ffffffffffffffffffffffffffffffffffffffff1603610b975760006040517fe602df05000000000000000000000000000000000000000000000000000000008152600401610b8e9190611121565b60405180910390fd5b600073ffffffffffffffffffffffffffffffffffffffff168373ffffffffffffffffffffffffffffffffffffffff1603610c095760006040517f94280d62000000000000000000000000000000000000000000000000000000008152600401610c009190611121565b60405180910390fd5b81600c60008673ffffffffffffffffffffffffffffffffffffffff1673ffffffffffffffffffffffffffffffffffffffff16815260200190815260200160002060008573ffffffffffffffffffffffffffffffffffffffff1673ffffffffffffffffffffffffffffffffffffffff168152602001908152602001600020819055508015610cf6578273ffffffffffffffffffffffffffffffffffffffff168473ffffffffffffffffffffffffffffffffffffffff167f8c5be1e5ebec7d5bd14f71427d1e84f3dd0314c0f7b2291e5b200ac8c7c3b92584604051610ced919061114b565b60405180910390a35b50505050565b600073ffffffffffffffffffffffffffffffffffffffff168373ffffffffffffffffffffffffffffffffffffffff1603610d4e5780600d6000828254610d42919061156f565b92505081905550610e23565b6000600b60008573ffffffffffffffffffffffffffffffffffffffff1673ffffffffffffffffffffffffffffffffffffffff16815260200190815260200160002054905081811015610ddb578381836040517fe450d38c000000000000000000000000000000000000000000000000000000008152600401610dd293929190611538565b60405180910390fd5b818103600b60008673ffffffffffffffffffffffffffffffffffffffff1673ffffffffffffffffffffffffffffffffffffffff16815260200190815260200160002081905550505b600073ffffffffffffffffffffffffffffffffffffffff168273ffffffffffffffffffffffffffffffffffffffff1603610e6c5780600d60008282540392505081905550610eba565b80600b60008473ffffffffffffffffffffffffffffffffffffffff1673ffffffffffffffffffffffffffffffffffffffff168152602001908152602001600020600082825401925050819055505b8173ffffffffffffffffffffffffffffffffffffffff168373ffffffffffffffffffffffffffffffffffffffff167fddf252ad1be2c89b69c2b068fc378daa952ba7f163c4a11628f55a4df523b3ef83604051610f17919061114b565b60405180910390a3505050565b600081519050919050565b600082825260208201905092915050565b60005b83811015610f5e578082015181840152602081019050610f43565b60008484015250505050565b6000601f19601f8301169050919050565b6000610f8682610f24565b610f908185610f2f565b9350610fa0818560208601610f40565b610fa981610f6a565b840191505092915050565b60006020820190508181036000830152610fce8184610f7b565b905092915050565b600080fd5b600073ffffffffffffffffffffffffffffffffffffffff82169050919050565b600061100682610fdb565b9050919050565b61101681610ffb565b811461102157600080fd5b50565b6000813590506110338161100d565b92915050565b6000819050919050565b61104c81611039565b811461105757600080fd5b50565b60008135905061106981611043565b92915050565b6000806040838503121561108657611085610fd6565b5b600061109485828601611024565b92505060206110a58582860161105a565b9150509250929050565b60008115159050919050565b6110c4816110af565b82525050565b60006020820190506110df60008301846110bb565b92915050565b6000602082840312156110fb576110fa610fd6565b5b60006111098482850161105a565b91505092915050565b61111b81610ffb565b82525050565b60006020820190506111366000830184611112565b92915050565b61114581611039565b82525050565b6000602082019050611160600083018461113c565b92915050565b60008060006060848603121561117f5761117e610fd6565b5b600061118d86828701611024565b935050602061119e86828701611024565b92505060406111af8682870161105a565b9150509250925092565b60006040820190506111ce600083018561113c565b6111db60208301846110bb565b9392505050565b600060ff82169050919050565b6111f8816111e2565b82525050565b600060208201905061121360008301846111ef565b92915050565b60006020828403121561122f5761122e610fd6565b5b600061123d84828501611024565b91505092915050565b6000806040838503121561125d5761125c610fd6565b5b600061126b85828601611024565b925050602061127c85828601611024565b9150509250929050565b600060608201905081810360008301526112a08186610f7b565b905081810360208301526112b48185610f7b565b90506112c3604083018461113c565b949350505050565b7f4e487b7100000000000000000000000000000000000000000000000000000000600052602260045260246000fd5b6000600282049050600182168061131257607f821691505b602082108103611325576113246112cb565b5b50919050565b7f4e487b7100000000000000000000000000000000000000000000000000000000600052601160045260246000fd5b60008160011c9050919050565b6000808291508390505b60018511156113b15780860481111561138d5761138c61132b565b5b600185161561139c5780820291505b80810290506113aa8561135a565b9450611371565b94509492505050565b6000826113ca5760019050611486565b816113d85760009050611486565b81600181146113ee57600281146113f857611427565b6001915050611486565b60ff84111561140a5761140961132b565b5b8360020a9150848211156114215761142061132b565b5b50611486565b5060208310610133831016604e8410600b841016171561145c5782820a9050838111156114575761145661132b565b5b611486565b6114698484846001611367565b925090508184048111156114805761147f61132b565b5b81810290505b9392505050565b600061149882611039565b91506114a383611039565b92506114d07fffffffffffffffffffffffffffffffffffffffffffffffffffffffffffffffff84846113ba565b905092915050565b7f4e487b7100000000000000000000000000000000000000000000000000000000600052601260045260246000fd5b600061151282611039565b915061151d83611039565b92508261152d5761152c6114d8565b5b828204905092915050565b600060608201905061154d6000830186611112565b61155a602083018561113c565b611567604083018461113c565b949350505050565b600061157a82611039565b915061158583611039565b925082820190508082111561159d5761159c61132b565b5b9291505056fea264697066735822122089a37672383cf2eb189b8ab14a561bb0f46f211b22bf2c2f9b0febe1472955ee64736f6c63430008140033a2646970667358221220ff90cd4c68e68d267d018d31dc0dab4b2e072a1db1632eed12f12221e83e998464736f6c63430008140033","opcodes":"PUSH1 0x80 PUSH1 0x40 MSTORE CALLVALUE DUP1 ISZERO PUSH3 0x11 JUMPI PUSH1 0x0 DUP1 REVERT JUMPDEST POP CALLER PUSH1 0x1 PUSH1 0xB DUP2 SWAP1 SSTORE POP PUSH1 0x0 PUSH20 0xFFFFFFFFFFFFFFFFFFFFFFFFFFFFFFFFFFFFFFFF AND DUP2 PUSH20 0xFFFFFFFFFFFFFFFFFFFFFFFFFFFFFFFFFFFFFFFF AND SUB PUSH3 0x90 JUMPI PUSH1 0x0 PUSH1 0x40 MLOAD PUSH32 0x1E4FBDF700000000000000000000000000000000000000000000000000000000 DUP2 MSTORE PUSH1 0x4 ADD PUSH3 0x87 SWAP2 SWAP1 PUSH3 0x1B3 JUMP JUMPDEST PUSH1 0x40 MLOAD DUP1 SWAP2 SUB SWAP1 REVERT JUMPDEST PUSH3 0xA1 DUP2 PUSH3 0xA8 PUSH1 0x20 SHL PUSH1 0x20 SHR JUMP JUMPDEST POP PUSH3 0x1D0 JUMP JUMPDEST PUSH1 0x0 PUSH1 0xC PUSH1 0x0 SWAP1 SLOAD SWAP1 PUSH2 0x100 EXP SWAP1 DIV PUSH20 0xFFFFFFFFFFFFFFFFFFFFFFFFFFFFFFFFFFFFFFFF AND SWAP1 POP DUP2 PUSH1 0xC PUSH1 0x0 PUSH2 0x100 EXP DUP2 SLOAD DUP2 PUSH20 0xFFFFFFFFFFFFFFFFFFFFFFFFFFFFFFFFFFFFFFFF MUL NOT AND SWAP1 DUP4 PUSH20 0xFFFFFFFFFFFFFFFFFFFFFFFFFFFFFFFFFFFFFFFF AND MUL OR SWAP1 SSTORE POP DUP2 PUSH20 0xFFFFFFFFFFFFFFFFFFFFFFFFFFFFFFFFFFFFFFFF AND DUP2 PUSH20 0xFFFFFFFFFFFFFFFFFFFFFFFFFFFFFFFFFFFFFFFF AND PUSH32 0x8BE0079C531659141344CD1FD0A4F28419497F9722A3DAAFE3B4186F6B6457E0 PUSH1 0x40 MLOAD PUSH1 0x40 MLOAD DUP1 SWAP2 SUB SWAP1 LOG3 POP POP JUMP JUMPDEST PUSH1 0x0 PUSH20 0xFFFFFFFFFFFFFFFFFFFFFFFFFFFFFFFFFFFFFFFF DUP3 AND SWAP1 POP SWAP2 SWAP1 POP JUMP JUMPDEST PUSH1 0x0 PUSH3 0x19B DUP3 PUSH3 0x16E JUMP JUMPDEST SWAP1 POP SWAP2 SWAP1 POP JUMP JUMPDEST PUSH3 0x1AD DUP2 PUSH3 0x18E JUMP JUMPDEST DUP3 MSTORE POP POP JUMP JUMPDEST PUSH1 0x0 PUSH1 0x20 DUP3 ADD SWAP1 POP PUSH3 0x1CA PUSH1 0x0 DUP4 ADD DUP5 PUSH3 0x1A2 JUMP JUMPDEST SWAP3 SWAP2 POP POP JUMP JUMPDEST PUSH2 0x56EA DUP1 PUSH3 0x1E0 PUSH1 0x0 CODECOPY PUSH1 0x0 RETURN INVALID PUSH1 0x80 PUSH1 0x40 MSTORE PUSH1 0x4 CALLDATASIZE LT PUSH3 0x13F JUMPI PUSH1 0x0 CALLDATALOAD PUSH1 0xE0 SHR DUP1 PUSH4 0x766DE47F GT PUSH3 0xAF JUMPI DUP1 PUSH4 0xEA370276 GT PUSH3 0x6D JUMPI DUP1 PUSH4 0xEA370276 EQ PUSH3 0x465 JUMPI DUP1 PUSH4 0xF2FDE38B EQ PUSH3 0x485 JUMPI DUP1 PUSH4 0xF54E30E6 EQ PUSH3 0x4B3 JUMPI DUP1 PUSH4 0xF657A95D EQ PUSH3 0x4E1 JUMPI DUP1 PUSH4 0xF7B10808 EQ PUSH3 0x511 JUMPI PUSH3 0x147 JUMP JUMPDEST DUP1 PUSH4 0x766DE47F EQ PUSH3 0x34D JUMPI DUP1 PUSH4 0x8DA5CB5B EQ PUSH3 0x391 JUMPI DUP1 PUSH4 0xC1BD8CF9 EQ PUSH3 0x3C1 JUMPI DUP1 PUSH4 0xD090E47E EQ PUSH3 0x3F1 JUMPI DUP1 PUSH4 0xD1FEDBC2 EQ PUSH3 0x421 JUMPI PUSH3 0x147 JUMP JUMPDEST DUP1 PUSH4 0x2E4DA132 GT PUSH3 0xFD JUMPI DUP1 PUSH4 0x2E4DA132 EQ PUSH3 0x277 JUMPI DUP1 PUSH4 0x359CD67B EQ PUSH3 0x2A5 JUMPI DUP1 PUSH4 0x481C6A75 EQ PUSH3 0x2D5 JUMPI DUP1 PUSH4 0x690D8320 EQ PUSH3 0x305 JUMPI DUP1 PUSH4 0x715018A6 EQ PUSH3 0x333 JUMPI PUSH3 0x147 JUMP JUMPDEST DUP1 PUSH4 0x12CDA254 EQ PUSH3 0x14C JUMPI DUP1 PUSH4 0x150B7A02 EQ PUSH3 0x190 JUMPI DUP1 PUSH4 0x17D70F7C EQ PUSH3 0x1D4 JUMPI DUP1 PUSH4 0x1DA0F203 EQ PUSH3 0x204 JUMPI DUP1 PUSH4 0x2D487D2F EQ PUSH3 0x232 JUMPI PUSH3 0x147 JUMP JUMPDEST CALLDATASIZE PUSH3 0x147 JUMPI STOP JUMPDEST PUSH1 0x0 DUP1 REVERT JUMPDEST CALLVALUE DUP1 ISZERO PUSH3 0x159 JUMPI PUSH1 0x0 DUP1 REVERT JUMPDEST POP PUSH3 0x178 PUSH1 0x4 DUP1 CALLDATASIZE SUB DUP2 ADD SWAP1 PUSH3 0x172 SWAP2 SWAP1 PUSH3 0x1999 JUMP JUMPDEST PUSH3 0x557 JUMP JUMPDEST PUSH1 0x40 MLOAD PUSH3 0x187 SWAP2 SWAP1 PUSH3 0x1A10 JUMP JUMPDEST PUSH1 0x40 MLOAD DUP1 SWAP2 SUB SWAP1 RETURN JUMPDEST CALLVALUE DUP1 ISZERO PUSH3 0x19D JUMPI PUSH1 0x0 DUP1 REVERT JUMPDEST POP PUSH3 0x1BC PUSH1 0x4 DUP1 CALLDATASIZE SUB DUP2 ADD SWAP1 PUSH3 0x1B6 SWAP2 SWAP1 PUSH3 0x1BC0 JUMP JUMPDEST PUSH3 0x58A JUMP JUMPDEST PUSH1 0x40 MLOAD PUSH3 0x1CB SWAP2 SWAP1 PUSH3 0x1C8E JUMP JUMPDEST PUSH1 0x40 MLOAD DUP1 SWAP2 SUB SWAP1 RETURN JUMPDEST CALLVALUE DUP1 ISZERO PUSH3 0x1E1 JUMPI PUSH1 0x0 DUP1 REVERT JUMPDEST POP PUSH3 0x1EC PUSH3 0x59E JUMP JUMPDEST PUSH1 0x40 MLOAD PUSH3 0x1FB SWAP2 SWAP1 PUSH3 0x1CBC JUMP JUMPDEST PUSH1 0x40 MLOAD DUP1 SWAP2 SUB SWAP1 RETURN JUMPDEST CALLVALUE DUP1 ISZERO PUSH3 0x211 JUMPI PUSH1 0x0 DUP1 REVERT JUMPDEST POP PUSH3 0x230 PUSH1 0x4 DUP1 CALLDATASIZE SUB DUP2 ADD SWAP1 PUSH3 0x22A SWAP2 SWAP1 PUSH3 0x1D8D JUMP JUMPDEST PUSH3 0x5A4 JUMP JUMPDEST STOP JUMPDEST CALLVALUE DUP1 ISZERO PUSH3 0x23F JUMPI PUSH1 0x0 DUP1 REVERT JUMPDEST POP PUSH3 0x25E PUSH1 0x4 DUP1 CALLDATASIZE SUB DUP2 ADD SWAP1 PUSH3 0x258 SWAP2 SWAP1 PUSH3 0x1999 JUMP JUMPDEST PUSH3 0xAC4 JUMP JUMPDEST PUSH1 0x40 MLOAD PUSH3 0x26E SWAP3 SWAP2 SWAP1 PUSH3 0x1EC2 JUMP JUMPDEST PUSH1 0x40 MLOAD DUP1 SWAP2 SUB SWAP1 RETURN JUMPDEST CALLVALUE DUP1 ISZERO PUSH3 0x284 JUMPI PUSH1 0x0 DUP1 REVERT JUMPDEST POP PUSH3 0x2A3 PUSH1 0x4 DUP1 CALLDATASIZE SUB DUP2 ADD SWAP1 PUSH3 0x29D SWAP2 SWAP1 PUSH3 0x1EEF JUMP JUMPDEST PUSH3 0xAF5 JUMP JUMPDEST STOP JUMPDEST CALLVALUE DUP1 ISZERO PUSH3 0x2B2 JUMPI PUSH1 0x0 DUP1 REVERT JUMPDEST POP PUSH3 0x2BD PUSH3 0xCD4 JUMP JUMPDEST PUSH1 0x40 MLOAD PUSH3 0x2CC SWAP2 SWAP1 PUSH3 0x1A10 JUMP JUMPDEST PUSH1 0x40 MLOAD DUP1 SWAP2 SUB SWAP1 RETURN JUMPDEST CALLVALUE DUP1 ISZERO PUSH3 0x2E2 JUMPI PUSH1 0x0 DUP1 REVERT JUMPDEST POP PUSH3 0x2ED PUSH3 0xCFA JUMP JUMPDEST PUSH1 0x40 MLOAD PUSH3 0x2FC SWAP2 SWAP1 PUSH3 0x1A10 JUMP JUMPDEST PUSH1 0x40 MLOAD DUP1 SWAP2 SUB SWAP1 RETURN JUMPDEST CALLVALUE DUP1 ISZERO PUSH3 0x312 JUMPI PUSH1 0x0 DUP1 REVERT JUMPDEST POP PUSH3 0x331 PUSH1 0x4 DUP1 CALLDATASIZE SUB DUP2 ADD SWAP1 PUSH3 0x32B SWAP2 SWAP1 PUSH3 0x1F7B JUMP JUMPDEST PUSH3 0xD20 JUMP JUMPDEST STOP JUMPDEST CALLVALUE DUP1 ISZERO PUSH3 0x340 JUMPI PUSH1 0x0 DUP1 REVERT JUMPDEST POP PUSH3 0x34B PUSH3 0xDE1 JUMP JUMPDEST STOP JUMPDEST CALLVALUE DUP1 ISZERO PUSH3 0x35A JUMPI PUSH1 0x0 DUP1 REVERT JUMPDEST POP PUSH3 0x379 PUSH1 0x4 DUP1 CALLDATASIZE SUB DUP2 ADD SWAP1 PUSH3 0x373 SWAP2 SWAP1 PUSH3 0x1999 JUMP JUMPDEST PUSH3 0xDF9 JUMP JUMPDEST PUSH1 0x40 MLOAD PUSH3 0x388 SWAP2 SWAP1 PUSH3 0x1CBC JUMP JUMPDEST PUSH1 0x40 MLOAD DUP1 SWAP2 SUB SWAP1 RETURN JUMPDEST CALLVALUE DUP1 ISZERO PUSH3 0x39E JUMPI PUSH1 0x0 DUP1 REVERT JUMPDEST POP PUSH3 0x3A9 PUSH3 0xE11 JUMP JUMPDEST PUSH1 0x40 MLOAD PUSH3 0x3B8 SWAP2 SWAP1 PUSH3 0x1A10 JUMP JUMPDEST PUSH1 0x40 MLOAD DUP1 SWAP2 SUB SWAP1 RETURN JUMPDEST CALLVALUE DUP1 ISZERO PUSH3 0x3CE JUMPI PUSH1 0x0 DUP1 REVERT JUMPDEST POP PUSH3 0x3D9 PUSH3 0xE3B JUMP JUMPDEST PUSH1 0x40 MLOAD PUSH3 0x3E8 SWAP2 SWAP1 PUSH3 0x1CBC JUMP JUMPDEST PUSH1 0x40 MLOAD DUP1 SWAP2 SUB SWAP1 RETURN JUMPDEST CALLVALUE DUP1 ISZERO PUSH3 0x3FE JUMPI PUSH1 0x0 DUP1 REVERT JUMPDEST POP PUSH3 0x409 PUSH3 0xE41 JUMP JUMPDEST PUSH1 0x40 MLOAD PUSH3 0x418 SWAP2 SWAP1 PUSH3 0x1CBC JUMP JUMPDEST PUSH1 0x40 MLOAD DUP1 SWAP2 SUB SWAP1 RETURN JUMPDEST CALLVALUE DUP1 ISZERO PUSH3 0x42E JUMPI PUSH1 0x0 DUP1 REVERT JUMPDEST POP PUSH3 0x44D PUSH1 0x4 DUP1 CALLDATASIZE SUB DUP2 ADD SWAP1 PUSH3 0x447 SWAP2 SWAP1 PUSH3 0x1999 JUMP JUMPDEST PUSH3 0xE47 JUMP JUMPDEST PUSH1 0x40 MLOAD PUSH3 0x45C SWAP2 SWAP1 PUSH3 0x1A10 JUMP JUMPDEST PUSH1 0x40 MLOAD DUP1 SWAP2 SUB SWAP1 RETURN JUMPDEST PUSH3 0x483 PUSH1 0x4 DUP1 CALLDATASIZE SUB DUP2 ADD SWAP1 PUSH3 0x47D SWAP2 SWAP1 PUSH3 0x1EEF JUMP JUMPDEST PUSH3 0xE7A JUMP JUMPDEST STOP JUMPDEST CALLVALUE DUP1 ISZERO PUSH3 0x492 JUMPI PUSH1 0x0 DUP1 REVERT JUMPDEST POP PUSH3 0x4B1 PUSH1 0x4 DUP1 CALLDATASIZE SUB DUP2 ADD SWAP1 PUSH3 0x4AB SWAP2 SWAP1 PUSH3 0x1FAD JUMP JUMPDEST PUSH3 0x1521 JUMP JUMPDEST STOP JUMPDEST CALLVALUE DUP1 ISZERO PUSH3 0x4C0 JUMPI PUSH1 0x0 DUP1 REVERT JUMPDEST POP PUSH3 0x4DF PUSH1 0x4 DUP1 CALLDATASIZE SUB DUP2 ADD SWAP1 PUSH3 0x4D9 SWAP2 SWAP1 PUSH3 0x1FAD JUMP JUMPDEST PUSH3 0x15AE JUMP JUMPDEST STOP JUMPDEST CALLVALUE DUP1 ISZERO PUSH3 0x4EE JUMPI PUSH1 0x0 DUP1 REVERT JUMPDEST POP PUSH3 0x4F9 PUSH3 0x166E JUMP JUMPDEST PUSH1 0x40 MLOAD PUSH3 0x508 SWAP2 SWAP1 PUSH3 0x1A10 JUMP JUMPDEST PUSH1 0x40 MLOAD DUP1 SWAP2 SUB SWAP1 RETURN JUMPDEST CALLVALUE DUP1 ISZERO PUSH3 0x51E JUMPI PUSH1 0x0 DUP1 REVERT JUMPDEST POP PUSH3 0x53D PUSH1 0x4 DUP1 CALLDATASIZE SUB DUP2 ADD SWAP1 PUSH3 0x537 SWAP2 SWAP1 PUSH3 0x1999 JUMP JUMPDEST PUSH3 0x1694 JUMP JUMPDEST PUSH1 0x40 MLOAD PUSH3 0x54E SWAP4 SWAP3 SWAP2 SWAP1 PUSH3 0x2068 JUMP JUMPDEST PUSH1 0x40 MLOAD DUP1 SWAP2 SUB SWAP1 RETURN JUMPDEST PUSH1 0x3 PUSH1 0x20 MSTORE DUP1 PUSH1 0x0 MSTORE PUSH1 0x40 PUSH1 0x0 KECCAK256 PUSH1 0x0 SWAP2 POP SLOAD SWAP1 PUSH2 0x100 EXP SWAP1 DIV PUSH20 0xFFFFFFFFFFFFFFFFFFFFFFFFFFFFFFFFFFFFFFFF AND DUP2 JUMP JUMPDEST PUSH1 0x0 PUSH4 0x150B7A02 PUSH1 0xE0 SHL SWAP1 POP SWAP5 SWAP4 POP POP POP POP JUMP JUMPDEST PUSH1 0x7 SLOAD DUP2 JUMP JUMPDEST PUSH1 0x0 PUSH20 0xFFFFFFFFFFFFFFFFFFFFFFFFFFFFFFFFFFFFFFFF AND PUSH1 0x4 PUSH1 0x0 SWAP1 SLOAD SWAP1 PUSH2 0x100 EXP SWAP1 DIV PUSH20 0xFFFFFFFFFFFFFFFFFFFFFFFFFFFFFFFFFFFFFFFF AND PUSH20 0xFFFFFFFFFFFFFFFFFFFFFFFFFFFFFFFFFFFFFFFF AND SUB PUSH3 0x638 JUMPI PUSH1 0x40 MLOAD PUSH32 0x8C379A000000000000000000000000000000000000000000000000000000000 DUP2 MSTORE PUSH1 0x4 ADD PUSH3 0x62F SWAP1 PUSH3 0x2103 JUMP JUMPDEST PUSH1 0x40 MLOAD DUP1 SWAP2 SUB SWAP1 REVERT JUMPDEST PUSH1 0x0 DUP4 GT PUSH3 0x67E JUMPI PUSH1 0x40 MLOAD PUSH32 0x8C379A000000000000000000000000000000000000000000000000000000000 DUP2 MSTORE PUSH1 0x4 ADD PUSH3 0x675 SWAP1 PUSH3 0x2175 JUMP JUMPDEST PUSH1 0x40 MLOAD DUP1 SWAP2 SUB SWAP1 REVERT JUMPDEST ADDRESS PUSH20 0xFFFFFFFFFFFFFFFFFFFFFFFFFFFFFFFFFFFFFFFF AND PUSH1 0x4 PUSH1 0x0 SWAP1 SLOAD SWAP1 PUSH2 0x100 EXP SWAP1 DIV PUSH20 0xFFFFFFFFFFFFFFFFFFFFFFFFFFFFFFFFFFFFFFFF AND PUSH20 0xFFFFFFFFFFFFFFFFFFFFFFFFFFFFFFFFFFFFFFFF AND PUSH4 0x8DA5CB5B PUSH1 0x40 MLOAD DUP2 PUSH4 0xFFFFFFFF AND PUSH1 0xE0 SHL DUP2 MSTORE PUSH1 0x4 ADD PUSH1 0x20 PUSH1 0x40 MLOAD DUP1 DUP4 SUB DUP2 DUP7 GAS STATICCALL ISZERO DUP1 ISZERO PUSH3 0x703 JUMPI RETURNDATASIZE PUSH1 0x0 DUP1 RETURNDATACOPY RETURNDATASIZE PUSH1 0x0 REVERT JUMPDEST POP POP POP POP PUSH1 0x40 MLOAD RETURNDATASIZE PUSH1 0x1F NOT PUSH1 0x1F DUP3 ADD AND DUP3 ADD DUP1 PUSH1 0x40 MSTORE POP DUP2 ADD SWAP1 PUSH3 0x729 SWAP2 SWAP1 PUSH3 0x21AE JUMP JUMPDEST PUSH20 0xFFFFFFFFFFFFFFFFFFFFFFFFFFFFFFFFFFFFFFFF AND EQ PUSH3 0x782 JUMPI PUSH1 0x40 MLOAD PUSH32 0x8C379A000000000000000000000000000000000000000000000000000000000 DUP2 MSTORE PUSH1 0x4 ADD PUSH3 0x779 SWAP1 PUSH3 0x2256 JUMP JUMPDEST PUSH1 0x40 MLOAD DUP1 SWAP2 SUB SWAP1 REVERT JUMPDEST PUSH1 0x0 PUSH1 0x4 PUSH1 0x0 SWAP1 SLOAD SWAP1 PUSH2 0x100 EXP SWAP1 DIV PUSH20 0xFFFFFFFFFFFFFFFFFFFFFFFFFFFFFFFFFFFFFFFF AND PUSH20 0xFFFFFFFFFFFFFFFFFFFFFFFFFFFFFFFFFFFFFFFF AND PUSH4 0xF2364122 ADDRESS DUP10 DUP10 DUP10 PUSH1 0x40 MLOAD DUP6 PUSH4 0xFFFFFFFF AND PUSH1 0xE0 SHL DUP2 MSTORE PUSH1 0x4 ADD PUSH3 0x7E7 SWAP5 SWAP4 SWAP3 SWAP2 SWAP1 PUSH3 0x2278 JUMP JUMPDEST PUSH1 0x20 PUSH1 0x40 MLOAD DUP1 DUP4 SUB DUP2 PUSH1 0x0 DUP8 GAS CALL ISZERO DUP1 ISZERO PUSH3 0x807 JUMPI RETURNDATASIZE PUSH1 0x0 DUP1 RETURNDATACOPY RETURNDATASIZE PUSH1 0x0 REVERT JUMPDEST POP POP POP POP PUSH1 0x40 MLOAD RETURNDATASIZE PUSH1 0x1F NOT PUSH1 0x1F DUP3 ADD AND DUP3 ADD DUP1 PUSH1 0x40 MSTORE POP DUP2 ADD SWAP1 PUSH3 0x82D SWAP2 SWAP1 PUSH3 0x22EA JUMP JUMPDEST SWAP1 POP PUSH1 0x40 MLOAD DUP1 PUSH1 0x60 ADD PUSH1 0x40 MSTORE DUP1 DUP9 DUP2 MSTORE PUSH1 0x20 ADD DUP8 DUP2 MSTORE PUSH1 0x20 ADD DUP7 DUP2 MSTORE POP PUSH1 0x0 DUP1 DUP4 DUP2 MSTORE PUSH1 0x20 ADD SWAP1 DUP2 MSTORE PUSH1 0x20 ADD PUSH1 0x0 KECCAK256 PUSH1 0x0 DUP3 ADD MLOAD DUP2 PUSH1 0x0 ADD SWAP1 DUP2 PUSH3 0x873 SWAP2 SWAP1 PUSH3 0x2552 JUMP JUMPDEST POP PUSH1 0x20 DUP3 ADD MLOAD DUP2 PUSH1 0x1 ADD SWAP1 DUP2 PUSH3 0x88B SWAP2 SWAP1 PUSH3 0x2552 JUMP JUMPDEST POP PUSH1 0x40 DUP3 ADD MLOAD DUP2 PUSH1 0x2 ADD SSTORE SWAP1 POP POP DUP1 PUSH1 0x1 DUP2 SWAP1 SSTORE POP PUSH1 0x0 DUP4 DUP4 PUSH1 0x4 PUSH1 0x0 SWAP1 SLOAD SWAP1 PUSH2 0x100 EXP SWAP1 DIV PUSH20 0xFFFFFFFFFFFFFFFFFFFFFFFFFFFFFFFFFFFFFFFF AND DUP5 ADDRESS DUP10 PUSH1 0x40 MLOAD PUSH3 0x8D8 SWAP1 PUSH3 0x193C JUMP JUMPDEST PUSH3 0x8E9 SWAP7 SWAP6 SWAP5 SWAP4 SWAP3 SWAP2 SWAP1 PUSH3 0x2639 JUMP JUMPDEST PUSH1 0x40 MLOAD DUP1 SWAP2 SUB SWAP1 PUSH1 0x0 CREATE DUP1 ISZERO DUP1 ISZERO PUSH3 0x906 JUMPI RETURNDATASIZE PUSH1 0x0 DUP1 RETURNDATACOPY RETURNDATASIZE PUSH1 0x0 REVERT JUMPDEST POP SWAP1 POP DUP1 PUSH1 0x3 PUSH1 0x0 DUP5 DUP2 MSTORE PUSH1 0x20 ADD SWAP1 DUP2 MSTORE PUSH1 0x20 ADD PUSH1 0x0 KECCAK256 PUSH1 0x0 PUSH2 0x100 EXP DUP2 SLOAD DUP2 PUSH20 0xFFFFFFFFFFFFFFFFFFFFFFFFFFFFFFFFFFFFFFFF MUL NOT AND SWAP1 DUP4 PUSH20 0xFFFFFFFFFFFFFFFFFFFFFFFFFFFFFFFFFFFFFFFF AND MUL OR SWAP1 SSTORE POP PUSH1 0x0 DUP2 PUSH20 0xFFFFFFFFFFFFFFFFFFFFFFFFFFFFFFFFFFFFFFFF AND PUSH4 0x313CE567 PUSH1 0x40 MLOAD DUP2 PUSH4 0xFFFFFFFF AND PUSH1 0xE0 SHL DUP2 MSTORE PUSH1 0x4 ADD PUSH1 0x20 PUSH1 0x40 MLOAD DUP1 DUP4 SUB DUP2 DUP7 GAS STATICCALL ISZERO DUP1 ISZERO PUSH3 0x9A9 JUMPI RETURNDATASIZE PUSH1 0x0 DUP1 RETURNDATACOPY RETURNDATASIZE PUSH1 0x0 REVERT JUMPDEST POP POP POP POP PUSH1 0x40 MLOAD RETURNDATASIZE PUSH1 0x1F NOT PUSH1 0x1F DUP3 ADD AND DUP3 ADD DUP1 PUSH1 0x40 MSTORE POP DUP2 ADD SWAP1 PUSH3 0x9CF SWAP2 SWAP1 PUSH3 0x26F2 JUMP JUMPDEST SWAP1 POP DUP1 PUSH1 0xFF AND PUSH1 0xA PUSH3 0x9E3 SWAP2 SWAP1 PUSH3 0x28A7 JUMP JUMPDEST DUP7 PUSH3 0x9F0 SWAP2 SWAP1 PUSH3 0x28F8 JUMP JUMPDEST PUSH1 0x2 PUSH1 0x0 DUP6 DUP2 MSTORE PUSH1 0x20 ADD SWAP1 DUP2 MSTORE PUSH1 0x20 ADD PUSH1 0x0 KECCAK256 DUP2 SWAP1 SSTORE POP CALLER PUSH1 0x6 PUSH1 0x0 DUP6 DUP2 MSTORE PUSH1 0x20 ADD SWAP1 DUP2 MSTORE PUSH1 0x20 ADD PUSH1 0x0 KECCAK256 PUSH1 0x0 PUSH2 0x100 EXP DUP2 SLOAD DUP2 PUSH20 0xFFFFFFFFFFFFFFFFFFFFFFFFFFFFFFFFFFFFFFFF MUL NOT AND SWAP1 DUP4 PUSH20 0xFFFFFFFFFFFFFFFFFFFFFFFFFFFFFFFFFFFFFFFF AND MUL OR SWAP1 SSTORE POP DUP3 PUSH32 0x616A80693CEEDA2F38244D6C54A248B71A7BB82FA74AD42EB092243033B5982 PUSH1 0x4 PUSH1 0x0 SWAP1 SLOAD SWAP1 PUSH2 0x100 EXP SWAP1 DIV PUSH20 0xFFFFFFFFFFFFFFFFFFFFFFFFFFFFFFFFFFFFFFFF AND DUP5 CALLER PUSH1 0x40 MLOAD PUSH3 0xAB1 SWAP4 SWAP3 SWAP2 SWAP1 PUSH3 0x2943 JUMP JUMPDEST PUSH1 0x40 MLOAD DUP1 SWAP2 SUB SWAP1 LOG2 POP POP POP POP POP POP POP POP POP JUMP JUMPDEST PUSH1 0x5 PUSH1 0x20 MSTORE DUP1 PUSH1 0x0 MSTORE PUSH1 0x40 PUSH1 0x0 KECCAK256 PUSH1 0x0 SWAP2 POP SWAP1 POP DUP1 PUSH1 0x0 ADD SLOAD SWAP1 DUP1 PUSH1 0x1 ADD PUSH1 0x0 SWAP1 SLOAD SWAP1 PUSH2 0x100 EXP SWAP1 DIV PUSH1 0xFF AND SWAP1 POP DUP3 JUMP JUMPDEST PUSH1 0x0 PUSH20 0xFFFFFFFFFFFFFFFFFFFFFFFFFFFFFFFFFFFFFFFF AND PUSH1 0x3 PUSH1 0x0 DUP5 DUP2 MSTORE PUSH1 0x20 ADD SWAP1 DUP2 MSTORE PUSH1 0x20 ADD PUSH1 0x0 KECCAK256 PUSH1 0x0 SWAP1 SLOAD SWAP1 PUSH2 0x100 EXP SWAP1 DIV PUSH20 0xFFFFFFFFFFFFFFFFFFFFFFFFFFFFFFFFFFFFFFFF AND PUSH20 0xFFFFFFFFFFFFFFFFFFFFFFFFFFFFFFFFFFFFFFFF AND SUB PUSH3 0xB9A JUMPI PUSH1 0x40 MLOAD PUSH32 0x8C379A000000000000000000000000000000000000000000000000000000000 DUP2 MSTORE PUSH1 0x4 ADD PUSH3 0xB91 SWAP1 PUSH3 0x29D0 JUMP JUMPDEST PUSH1 0x40 MLOAD DUP1 SWAP2 SUB SWAP1 REVERT JUMPDEST CALLER PUSH20 0xFFFFFFFFFFFFFFFFFFFFFFFFFFFFFFFFFFFFFFFF AND PUSH1 0x6 PUSH1 0x0 DUP5 DUP2 MSTORE PUSH1 0x20 ADD SWAP1 DUP2 MSTORE PUSH1 0x20 ADD PUSH1 0x0 KECCAK256 PUSH1 0x0 SWAP1 SLOAD SWAP1 PUSH2 0x100 EXP SWAP1 DIV PUSH20 0xFFFFFFFFFFFFFFFFFFFFFFFFFFFFFFFFFFFFFFFF AND PUSH20 0xFFFFFFFFFFFFFFFFFFFFFFFFFFFFFFFFFFFFFFFF AND EQ PUSH3 0xC3E JUMPI PUSH1 0x40 MLOAD PUSH32 0x8C379A000000000000000000000000000000000000000000000000000000000 DUP2 MSTORE PUSH1 0x4 ADD PUSH3 0xC35 SWAP1 PUSH3 0x2A68 JUMP JUMPDEST PUSH1 0x40 MLOAD DUP1 SWAP2 SUB SWAP1 REVERT JUMPDEST PUSH1 0x40 MLOAD DUP1 PUSH1 0x40 ADD PUSH1 0x40 MSTORE DUP1 DUP3 DUP2 MSTORE PUSH1 0x20 ADD PUSH1 0x1 ISZERO ISZERO DUP2 MSTORE POP PUSH1 0x5 PUSH1 0x0 DUP5 DUP2 MSTORE PUSH1 0x20 ADD SWAP1 DUP2 MSTORE PUSH1 0x20 ADD PUSH1 0x0 KECCAK256 PUSH1 0x0 DUP3 ADD MLOAD DUP2 PUSH1 0x0 ADD SSTORE PUSH1 0x20 DUP3 ADD MLOAD DUP2 PUSH1 0x1 ADD PUSH1 0x0 PUSH2 0x100 EXP DUP2 SLOAD DUP2 PUSH1 0xFF MUL NOT AND SWAP1 DUP4 ISZERO ISZERO MUL OR SWAP1 SSTORE POP SWAP1 POP POP DUP2 PUSH32 0x87D03DCFA12666A6F670D52387C414C3147775A8CC623D78088C0E23B4A90346 DUP3 PUSH1 0x40 MLOAD PUSH3 0xCC8 SWAP2 SWAP1 PUSH3 0x1CBC JUMP JUMPDEST PUSH1 0x40 MLOAD DUP1 SWAP2 SUB SWAP1 LOG2 POP POP JUMP JUMPDEST PUSH1 0x8 PUSH1 0x0 SWAP1 SLOAD SWAP1 PUSH2 0x100 EXP SWAP1 DIV PUSH20 0xFFFFFFFFFFFFFFFFFFFFFFFFFFFFFFFFFFFFFFFF AND DUP2 JUMP JUMPDEST PUSH1 0x9 PUSH1 0x0 SWAP1 SLOAD SWAP1 PUSH2 0x100 EXP SWAP1 DIV PUSH20 0xFFFFFFFFFFFFFFFFFFFFFFFFFFFFFFFFFFFFFFFF AND DUP2 JUMP JUMPDEST PUSH3 0xD2A PUSH3 0x17DE JUMP JUMPDEST PUSH1 0x0 DUP2 PUSH20 0xFFFFFFFFFFFFFFFFFFFFFFFFFFFFFFFFFFFFFFFF AND SELFBALANCE PUSH1 0x40 MLOAD PUSH3 0xD52 SWAP1 PUSH3 0x2ABF JUMP JUMPDEST PUSH1 0x0 PUSH1 0x40 MLOAD DUP1 DUP4 SUB DUP2 DUP6 DUP8 GAS CALL SWAP3 POP POP POP RETURNDATASIZE DUP1 PUSH1 0x0 DUP2 EQ PUSH3 0xD91 JUMPI PUSH1 0x40 MLOAD SWAP2 POP PUSH1 0x1F NOT PUSH1 0x3F RETURNDATASIZE ADD AND DUP3 ADD PUSH1 0x40 MSTORE RETURNDATASIZE DUP3 MSTORE RETURNDATASIZE PUSH1 0x0 PUSH1 0x20 DUP5 ADD RETURNDATACOPY PUSH3 0xD96 JUMP JUMPDEST PUSH1 0x60 SWAP2 POP JUMPDEST POP POP SWAP1 POP DUP1 PUSH3 0xDDD JUMPI PUSH1 0x40 MLOAD PUSH32 0x8C379A000000000000000000000000000000000000000000000000000000000 DUP2 MSTORE PUSH1 0x4 ADD PUSH3 0xDD4 SWAP1 PUSH3 0x2B26 JUMP JUMPDEST PUSH1 0x40 MLOAD DUP1 SWAP2 SUB SWAP1 REVERT JUMPDEST POP POP JUMP JUMPDEST PUSH3 0xDEB PUSH3 0x17DE JUMP JUMPDEST PUSH3 0xDF7 PUSH1 0x0 PUSH3 0x186E JUMP JUMPDEST JUMP JUMPDEST PUSH1 0x2 PUSH1 0x20 MSTORE DUP1 PUSH1 0x0 MSTORE PUSH1 0x40 PUSH1 0x0 KECCAK256 PUSH1 0x0 SWAP2 POP SWAP1 POP SLOAD DUP2 JUMP JUMPDEST PUSH1 0x0 PUSH1 0xC PUSH1 0x0 SWAP1 SLOAD SWAP1 PUSH2 0x100 EXP SWAP1 DIV PUSH20 0xFFFFFFFFFFFFFFFFFFFFFFFFFFFFFFFFFFFFFFFF AND SWAP1 POP SWAP1 JUMP JUMPDEST PUSH1 0xA SLOAD DUP2 JUMP JUMPDEST PUSH1 0x1 SLOAD DUP2 JUMP JUMPDEST PUSH1 0x6 PUSH1 0x20 MSTORE DUP1 PUSH1 0x0 MSTORE PUSH1 0x40 PUSH1 0x0 KECCAK256 PUSH1 0x0 SWAP2 POP SLOAD SWAP1 PUSH2 0x100 EXP SWAP1 DIV PUSH20 0xFFFFFFFFFFFFFFFFFFFFFFFFFFFFFFFFFFFFFFFF AND DUP2 JUMP JUMPDEST PUSH1 0x2 PUSH1 0xB SLOAD SUB PUSH3 0xEC2 JUMPI PUSH1 0x40 MLOAD PUSH32 0x8C379A000000000000000000000000000000000000000000000000000000000 DUP2 MSTORE PUSH1 0x4 ADD PUSH3 0xEB9 SWAP1 PUSH3 0x2B98 JUMP JUMPDEST PUSH1 0x40 MLOAD DUP1 SWAP2 SUB SWAP1 REVERT JUMPDEST PUSH1 0x2 PUSH1 0xB DUP2 SWAP1 SSTORE POP PUSH1 0x0 PUSH1 0x5 PUSH1 0x0 DUP5 DUP2 MSTORE PUSH1 0x20 ADD SWAP1 DUP2 MSTORE PUSH1 0x20 ADD PUSH1 0x0 KECCAK256 PUSH1 0x40 MLOAD DUP1 PUSH1 0x40 ADD PUSH1 0x40 MSTORE SWAP1 DUP2 PUSH1 0x0 DUP3 ADD SLOAD DUP2 MSTORE PUSH1 0x20 ADD PUSH1 0x1 DUP3 ADD PUSH1 0x0 SWAP1 SLOAD SWAP1 PUSH2 0x100 EXP SWAP1 DIV PUSH1 0xFF AND ISZERO ISZERO ISZERO ISZERO DUP2 MSTORE POP POP SWAP1 POP DUP1 PUSH1 0x20 ADD MLOAD PUSH3 0xF58 JUMPI PUSH1 0x40 MLOAD PUSH32 0x8C379A000000000000000000000000000000000000000000000000000000000 DUP2 MSTORE PUSH1 0x4 ADD PUSH3 0xF4F SWAP1 PUSH3 0x2C0A JUMP JUMPDEST PUSH1 0x40 MLOAD DUP1 SWAP2 SUB SWAP1 REVERT JUMPDEST PUSH1 0x0 DUP3 GT PUSH3 0xF9E JUMPI PUSH1 0x40 MLOAD PUSH32 0x8C379A000000000000000000000000000000000000000000000000000000000 DUP2 MSTORE PUSH1 0x4 ADD PUSH3 0xF95 SWAP1 PUSH3 0x2C7C JUMP JUMPDEST PUSH1 0x40 MLOAD DUP1 SWAP2 SUB SWAP1 REVERT JUMPDEST PUSH1 0x0 PUSH20 0xFFFFFFFFFFFFFFFFFFFFFFFFFFFFFFFFFFFFFFFF AND PUSH1 0x3 PUSH1 0x0 DUP6 DUP2 MSTORE PUSH1 0x20 ADD SWAP1 DUP2 MSTORE PUSH1 0x20 ADD PUSH1 0x0 KECCAK256 PUSH1 0x0 SWAP1 SLOAD SWAP1 PUSH2 0x100 EXP SWAP1 DIV PUSH20 0xFFFFFFFFFFFFFFFFFFFFFFFFFFFFFFFFFFFFFFFF AND PUSH20 0xFFFFFFFFFFFFFFFFFFFFFFFFFFFFFFFFFFFFFFFF AND SUB PUSH3 0x1043 JUMPI PUSH1 0x40 MLOAD PUSH32 0x8C379A000000000000000000000000000000000000000000000000000000000 DUP2 MSTORE PUSH1 0x4 ADD PUSH3 0x103A SWAP1 PUSH3 0x2CEE JUMP JUMPDEST PUSH1 0x40 MLOAD DUP1 SWAP2 SUB SWAP1 REVERT JUMPDEST PUSH1 0x0 PUSH1 0x3 PUSH1 0x0 DUP6 DUP2 MSTORE PUSH1 0x20 ADD SWAP1 DUP2 MSTORE PUSH1 0x20 ADD PUSH1 0x0 KECCAK256 PUSH1 0x0 SWAP1 SLOAD SWAP1 PUSH2 0x100 EXP SWAP1 DIV PUSH20 0xFFFFFFFFFFFFFFFFFFFFFFFFFFFFFFFFFFFFFFFF AND SWAP1 POP PUSH1 0x0 DUP2 PUSH20 0xFFFFFFFFFFFFFFFFFFFFFFFFFFFFFFFFFFFFFFFF AND PUSH4 0x313CE567 PUSH1 0x40 MLOAD DUP2 PUSH4 0xFFFFFFFF AND PUSH1 0xE0 SHL DUP2 MSTORE PUSH1 0x4 ADD PUSH1 0x20 PUSH1 0x40 MLOAD DUP1 DUP4 SUB DUP2 DUP7 GAS STATICCALL ISZERO DUP1 ISZERO PUSH3 0x10C9 JUMPI RETURNDATASIZE PUSH1 0x0 DUP1 RETURNDATACOPY RETURNDATASIZE PUSH1 0x0 REVERT JUMPDEST POP POP POP POP PUSH1 0x40 MLOAD RETURNDATASIZE PUSH1 0x1F NOT PUSH1 0x1F DUP3 ADD AND DUP3 ADD DUP1 PUSH1 0x40 MSTORE POP DUP2 ADD SWAP1 PUSH3 0x10EF SWAP2 SWAP1 PUSH3 0x26F2 JUMP JUMPDEST SWAP1 POP PUSH1 0x0 DUP2 PUSH1 0xFF AND PUSH1 0xA PUSH3 0x1105 SWAP2 SWAP1 PUSH3 0x28A7 JUMP JUMPDEST DUP6 PUSH3 0x1112 SWAP2 SWAP1 PUSH3 0x28F8 JUMP JUMPDEST SWAP1 POP PUSH1 0x0 DUP4 PUSH20 0xFFFFFFFFFFFFFFFFFFFFFFFFFFFFFFFFFFFFFFFF AND PUSH4 0x70A08231 ADDRESS PUSH1 0x40 MLOAD DUP3 PUSH4 0xFFFFFFFF AND PUSH1 0xE0 SHL DUP2 MSTORE PUSH1 0x4 ADD PUSH3 0x1151 SWAP2 SWAP1 PUSH3 0x1A10 JUMP JUMPDEST PUSH1 0x20 PUSH1 0x40 MLOAD DUP1 DUP4 SUB DUP2 DUP7 GAS STATICCALL ISZERO DUP1 ISZERO PUSH3 0x116F JUMPI RETURNDATASIZE PUSH1 0x0 DUP1 RETURNDATACOPY RETURNDATASIZE PUSH1 0x0 REVERT JUMPDEST POP POP POP POP PUSH1 0x40 MLOAD RETURNDATASIZE PUSH1 0x1F NOT PUSH1 0x1F DUP3 ADD AND DUP3 ADD DUP1 PUSH1 0x40 MSTORE POP DUP2 ADD SWAP1 PUSH3 0x1195 SWAP2 SWAP1 PUSH3 0x22EA JUMP JUMPDEST SWAP1 POP DUP2 DUP2 LT ISZERO PUSH3 0x11DD JUMPI PUSH1 0x40 MLOAD PUSH32 0x8C379A000000000000000000000000000000000000000000000000000000000 DUP2 MSTORE PUSH1 0x4 ADD PUSH3 0x11D4 SWAP1 PUSH3 0x2D60 JUMP JUMPDEST PUSH1 0x40 MLOAD DUP1 SWAP2 SUB SWAP1 REVERT JUMPDEST PUSH1 0x0 DUP6 PUSH1 0x0 ADD MLOAD DUP8 PUSH3 0x11F1 SWAP2 SWAP1 PUSH3 0x28F8 JUMP JUMPDEST SWAP1 POP DUP1 CALLVALUE LT ISZERO PUSH3 0x1239 JUMPI PUSH1 0x40 MLOAD PUSH32 0x8C379A000000000000000000000000000000000000000000000000000000000 DUP2 MSTORE PUSH1 0x4 ADD PUSH3 0x1230 SWAP1 PUSH3 0x2DD2 JUMP JUMPDEST PUSH1 0x40 MLOAD DUP1 SWAP2 SUB SWAP1 REVERT JUMPDEST PUSH1 0x0 DUP6 PUSH20 0xFFFFFFFFFFFFFFFFFFFFFFFFFFFFFFFFFFFFFFFF AND PUSH4 0xA9059CBB CALLER DUP7 PUSH1 0x40 MLOAD DUP4 PUSH4 0xFFFFFFFF AND PUSH1 0xE0 SHL DUP2 MSTORE PUSH1 0x4 ADD PUSH3 0x1278 SWAP3 SWAP2 SWAP1 PUSH3 0x2DF4 JUMP JUMPDEST PUSH1 0x20 PUSH1 0x40 MLOAD DUP1 DUP4 SUB DUP2 PUSH1 0x0 DUP8 GAS CALL ISZERO DUP1 ISZERO PUSH3 0x1298 JUMPI RETURNDATASIZE PUSH1 0x0 DUP1 RETURNDATACOPY RETURNDATASIZE PUSH1 0x0 REVERT JUMPDEST POP POP POP POP PUSH1 0x40 MLOAD RETURNDATASIZE PUSH1 0x1F NOT PUSH1 0x1F DUP3 ADD AND DUP3 ADD DUP1 PUSH1 0x40 MSTORE POP DUP2 ADD SWAP1 PUSH3 0x12BE SWAP2 SWAP1 PUSH3 0x2E52 JUMP JUMPDEST SWAP1 POP DUP1 PUSH3 0x1303 JUMPI PUSH1 0x40 MLOAD PUSH32 0x8C379A000000000000000000000000000000000000000000000000000000000 DUP2 MSTORE PUSH1 0x4 ADD PUSH3 0x12FA SWAP1 PUSH3 0x2ED4 JUMP JUMPDEST PUSH1 0x40 MLOAD DUP1 SWAP2 SUB SWAP1 REVERT JUMPDEST PUSH1 0x0 PUSH1 0x6 PUSH1 0x0 DUP12 DUP2 MSTORE PUSH1 0x20 ADD SWAP1 DUP2 MSTORE PUSH1 0x20 ADD PUSH1 0x0 KECCAK256 PUSH1 0x0 SWAP1 SLOAD SWAP1 PUSH2 0x100 EXP SWAP1 DIV PUSH20 0xFFFFFFFFFFFFFFFFFFFFFFFFFFFFFFFFFFFFFFFF AND SWAP1 POP PUSH1 0x0 DUP2 PUSH20 0xFFFFFFFFFFFFFFFFFFFFFFFFFFFFFFFFFFFFFFFF AND DUP5 PUSH1 0x40 MLOAD PUSH3 0x1363 SWAP1 PUSH3 0x2ABF JUMP JUMPDEST PUSH1 0x0 PUSH1 0x40 MLOAD DUP1 DUP4 SUB DUP2 DUP6 DUP8 GAS CALL SWAP3 POP POP POP RETURNDATASIZE DUP1 PUSH1 0x0 DUP2 EQ PUSH3 0x13A2 JUMPI PUSH1 0x40 MLOAD SWAP2 POP PUSH1 0x1F NOT PUSH1 0x3F RETURNDATASIZE ADD AND DUP3 ADD PUSH1 0x40 MSTORE RETURNDATASIZE DUP3 MSTORE RETURNDATASIZE PUSH1 0x0 PUSH1 0x20 DUP5 ADD RETURNDATACOPY PUSH3 0x13A7 JUMP JUMPDEST PUSH1 0x60 SWAP2 POP JUMPDEST POP POP SWAP1 POP DUP1 PUSH3 0x13EE JUMPI PUSH1 0x40 MLOAD PUSH32 0x8C379A000000000000000000000000000000000000000000000000000000000 DUP2 MSTORE PUSH1 0x4 ADD PUSH3 0x13E5 SWAP1 PUSH3 0x2F46 JUMP JUMPDEST PUSH1 0x40 MLOAD DUP1 SWAP2 SUB SWAP1 REVERT JUMPDEST DUP4 CALLVALUE GT ISZERO PUSH3 0x14B9 JUMPI PUSH1 0x0 CALLER PUSH20 0xFFFFFFFFFFFFFFFFFFFFFFFFFFFFFFFFFFFFFFFF AND DUP6 CALLVALUE PUSH3 0x141E SWAP2 SWAP1 PUSH3 0x2F68 JUMP JUMPDEST PUSH1 0x40 MLOAD PUSH3 0x142C SWAP1 PUSH3 0x2ABF JUMP JUMPDEST PUSH1 0x0 PUSH1 0x40 MLOAD DUP1 DUP4 SUB DUP2 DUP6 DUP8 GAS CALL SWAP3 POP POP POP RETURNDATASIZE DUP1 PUSH1 0x0 DUP2 EQ PUSH3 0x146B JUMPI PUSH1 0x40 MLOAD SWAP2 POP PUSH1 0x1F NOT PUSH1 0x3F RETURNDATASIZE ADD AND DUP3 ADD PUSH1 0x40 MSTORE RETURNDATASIZE DUP3 MSTORE RETURNDATASIZE PUSH1 0x0 PUSH1 0x20 DUP5 ADD RETURNDATACOPY PUSH3 0x1470 JUMP JUMPDEST PUSH1 0x60 SWAP2 POP JUMPDEST POP POP SWAP1 POP DUP1 PUSH3 0x14B7 JUMPI PUSH1 0x40 MLOAD PUSH32 0x8C379A000000000000000000000000000000000000000000000000000000000 DUP2 MSTORE PUSH1 0x4 ADD PUSH3 0x14AE SWAP1 PUSH3 0x2FF3 JUMP JUMPDEST PUSH1 0x40 MLOAD DUP1 SWAP2 SUB SWAP1 REVERT JUMPDEST POP JUMPDEST CALLER PUSH20 0xFFFFFFFFFFFFFFFFFFFFFFFFFFFFFFFFFFFFFFFF AND DUP12 PUSH32 0x4BAAFAC02D651B8886D3212CC69AFF0FB3C687080A4FE86B0674563AC1493E82 DUP13 DUP8 PUSH1 0x40 MLOAD PUSH3 0x1504 SWAP3 SWAP2 SWAP1 PUSH3 0x3015 JUMP JUMPDEST PUSH1 0x40 MLOAD DUP1 SWAP2 SUB SWAP1 LOG3 POP POP POP POP POP POP POP POP POP PUSH1 0x1 PUSH1 0xB DUP2 SWAP1 SSTORE POP POP POP JUMP JUMPDEST PUSH3 0x152B PUSH3 0x17DE JUMP JUMPDEST PUSH1 0x0 PUSH20 0xFFFFFFFFFFFFFFFFFFFFFFFFFFFFFFFFFFFFFFFF AND DUP2 PUSH20 0xFFFFFFFFFFFFFFFFFFFFFFFFFFFFFFFFFFFFFFFF AND SUB PUSH3 0x15A0 JUMPI PUSH1 0x0 PUSH1 0x40 MLOAD PUSH32 0x1E4FBDF700000000000000000000000000000000000000000000000000000000 DUP2 MSTORE PUSH1 0x4 ADD PUSH3 0x1597 SWAP2 SWAP1 PUSH3 0x1A10 JUMP JUMPDEST PUSH1 0x40 MLOAD DUP1 SWAP2 SUB SWAP1 REVERT JUMPDEST PUSH3 0x15AB DUP2 PUSH3 0x186E JUMP JUMPDEST POP JUMP JUMPDEST PUSH3 0x15B8 PUSH3 0x17DE JUMP JUMPDEST PUSH1 0x0 PUSH20 0xFFFFFFFFFFFFFFFFFFFFFFFFFFFFFFFFFFFFFFFF AND DUP2 PUSH20 0xFFFFFFFFFFFFFFFFFFFFFFFFFFFFFFFFFFFFFFFF AND SUB PUSH3 0x162A JUMPI PUSH1 0x40 MLOAD PUSH32 0x8C379A000000000000000000000000000000000000000000000000000000000 DUP2 MSTORE PUSH1 0x4 ADD PUSH3 0x1621 SWAP1 PUSH3 0x3092 JUMP JUMPDEST PUSH1 0x40 MLOAD DUP1 SWAP2 SUB SWAP1 REVERT JUMPDEST DUP1 PUSH1 0x4 PUSH1 0x0 PUSH2 0x100 EXP DUP2 SLOAD DUP2 PUSH20 0xFFFFFFFFFFFFFFFFFFFFFFFFFFFFFFFFFFFFFFFF MUL NOT AND SWAP1 DUP4 PUSH20 0xFFFFFFFFFFFFFFFFFFFFFFFFFFFFFFFFFFFFFFFF AND MUL OR SWAP1 SSTORE POP POP JUMP JUMPDEST PUSH1 0x4 PUSH1 0x0 SWAP1 SLOAD SWAP1 PUSH2 0x100 EXP SWAP1 DIV PUSH20 0xFFFFFFFFFFFFFFFFFFFFFFFFFFFFFFFFFFFFFFFF AND DUP2 JUMP JUMPDEST PUSH1 0x0 PUSH1 0x20 MSTORE DUP1 PUSH1 0x0 MSTORE PUSH1 0x40 PUSH1 0x0 KECCAK256 PUSH1 0x0 SWAP2 POP SWAP1 POP DUP1 PUSH1 0x0 ADD DUP1 SLOAD PUSH3 0x16B9 SWAP1 PUSH3 0x234B JUMP JUMPDEST DUP1 PUSH1 0x1F ADD PUSH1 0x20 DUP1 SWAP2 DIV MUL PUSH1 0x20 ADD PUSH1 0x40 MLOAD SWAP1 DUP2 ADD PUSH1 0x40 MSTORE DUP1 SWAP3 SWAP2 SWAP1 DUP2 DUP2 MSTORE PUSH1 0x20 ADD DUP3 DUP1 SLOAD PUSH3 0x16E7 SWAP1 PUSH3 0x234B JUMP JUMPDEST DUP1 ISZERO PUSH3 0x1738 JUMPI DUP1 PUSH1 0x1F LT PUSH3 0x170C JUMPI PUSH2 0x100 DUP1 DUP4 SLOAD DIV MUL DUP4 MSTORE SWAP2 PUSH1 0x20 ADD SWAP2 PUSH3 0x1738 JUMP JUMPDEST DUP3 ADD SWAP2 SWAP1 PUSH1 0x0 MSTORE PUSH1 0x20 PUSH1 0x0 KECCAK256 SWAP1 JUMPDEST DUP2 SLOAD DUP2 MSTORE SWAP1 PUSH1 0x1 ADD SWAP1 PUSH1 0x20 ADD DUP1 DUP4 GT PUSH3 0x171A JUMPI DUP3 SWAP1 SUB PUSH1 0x1F AND DUP3 ADD SWAP2 JUMPDEST POP POP POP POP POP SWAP1 DUP1 PUSH1 0x1 ADD DUP1 SLOAD PUSH3 0x174F SWAP1 PUSH3 0x234B JUMP JUMPDEST DUP1 PUSH1 0x1F ADD PUSH1 0x20 DUP1 SWAP2 DIV MUL PUSH1 0x20 ADD PUSH1 0x40 MLOAD SWAP1 DUP2 ADD PUSH1 0x40 MSTORE DUP1 SWAP3 SWAP2 SWAP1 DUP2 DUP2 MSTORE PUSH1 0x20 ADD DUP3 DUP1 SLOAD PUSH3 0x177D SWAP1 PUSH3 0x234B JUMP JUMPDEST DUP1 ISZERO PUSH3 0x17CE JUMPI DUP1 PUSH1 0x1F LT PUSH3 0x17A2 JUMPI PUSH2 0x100 DUP1 DUP4 SLOAD DIV MUL DUP4 MSTORE SWAP2 PUSH1 0x20 ADD SWAP2 PUSH3 0x17CE JUMP JUMPDEST DUP3 ADD SWAP2 SWAP1 PUSH1 0x0 MSTORE PUSH1 0x20 PUSH1 0x0 KECCAK256 SWAP1 JUMPDEST DUP2 SLOAD DUP2 MSTORE SWAP1 PUSH1 0x1 ADD SWAP1 PUSH1 0x20 ADD DUP1 DUP4 GT PUSH3 0x17B0 JUMPI DUP3 SWAP1 SUB PUSH1 0x1F AND DUP3 ADD SWAP2 JUMPDEST POP POP POP POP POP SWAP1 DUP1 PUSH1 0x2 ADD SLOAD SWAP1 POP DUP4 JUMP JUMPDEST PUSH3 0x17E8 PUSH3 0x1934 JUMP JUMPDEST PUSH20 0xFFFFFFFFFFFFFFFFFFFFFFFFFFFFFFFFFFFFFFFF AND PUSH3 0x1808 PUSH3 0xE11 JUMP JUMPDEST PUSH20 0xFFFFFFFFFFFFFFFFFFFFFFFFFFFFFFFFFFFFFFFF AND EQ PUSH3 0x186C JUMPI PUSH3 0x182E PUSH3 0x1934 JUMP JUMPDEST PUSH1 0x40 MLOAD PUSH32 0x118CDAA700000000000000000000000000000000000000000000000000000000 DUP2 MSTORE PUSH1 0x4 ADD PUSH3 0x1863 SWAP2 SWAP1 PUSH3 0x1A10 JUMP JUMPDEST PUSH1 0x40 MLOAD DUP1 SWAP2 SUB SWAP1 REVERT JUMPDEST JUMP JUMPDEST PUSH1 0x0 PUSH1 0xC PUSH1 0x0 SWAP1 SLOAD SWAP1 PUSH2 0x100 EXP SWAP1 DIV PUSH20 0xFFFFFFFFFFFFFFFFFFFFFFFFFFFFFFFFFFFFFFFF AND SWAP1 POP DUP2 PUSH1 0xC PUSH1 0x0 PUSH2 0x100 EXP DUP2 SLOAD DUP2 PUSH20 0xFFFFFFFFFFFFFFFFFFFFFFFFFFFFFFFFFFFFFFFF MUL NOT AND SWAP1 DUP4 PUSH20 0xFFFFFFFFFFFFFFFFFFFFFFFFFFFFFFFFFFFFFFFF AND MUL OR SWAP1 SSTORE POP DUP2 PUSH20 0xFFFFFFFFFFFFFFFFFFFFFFFFFFFFFFFFFFFFFFFF AND DUP2 PUSH20 0xFFFFFFFFFFFFFFFFFFFFFFFFFFFFFFFFFFFFFFFF AND PUSH32 0x8BE0079C531659141344CD1FD0A4F28419497F9722A3DAAFE3B4186F6B6457E0 PUSH1 0x40 MLOAD PUSH1 0x40 MLOAD DUP1 SWAP2 SUB SWAP1 LOG3 POP POP JUMP JUMPDEST PUSH1 0x0 CALLER SWAP1 POP SWAP1 JUMP JUMPDEST PUSH2 0x2600 DUP1 PUSH3 0x30B5 DUP4 CODECOPY ADD SWAP1 JUMP JUMPDEST PUSH1 0x0 PUSH1 0x40 MLOAD SWAP1 POP SWAP1 JUMP JUMPDEST PUSH1 0x0 DUP1 REVERT JUMPDEST PUSH1 0x0 DUP1 REVERT JUMPDEST PUSH1 0x0 DUP2 SWAP1 POP SWAP2 SWAP1 POP JUMP JUMPDEST PUSH3 0x1973 DUP2 PUSH3 0x195E JUMP JUMPDEST DUP2 EQ PUSH3 0x197F JUMPI PUSH1 0x0 DUP1 REVERT JUMPDEST POP JUMP JUMPDEST PUSH1 0x0 DUP2 CALLDATALOAD SWAP1 POP PUSH3 0x1993 DUP2 PUSH3 0x1968 JUMP JUMPDEST SWAP3 SWAP2 POP POP JUMP JUMPDEST PUSH1 0x0 PUSH1 0x20 DUP3 DUP5 SUB SLT ISZERO PUSH3 0x19B2 JUMPI PUSH3 0x19B1 PUSH3 0x1954 JUMP JUMPDEST JUMPDEST PUSH1 0x0 PUSH3 0x19C2 DUP5 DUP3 DUP6 ADD PUSH3 0x1982 JUMP JUMPDEST SWAP2 POP POP SWAP3 SWAP2 POP POP JUMP JUMPDEST PUSH1 0x0 PUSH20 0xFFFFFFFFFFFFFFFFFFFFFFFFFFFFFFFFFFFFFFFF DUP3 AND SWAP1 POP SWAP2 SWAP1 POP JUMP JUMPDEST PUSH1 0x0 PUSH3 0x19F8 DUP3 PUSH3 0x19CB JUMP JUMPDEST SWAP1 POP SWAP2 SWAP1 POP JUMP JUMPDEST PUSH3 0x1A0A DUP2 PUSH3 0x19EB JUMP JUMPDEST DUP3 MSTORE POP POP JUMP JUMPDEST PUSH1 0x0 PUSH1 0x20 DUP3 ADD SWAP1 POP PUSH3 0x1A27 PUSH1 0x0 DUP4 ADD DUP5 PUSH3 0x19FF JUMP JUMPDEST SWAP3 SWAP2 POP POP JUMP JUMPDEST PUSH3 0x1A38 DUP2 PUSH3 0x19EB JUMP JUMPDEST DUP2 EQ PUSH3 0x1A44 JUMPI PUSH1 0x0 DUP1 REVERT JUMPDEST POP JUMP JUMPDEST PUSH1 0x0 DUP2 CALLDATALOAD SWAP1 POP PUSH3 0x1A58 DUP2 PUSH3 0x1A2D JUMP JUMPDEST SWAP3 SWAP2 POP POP JUMP JUMPDEST PUSH1 0x0 DUP1 REVERT JUMPDEST PUSH1 0x0 DUP1 REVERT JUMPDEST PUSH1 0x0 PUSH1 0x1F NOT PUSH1 0x1F DUP4 ADD AND SWAP1 POP SWAP2 SWAP1 POP JUMP JUMPDEST PUSH32 0x4E487B7100000000000000000000000000000000000000000000000000000000 PUSH1 0x0 MSTORE PUSH1 0x41 PUSH1 0x4 MSTORE PUSH1 0x24 PUSH1 0x0 REVERT JUMPDEST PUSH3 0x1AB3 DUP3 PUSH3 0x1A68 JUMP JUMPDEST DUP2 ADD DUP2 DUP2 LT PUSH8 0xFFFFFFFFFFFFFFFF DUP3 GT OR ISZERO PUSH3 0x1AD5 JUMPI PUSH3 0x1AD4 PUSH3 0x1A79 JUMP JUMPDEST JUMPDEST DUP1 PUSH1 0x40 MSTORE POP POP POP JUMP JUMPDEST PUSH1 0x0 PUSH3 0x1AEA PUSH3 0x194A JUMP JUMPDEST SWAP1 POP PUSH3 0x1AF8 DUP3 DUP3 PUSH3 0x1AA8 JUMP JUMPDEST SWAP2 SWAP1 POP JUMP JUMPDEST PUSH1 0x0 PUSH8 0xFFFFFFFFFFFFFFFF DUP3 GT ISZERO PUSH3 0x1B1B JUMPI PUSH3 0x1B1A PUSH3 0x1A79 JUMP JUMPDEST JUMPDEST PUSH3 0x1B26 DUP3 PUSH3 0x1A68 JUMP JUMPDEST SWAP1 POP PUSH1 0x20 DUP2 ADD SWAP1 POP SWAP2 SWAP1 POP JUMP JUMPDEST DUP3 DUP2 DUP4 CALLDATACOPY PUSH1 0x0 DUP4 DUP4 ADD MSTORE POP POP POP JUMP JUMPDEST PUSH1 0x0 PUSH3 0x1B59 PUSH3 0x1B53 DUP5 PUSH3 0x1AFD JUMP JUMPDEST PUSH3 0x1ADE JUMP JUMPDEST SWAP1 POP DUP3 DUP2 MSTORE PUSH1 0x20 DUP2 ADD DUP5 DUP5 DUP5 ADD GT ISZERO PUSH3 0x1B78 JUMPI PUSH3 0x1B77 PUSH3 0x1A63 JUMP JUMPDEST JUMPDEST PUSH3 0x1B85 DUP5 DUP3 DUP6 PUSH3 0x1B33 JUMP JUMPDEST POP SWAP4 SWAP3 POP POP POP JUMP JUMPDEST PUSH1 0x0 DUP3 PUSH1 0x1F DUP4 ADD SLT PUSH3 0x1BA5 JUMPI PUSH3 0x1BA4 PUSH3 0x1A5E JUMP JUMPDEST JUMPDEST DUP2 CALLDATALOAD PUSH3 0x1BB7 DUP5 DUP3 PUSH1 0x20 DUP7 ADD PUSH3 0x1B42 JUMP JUMPDEST SWAP2 POP POP SWAP3 SWAP2 POP POP JUMP JUMPDEST PUSH1 0x0 DUP1 PUSH1 0x0 DUP1 PUSH1 0x80 DUP6 DUP8 SUB SLT ISZERO PUSH3 0x1BDD JUMPI PUSH3 0x1BDC PUSH3 0x1954 JUMP JUMPDEST JUMPDEST PUSH1 0x0 PUSH3 0x1BED DUP8 DUP3 DUP9 ADD PUSH3 0x1A47 JUMP JUMPDEST SWAP5 POP POP PUSH1 0x20 PUSH3 0x1C00 DUP8 DUP3 DUP9 ADD PUSH3 0x1A47 JUMP JUMPDEST SWAP4 POP POP PUSH1 0x40 PUSH3 0x1C13 DUP8 DUP3 DUP9 ADD PUSH3 0x1982 JUMP JUMPDEST SWAP3 POP POP PUSH1 0x60 DUP6 ADD CALLDATALOAD PUSH8 0xFFFFFFFFFFFFFFFF DUP2 GT ISZERO PUSH3 0x1C37 JUMPI PUSH3 0x1C36 PUSH3 0x1959 JUMP JUMPDEST JUMPDEST PUSH3 0x1C45 DUP8 DUP3 DUP9 ADD PUSH3 0x1B8D JUMP JUMPDEST SWAP2 POP POP SWAP3 SWAP6 SWAP2 SWAP5 POP SWAP3 POP JUMP JUMPDEST PUSH1 0x0 PUSH32 0xFFFFFFFF00000000000000000000000000000000000000000000000000000000 DUP3 AND SWAP1 POP SWAP2 SWAP1 POP JUMP JUMPDEST PUSH3 0x1C88 DUP2 PUSH3 0x1C51 JUMP JUMPDEST DUP3 MSTORE POP POP JUMP JUMPDEST PUSH1 0x0 PUSH1 0x20 DUP3 ADD SWAP1 POP PUSH3 0x1CA5 PUSH1 0x0 DUP4 ADD DUP5 PUSH3 0x1C7D JUMP JUMPDEST SWAP3 SWAP2 POP POP JUMP JUMPDEST PUSH3 0x1CB6 DUP2 PUSH3 0x195E JUMP JUMPDEST DUP3 MSTORE POP POP JUMP JUMPDEST PUSH1 0x0 PUSH1 0x20 DUP3 ADD SWAP1 POP PUSH3 0x1CD3 PUSH1 0x0 DUP4 ADD DUP5 PUSH3 0x1CAB JUMP JUMPDEST SWAP3 SWAP2 POP POP JUMP JUMPDEST PUSH1 0x0 PUSH8 0xFFFFFFFFFFFFFFFF DUP3 GT ISZERO PUSH3 0x1CF7 JUMPI PUSH3 0x1CF6 PUSH3 0x1A79 JUMP JUMPDEST JUMPDEST PUSH3 0x1D02 DUP3 PUSH3 0x1A68 JUMP JUMPDEST SWAP1 POP PUSH1 0x20 DUP2 ADD SWAP1 POP SWAP2 SWAP1 POP JUMP JUMPDEST PUSH1 0x0 PUSH3 0x1D26 PUSH3 0x1D20 DUP5 PUSH3 0x1CD9 JUMP JUMPDEST PUSH3 0x1ADE JUMP JUMPDEST SWAP1 POP DUP3 DUP2 MSTORE PUSH1 0x20 DUP2 ADD DUP5 DUP5 DUP5 ADD GT ISZERO PUSH3 0x1D45 JUMPI PUSH3 0x1D44 PUSH3 0x1A63 JUMP JUMPDEST JUMPDEST PUSH3 0x1D52 DUP5 DUP3 DUP6 PUSH3 0x1B33 JUMP JUMPDEST POP SWAP4 SWAP3 POP POP POP JUMP JUMPDEST PUSH1 0x0 DUP3 PUSH1 0x1F DUP4 ADD SLT PUSH3 0x1D72 JUMPI PUSH3 0x1D71 PUSH3 0x1A5E JUMP JUMPDEST JUMPDEST DUP2 CALLDATALOAD PUSH3 0x1D84 DUP5 DUP3 PUSH1 0x20 DUP7 ADD PUSH3 0x1D0F JUMP JUMPDEST SWAP2 POP POP SWAP3 SWAP2 POP POP JUMP JUMPDEST PUSH1 0x0 DUP1 PUSH1 0x0 DUP1 PUSH1 0x0 DUP1 PUSH1 0xC0 DUP8 DUP10 SUB SLT ISZERO PUSH3 0x1DAD JUMPI PUSH3 0x1DAC PUSH3 0x1954 JUMP JUMPDEST JUMPDEST PUSH1 0x0 DUP8 ADD CALLDATALOAD PUSH8 0xFFFFFFFFFFFFFFFF DUP2 GT ISZERO PUSH3 0x1DCE JUMPI PUSH3 0x1DCD PUSH3 0x1959 JUMP JUMPDEST JUMPDEST PUSH3 0x1DDC DUP10 DUP3 DUP11 ADD PUSH3 0x1D5A JUMP JUMPDEST SWAP7 POP POP PUSH1 0x20 DUP8 ADD CALLDATALOAD PUSH8 0xFFFFFFFFFFFFFFFF DUP2 GT ISZERO PUSH3 0x1E00 JUMPI PUSH3 0x1DFF PUSH3 0x1959 JUMP JUMPDEST JUMPDEST PUSH3 0x1E0E DUP10 DUP3 DUP11 ADD PUSH3 0x1D5A JUMP JUMPDEST SWAP6 POP POP PUSH1 0x40 PUSH3 0x1E21 DUP10 DUP3 DUP11 ADD PUSH3 0x1982 JUMP JUMPDEST SWAP5 POP POP PUSH1 0x60 PUSH3 0x1E34 DUP10 DUP3 DUP11 ADD PUSH3 0x1982 JUMP JUMPDEST SWAP4 POP POP PUSH1 0x80 DUP8 ADD CALLDATALOAD PUSH8 0xFFFFFFFFFFFFFFFF DUP2 GT ISZERO PUSH3 0x1E58 JUMPI PUSH3 0x1E57 PUSH3 0x1959 JUMP JUMPDEST JUMPDEST PUSH3 0x1E66 DUP10 DUP3 DUP11 ADD PUSH3 0x1D5A JUMP JUMPDEST SWAP3 POP POP PUSH1 0xA0 DUP8 ADD CALLDATALOAD PUSH8 0xFFFFFFFFFFFFFFFF DUP2 GT ISZERO PUSH3 0x1E8A JUMPI PUSH3 0x1E89 PUSH3 0x1959 JUMP JUMPDEST JUMPDEST PUSH3 0x1E98 DUP10 DUP3 DUP11 ADD PUSH3 0x1D5A JUMP JUMPDEST SWAP2 POP POP SWAP3 SWAP6 POP SWAP3 SWAP6 POP SWAP3 SWAP6 JUMP JUMPDEST PUSH1 0x0 DUP2 ISZERO ISZERO SWAP1 POP SWAP2 SWAP1 POP JUMP JUMPDEST PUSH3 0x1EBC DUP2 PUSH3 0x1EA5 JUMP JUMPDEST DUP3 MSTORE POP POP JUMP JUMPDEST PUSH1 0x0 PUSH1 0x40 DUP3 ADD SWAP1 POP PUSH3 0x1ED9 PUSH1 0x0 DUP4 ADD DUP6 PUSH3 0x1CAB JUMP JUMPDEST PUSH3 0x1EE8 PUSH1 0x20 DUP4 ADD DUP5 PUSH3 0x1EB1 JUMP JUMPDEST SWAP4 SWAP3 POP POP POP JUMP JUMPDEST PUSH1 0x0 DUP1 PUSH1 0x40 DUP4 DUP6 SUB SLT ISZERO PUSH3 0x1F09 JUMPI PUSH3 0x1F08 PUSH3 0x1954 JUMP JUMPDEST JUMPDEST PUSH1 0x0 PUSH3 0x1F19 DUP6 DUP3 DUP7 ADD PUSH3 0x1982 JUMP JUMPDEST SWAP3 POP POP PUSH1 0x20 PUSH3 0x1F2C DUP6 DUP3 DUP7 ADD PUSH3 0x1982 JUMP JUMPDEST SWAP2 POP POP SWAP3 POP SWAP3 SWAP1 POP JUMP JUMPDEST PUSH1 0x0 PUSH3 0x1F43 DUP3 PUSH3 0x19CB JUMP JUMPDEST SWAP1 POP SWAP2 SWAP1 POP JUMP JUMPDEST PUSH3 0x1F55 DUP2 PUSH3 0x1F36 JUMP JUMPDEST DUP2 EQ PUSH3 0x1F61 JUMPI PUSH1 0x0 DUP1 REVERT JUMPDEST POP JUMP JUMPDEST PUSH1 0x0 DUP2 CALLDATALOAD SWAP1 POP PUSH3 0x1F75 DUP2 PUSH3 0x1F4A JUMP JUMPDEST SWAP3 SWAP2 POP POP JUMP JUMPDEST PUSH1 0x0 PUSH1 0x20 DUP3 DUP5 SUB SLT ISZERO PUSH3 0x1F94 JUMPI PUSH3 0x1F93 PUSH3 0x1954 JUMP JUMPDEST JUMPDEST PUSH1 0x0 PUSH3 0x1FA4 DUP5 DUP3 DUP6 ADD PUSH3 0x1F64 JUMP JUMPDEST SWAP2 POP POP SWAP3 SWAP2 POP POP JUMP JUMPDEST PUSH1 0x0 PUSH1 0x20 DUP3 DUP5 SUB SLT ISZERO PUSH3 0x1FC6 JUMPI PUSH3 0x1FC5 PUSH3 0x1954 JUMP JUMPDEST JUMPDEST PUSH1 0x0 PUSH3 0x1FD6 DUP5 DUP3 DUP6 ADD PUSH3 0x1A47 JUMP JUMPDEST SWAP2 POP POP SWAP3 SWAP2 POP POP JUMP JUMPDEST PUSH1 0x0 DUP2 MLOAD SWAP1 POP SWAP2 SWAP1 POP JUMP JUMPDEST PUSH1 0x0 DUP3 DUP3 MSTORE PUSH1 0x20 DUP3 ADD SWAP1 POP SWAP3 SWAP2 POP POP JUMP JUMPDEST PUSH1 0x0 JUMPDEST DUP4 DUP2 LT ISZERO PUSH3 0x201B JUMPI DUP1 DUP3 ADD MLOAD DUP2 DUP5 ADD MSTORE PUSH1 0x20 DUP2 ADD SWAP1 POP PUSH3 0x1FFE JUMP JUMPDEST PUSH1 0x0 DUP5 DUP5 ADD MSTORE POP POP POP POP JUMP JUMPDEST PUSH1 0x0 PUSH3 0x2034 DUP3 PUSH3 0x1FDF JUMP JUMPDEST PUSH3 0x2040 DUP2 DUP6 PUSH3 0x1FEA JUMP JUMPDEST SWAP4 POP PUSH3 0x2052 DUP2 DUP6 PUSH1 0x20 DUP7 ADD PUSH3 0x1FFB JUMP JUMPDEST PUSH3 0x205D DUP2 PUSH3 0x1A68 JUMP JUMPDEST DUP5 ADD SWAP2 POP POP SWAP3 SWAP2 POP POP JUMP JUMPDEST PUSH1 0x0 PUSH1 0x60 DUP3 ADD SWAP1 POP DUP2 DUP2 SUB PUSH1 0x0 DUP4 ADD MSTORE PUSH3 0x2084 DUP2 DUP7 PUSH3 0x2027 JUMP JUMPDEST SWAP1 POP DUP2 DUP2 SUB PUSH1 0x20 DUP4 ADD MSTORE PUSH3 0x209A DUP2 DUP6 PUSH3 0x2027 JUMP JUMPDEST SWAP1 POP PUSH3 0x20AB PUSH1 0x40 DUP4 ADD DUP5 PUSH3 0x1CAB JUMP JUMPDEST SWAP5 SWAP4 POP POP POP POP JUMP JUMPDEST PUSH32 0x50726F706572747944656564206E6F7420736574000000000000000000000000 PUSH1 0x0 DUP3 ADD MSTORE POP JUMP JUMPDEST PUSH1 0x0 PUSH3 0x20EB PUSH1 0x14 DUP4 PUSH3 0x1FEA JUMP JUMPDEST SWAP2 POP PUSH3 0x20F8 DUP3 PUSH3 0x20B3 JUMP JUMPDEST PUSH1 0x20 DUP3 ADD SWAP1 POP SWAP2 SWAP1 POP JUMP JUMPDEST PUSH1 0x0 PUSH1 0x20 DUP3 ADD SWAP1 POP DUP2 DUP2 SUB PUSH1 0x0 DUP4 ADD MSTORE PUSH3 0x211E DUP2 PUSH3 0x20DC JUMP JUMPDEST SWAP1 POP SWAP2 SWAP1 POP JUMP JUMPDEST PUSH32 0x546F74616C206672616374696F6E73207A65726F000000000000000000000000 PUSH1 0x0 DUP3 ADD MSTORE POP JUMP JUMPDEST PUSH1 0x0 PUSH3 0x215D PUSH1 0x14 DUP4 PUSH3 0x1FEA JUMP JUMPDEST SWAP2 POP PUSH3 0x216A DUP3 PUSH3 0x2125 JUMP JUMPDEST PUSH1 0x20 DUP3 ADD SWAP1 POP SWAP2 SWAP1 POP JUMP JUMPDEST PUSH1 0x0 PUSH1 0x20 DUP3 ADD SWAP1 POP DUP2 DUP2 SUB PUSH1 0x0 DUP4 ADD MSTORE PUSH3 0x2190 DUP2 PUSH3 0x214E JUMP JUMPDEST SWAP1 POP SWAP2 SWAP1 POP JUMP JUMPDEST PUSH1 0x0 DUP2 MLOAD SWAP1 POP PUSH3 0x21A8 DUP2 PUSH3 0x1A2D JUMP JUMPDEST SWAP3 SWAP2 POP POP JUMP JUMPDEST PUSH1 0x0 PUSH1 0x20 DUP3 DUP5 SUB SLT ISZERO PUSH3 0x21C7 JUMPI PUSH3 0x21C6 PUSH3 0x1954 JUMP JUMPDEST JUMPDEST PUSH1 0x0 PUSH3 0x21D7 DUP5 DUP3 DUP6 ADD PUSH3 0x2197 JUMP JUMPDEST SWAP2 POP POP SWAP3 SWAP2 POP POP JUMP JUMPDEST PUSH32 0x4D616E61676572206E6F74206F776E6572206F66204465656420636F6E747261 PUSH1 0x0 DUP3 ADD MSTORE PUSH32 0x6374000000000000000000000000000000000000000000000000000000000000 PUSH1 0x20 DUP3 ADD MSTORE POP JUMP JUMPDEST PUSH1 0x0 PUSH3 0x223E PUSH1 0x22 DUP4 PUSH3 0x1FEA JUMP JUMPDEST SWAP2 POP PUSH3 0x224B DUP3 PUSH3 0x21E0 JUMP JUMPDEST PUSH1 0x40 DUP3 ADD SWAP1 POP SWAP2 SWAP1 POP JUMP JUMPDEST PUSH1 0x0 PUSH1 0x20 DUP3 ADD SWAP1 POP DUP2 DUP2 SUB PUSH1 0x0 DUP4 ADD MSTORE PUSH3 0x2271 DUP2 PUSH3 0x222F JUMP JUMPDEST SWAP1 POP SWAP2 SWAP1 POP JUMP JUMPDEST PUSH1 0x0 PUSH1 0x80 DUP3 ADD SWAP1 POP PUSH3 0x228F PUSH1 0x0 DUP4 ADD DUP8 PUSH3 0x19FF JUMP JUMPDEST DUP2 DUP2 SUB PUSH1 0x20 DUP4 ADD MSTORE PUSH3 0x22A3 DUP2 DUP7 PUSH3 0x2027 JUMP JUMPDEST SWAP1 POP DUP2 DUP2 SUB PUSH1 0x40 DUP4 ADD MSTORE PUSH3 0x22B9 DUP2 DUP6 PUSH3 0x2027 JUMP JUMPDEST SWAP1 POP PUSH3 0x22CA PUSH1 0x60 DUP4 ADD DUP5 PUSH3 0x1CAB JUMP JUMPDEST SWAP6 SWAP5 POP POP POP POP POP JUMP JUMPDEST PUSH1 0x0 DUP2 MLOAD SWAP1 POP PUSH3 0x22E4 DUP2 PUSH3 0x1968 JUMP JUMPDEST SWAP3 SWAP2 POP POP JUMP JUMPDEST PUSH1 0x0 PUSH1 0x20 DUP3 DUP5 SUB SLT ISZERO PUSH3 0x2303 JUMPI PUSH3 0x2302 PUSH3 0x1954 JUMP JUMPDEST JUMPDEST PUSH1 0x0 PUSH3 0x2313 DUP5 DUP3 DUP6 ADD PUSH3 0x22D3 JUMP JUMPDEST SWAP2 POP POP SWAP3 SWAP2 POP POP JUMP JUMPDEST PUSH32 0x4E487B7100000000000000000000000000000000000000000000000000000000 PUSH1 0x0 MSTORE PUSH1 0x22 PUSH1 0x4 MSTORE PUSH1 0x24 PUSH1 0x0 REVERT JUMPDEST PUSH1 0x0 PUSH1 0x2 DUP3 DIV SWAP1 POP PUSH1 0x1 DUP3 AND DUP1 PUSH3 0x2364 JUMPI PUSH1 0x7F DUP3 AND SWAP2 POP JUMPDEST PUSH1 0x20 DUP3 LT DUP2 SUB PUSH3 0x237A JUMPI PUSH3 0x2379 PUSH3 0x231C JUMP JUMPDEST JUMPDEST POP SWAP2 SWAP1 POP JUMP JUMPDEST PUSH1 0x0 DUP2 SWAP1 POP DUP2 PUSH1 0x0 MSTORE PUSH1 0x20 PUSH1 0x0 KECCAK256 SWAP1 POP SWAP2 SWAP1 POP JUMP JUMPDEST PUSH1 0x0 PUSH1 0x20 PUSH1 0x1F DUP4 ADD DIV SWAP1 POP SWAP2 SWAP1 POP JUMP JUMPDEST PUSH1 0x0 DUP3 DUP3 SHL SWAP1 POP SWAP3 SWAP2 POP POP JUMP JUMPDEST PUSH1 0x0 PUSH1 0x8 DUP4 MUL PUSH3 0x23E4 PUSH32 0xFFFFFFFFFFFFFFFFFFFFFFFFFFFFFFFFFFFFFFFFFFFFFFFFFFFFFFFFFFFFFFFF DUP3 PUSH3 0x23A5 JUMP JUMPDEST PUSH3 0x23F0 DUP7 DUP4 PUSH3 0x23A5 JUMP JUMPDEST SWAP6 POP DUP1 NOT DUP5 AND SWAP4 POP DUP1 DUP7 AND DUP5 OR SWAP3 POP POP POP SWAP4 SWAP3 POP POP POP JUMP JUMPDEST PUSH1 0x0 DUP2 SWAP1 POP SWAP2 SWAP1 POP JUMP JUMPDEST PUSH1 0x0 PUSH3 0x2433 PUSH3 0x242D PUSH3 0x2427 DUP5 PUSH3 0x195E JUMP JUMPDEST PUSH3 0x2408 JUMP JUMPDEST PUSH3 0x195E JUMP JUMPDEST SWAP1 POP SWAP2 SWAP1 POP JUMP JUMPDEST PUSH1 0x0 DUP2 SWAP1 POP SWAP2 SWAP1 POP JUMP JUMPDEST PUSH3 0x244F DUP4 PUSH3 0x2412 JUMP JUMPDEST PUSH3 0x2467 PUSH3 0x245E DUP3 PUSH3 0x243A JUMP JUMPDEST DUP5 DUP5 SLOAD PUSH3 0x23B2 JUMP JUMPDEST DUP3 SSTORE POP POP POP POP JUMP JUMPDEST PUSH1 0x0 SWAP1 JUMP JUMPDEST PUSH3 0x247E PUSH3 0x246F JUMP JUMPDEST PUSH3 0x248B DUP2 DUP5 DUP5 PUSH3 0x2444 JUMP JUMPDEST POP POP POP JUMP JUMPDEST JUMPDEST DUP2 DUP2 LT ISZERO PUSH3 0x24B3 JUMPI PUSH3 0x24A7 PUSH1 0x0 DUP3 PUSH3 0x2474 JUMP JUMPDEST PUSH1 0x1 DUP2 ADD SWAP1 POP PUSH3 0x2491 JUMP JUMPDEST POP POP JUMP JUMPDEST PUSH1 0x1F DUP3 GT ISZERO PUSH3 0x2502 JUMPI PUSH3 0x24CC DUP2 PUSH3 0x2380 JUMP JUMPDEST PUSH3 0x24D7 DUP5 PUSH3 0x2395 JUMP JUMPDEST DUP2 ADD PUSH1 0x20 DUP6 LT ISZERO PUSH3 0x24E7 JUMPI DUP2 SWAP1 POP JUMPDEST PUSH3 0x24FF PUSH3 0x24F6 DUP6 PUSH3 0x2395 JUMP JUMPDEST DUP4 ADD DUP3 PUSH3 0x2490 JUMP JUMPDEST POP POP JUMPDEST POP POP POP JUMP JUMPDEST PUSH1 0x0 DUP3 DUP3 SHR SWAP1 POP SWAP3 SWAP2 POP POP JUMP JUMPDEST PUSH1 0x0 PUSH3 0x2527 PUSH1 0x0 NOT DUP5 PUSH1 0x8 MUL PUSH3 0x2507 JUMP JUMPDEST NOT DUP1 DUP4 AND SWAP2 POP POP SWAP3 SWAP2 POP POP JUMP JUMPDEST PUSH1 0x0 PUSH3 0x2542 DUP4 DUP4 PUSH3 0x2514 JUMP JUMPDEST SWAP2 POP DUP3 PUSH1 0x2 MUL DUP3 OR SWAP1 POP SWAP3 SWAP2 POP POP JUMP JUMPDEST PUSH3 0x255D DUP3 PUSH3 0x1FDF JUMP JUMPDEST PUSH8 0xFFFFFFFFFFFFFFFF DUP2 GT ISZERO PUSH3 0x2579 JUMPI PUSH3 0x2578 PUSH3 0x1A79 JUMP JUMPDEST JUMPDEST PUSH3 0x2585 DUP3 SLOAD PUSH3 0x234B JUMP JUMPDEST PUSH3 0x2592 DUP3 DUP3 DUP6 PUSH3 0x24B7 JUMP JUMPDEST PUSH1 0x0 PUSH1 0x20 SWAP1 POP PUSH1 0x1F DUP4 GT PUSH1 0x1 DUP2 EQ PUSH3 0x25CA JUMPI PUSH1 0x0 DUP5 ISZERO PUSH3 0x25B5 JUMPI DUP3 DUP8 ADD MLOAD SWAP1 POP JUMPDEST PUSH3 0x25C1 DUP6 DUP3 PUSH3 0x2534 JUMP JUMPDEST DUP7 SSTORE POP PUSH3 0x2631 JUMP JUMPDEST PUSH1 0x1F NOT DUP5 AND PUSH3 0x25DA DUP7 PUSH3 0x2380 JUMP JUMPDEST PUSH1 0x0 JUMPDEST DUP3 DUP2 LT ISZERO PUSH3 0x2604 JUMPI DUP5 DUP10 ADD MLOAD DUP3 SSTORE PUSH1 0x1 DUP3 ADD SWAP2 POP PUSH1 0x20 DUP6 ADD SWAP5 POP PUSH1 0x20 DUP2 ADD SWAP1 POP PUSH3 0x25DD JUMP JUMPDEST DUP7 DUP4 LT ISZERO PUSH3 0x2624 JUMPI DUP5 DUP10 ADD MLOAD PUSH3 0x2620 PUSH1 0x1F DUP10 AND DUP3 PUSH3 0x2514 JUMP JUMPDEST DUP4 SSTORE POP JUMPDEST PUSH1 0x1 PUSH1 0x2 DUP9 MUL ADD DUP9 SSTORE POP POP POP JUMPDEST POP POP POP POP POP POP JUMP JUMPDEST PUSH1 0x0 PUSH1 0xC0 DUP3 ADD SWAP1 POP DUP2 DUP2 SUB PUSH1 0x0 DUP4 ADD MSTORE PUSH3 0x2655 DUP2 DUP10 PUSH3 0x2027 JUMP JUMPDEST SWAP1 POP DUP2 DUP2 SUB PUSH1 0x20 DUP4 ADD MSTORE PUSH3 0x266B DUP2 DUP9 PUSH3 0x2027 JUMP JUMPDEST SWAP1 POP PUSH3 0x267C PUSH1 0x40 DUP4 ADD DUP8 PUSH3 0x19FF JUMP JUMPDEST PUSH3 0x268B PUSH1 0x60 DUP4 ADD DUP7 PUSH3 0x1CAB JUMP JUMPDEST PUSH3 0x269A PUSH1 0x80 DUP4 ADD DUP6 PUSH3 0x19FF JUMP JUMPDEST PUSH3 0x26A9 PUSH1 0xA0 DUP4 ADD DUP5 PUSH3 0x1CAB JUMP JUMPDEST SWAP8 SWAP7 POP POP POP POP POP POP POP JUMP JUMPDEST PUSH1 0x0 PUSH1 0xFF DUP3 AND SWAP1 POP SWAP2 SWAP1 POP JUMP JUMPDEST PUSH3 0x26CC DUP2 PUSH3 0x26B4 JUMP JUMPDEST DUP2 EQ PUSH3 0x26D8 JUMPI PUSH1 0x0 DUP1 REVERT JUMPDEST POP JUMP JUMPDEST PUSH1 0x0 DUP2 MLOAD SWAP1 POP PUSH3 0x26EC DUP2 PUSH3 0x26C1 JUMP JUMPDEST SWAP3 SWAP2 POP POP JUMP JUMPDEST PUSH1 0x0 PUSH1 0x20 DUP3 DUP5 SUB SLT ISZERO PUSH3 0x270B JUMPI PUSH3 0x270A PUSH3 0x1954 JUMP JUMPDEST JUMPDEST PUSH1 0x0 PUSH3 0x271B DUP5 DUP3 DUP6 ADD PUSH3 0x26DB JUMP JUMPDEST SWAP2 POP POP SWAP3 SWAP2 POP POP JUMP JUMPDEST PUSH32 0x4E487B7100000000000000000000000000000000000000000000000000000000 PUSH1 0x0 MSTORE PUSH1 0x11 PUSH1 0x4 MSTORE PUSH1 0x24 PUSH1 0x0 REVERT JUMPDEST PUSH1 0x0 DUP2 PUSH1 0x1 SHR SWAP1 POP SWAP2 SWAP1 POP JUMP JUMPDEST PUSH1 0x0 DUP1 DUP3 SWAP2 POP DUP4 SWAP1 POP JUMPDEST PUSH1 0x1 DUP6 GT ISZERO PUSH3 0x27B2 JUMPI DUP1 DUP7 DIV DUP2 GT ISZERO PUSH3 0x278A JUMPI PUSH3 0x2789 PUSH3 0x2724 JUMP JUMPDEST JUMPDEST PUSH1 0x1 DUP6 AND ISZERO PUSH3 0x279A JUMPI DUP1 DUP3 MUL SWAP2 POP JUMPDEST DUP1 DUP2 MUL SWAP1 POP PUSH3 0x27AA DUP6 PUSH3 0x2753 JUMP JUMPDEST SWAP5 POP PUSH3 0x276A JUMP JUMPDEST SWAP5 POP SWAP5 SWAP3 POP POP POP JUMP JUMPDEST PUSH1 0x0 DUP3 PUSH3 0x27CD JUMPI PUSH1 0x1 SWAP1 POP PUSH3 0x28A0 JUMP JUMPDEST DUP2 PUSH3 0x27DD JUMPI PUSH1 0x0 SWAP1 POP PUSH3 0x28A0 JUMP JUMPDEST DUP2 PUSH1 0x1 DUP2 EQ PUSH3 0x27F6 JUMPI PUSH1 0x2 DUP2 EQ PUSH3 0x2801 JUMPI PUSH3 0x2837 JUMP JUMPDEST PUSH1 0x1 SWAP2 POP POP PUSH3 0x28A0 JUMP JUMPDEST PUSH1 0xFF DUP5 GT ISZERO PUSH3 0x2816 JUMPI PUSH3 0x2815 PUSH3 0x2724 JUMP JUMPDEST JUMPDEST DUP4 PUSH1 0x2 EXP SWAP2 POP DUP5 DUP3 GT ISZERO PUSH3 0x2830 JUMPI PUSH3 0x282F PUSH3 0x2724 JUMP JUMPDEST JUMPDEST POP PUSH3 0x28A0 JUMP JUMPDEST POP PUSH1 0x20 DUP4 LT PUSH2 0x133 DUP4 LT AND PUSH1 0x4E DUP5 LT PUSH1 0xB DUP5 LT AND OR ISZERO PUSH3 0x2871 JUMPI DUP3 DUP3 EXP SWAP1 POP DUP4 DUP2 GT ISZERO PUSH3 0x286B JUMPI PUSH3 0x286A PUSH3 0x2724 JUMP JUMPDEST JUMPDEST PUSH3 0x28A0 JUMP JUMPDEST PUSH3 0x2880 DUP5 DUP5 DUP5 PUSH1 0x1 PUSH3 0x2760 JUMP JUMPDEST SWAP3 POP SWAP1 POP DUP2 DUP5 DIV DUP2 GT ISZERO PUSH3 0x289A JUMPI PUSH3 0x2899 PUSH3 0x2724 JUMP JUMPDEST JUMPDEST DUP2 DUP2 MUL SWAP1 POP JUMPDEST SWAP4 SWAP3 POP POP POP JUMP JUMPDEST PUSH1 0x0 PUSH3 0x28B4 DUP3 PUSH3 0x195E JUMP JUMPDEST SWAP2 POP PUSH3 0x28C1 DUP4 PUSH3 0x195E JUMP JUMPDEST SWAP3 POP PUSH3 0x28F0 PUSH32 0xFFFFFFFFFFFFFFFFFFFFFFFFFFFFFFFFFFFFFFFFFFFFFFFFFFFFFFFFFFFFFFFF DUP5 DUP5 PUSH3 0x27BB JUMP JUMPDEST SWAP1 POP SWAP3 SWAP2 POP POP JUMP JUMPDEST PUSH1 0x0 PUSH3 0x2905 DUP3 PUSH3 0x195E JUMP JUMPDEST SWAP2 POP PUSH3 0x2912 DUP4 PUSH3 0x195E JUMP JUMPDEST SWAP3 POP DUP3 DUP3 MUL PUSH3 0x2922 DUP2 PUSH3 0x195E JUMP JUMPDEST SWAP2 POP DUP3 DUP3 DIV DUP5 EQ DUP4 ISZERO OR PUSH3 0x293C JUMPI PUSH3 0x293B PUSH3 0x2724 JUMP JUMPDEST JUMPDEST POP SWAP3 SWAP2 POP POP JUMP JUMPDEST PUSH1 0x0 PUSH1 0x60 DUP3 ADD SWAP1 POP PUSH3 0x295A PUSH1 0x0 DUP4 ADD DUP7 PUSH3 0x19FF JUMP JUMPDEST PUSH3 0x2969 PUSH1 0x20 DUP4 ADD DUP6 PUSH3 0x19FF JUMP JUMPDEST PUSH3 0x2978 PUSH1 0x40 DUP4 ADD DUP5 PUSH3 0x19FF JUMP JUMPDEST SWAP5 SWAP4 POP POP POP POP JUMP JUMPDEST PUSH32 0x50726F7065727479206E6F74206672616374696F6E616C697A65640000000000 PUSH1 0x0 DUP3 ADD MSTORE POP JUMP JUMPDEST PUSH1 0x0 PUSH3 0x29B8 PUSH1 0x1B DUP4 PUSH3 0x1FEA JUMP JUMPDEST SWAP2 POP PUSH3 0x29C5 DUP3 PUSH3 0x2980 JUMP JUMPDEST PUSH1 0x20 DUP3 ADD SWAP1 POP SWAP2 SWAP1 POP JUMP JUMPDEST PUSH1 0x0 PUSH1 0x20 DUP3 ADD SWAP1 POP DUP2 DUP2 SUB PUSH1 0x0 DUP4 ADD MSTORE PUSH3 0x29EB DUP2 PUSH3 0x29A9 JUMP JUMPDEST SWAP1 POP SWAP2 SWAP1 POP JUMP JUMPDEST PUSH32 0x4F6E6C792070726F7065727479206F776E65722063616E207374617274207361 PUSH1 0x0 DUP3 ADD MSTORE PUSH32 0x6C65000000000000000000000000000000000000000000000000000000000000 PUSH1 0x20 DUP3 ADD MSTORE POP JUMP JUMPDEST PUSH1 0x0 PUSH3 0x2A50 PUSH1 0x22 DUP4 PUSH3 0x1FEA JUMP JUMPDEST SWAP2 POP PUSH3 0x2A5D DUP3 PUSH3 0x29F2 JUMP JUMPDEST PUSH1 0x40 DUP3 ADD SWAP1 POP SWAP2 SWAP1 POP JUMP JUMPDEST PUSH1 0x0 PUSH1 0x20 DUP3 ADD SWAP1 POP DUP2 DUP2 SUB PUSH1 0x0 DUP4 ADD MSTORE PUSH3 0x2A83 DUP2 PUSH3 0x2A41 JUMP JUMPDEST SWAP1 POP SWAP2 SWAP1 POP JUMP JUMPDEST PUSH1 0x0 DUP2 SWAP1 POP SWAP3 SWAP2 POP POP JUMP JUMPDEST POP JUMP JUMPDEST PUSH1 0x0 PUSH3 0x2AA7 PUSH1 0x0 DUP4 PUSH3 0x2A8A JUMP JUMPDEST SWAP2 POP PUSH3 0x2AB4 DUP3 PUSH3 0x2A95 JUMP JUMPDEST PUSH1 0x0 DUP3 ADD SWAP1 POP SWAP2 SWAP1 POP JUMP JUMPDEST PUSH1 0x0 PUSH3 0x2ACC DUP3 PUSH3 0x2A98 JUMP JUMPDEST SWAP2 POP DUP2 SWAP1 POP SWAP2 SWAP1 POP JUMP JUMPDEST PUSH32 0x455448207472616E73666572206661696C656400000000000000000000000000 PUSH1 0x0 DUP3 ADD MSTORE POP JUMP JUMPDEST PUSH1 0x0 PUSH3 0x2B0E PUSH1 0x13 DUP4 PUSH3 0x1FEA JUMP JUMPDEST SWAP2 POP PUSH3 0x2B1B DUP3 PUSH3 0x2AD6 JUMP JUMPDEST PUSH1 0x20 DUP3 ADD SWAP1 POP SWAP2 SWAP1 POP JUMP JUMPDEST PUSH1 0x0 PUSH1 0x20 DUP3 ADD SWAP1 POP DUP2 DUP2 SUB PUSH1 0x0 DUP4 ADD MSTORE PUSH3 0x2B41 DUP2 PUSH3 0x2AFF JUMP JUMPDEST SWAP1 POP SWAP2 SWAP1 POP JUMP JUMPDEST PUSH32 0x5265656E7472616E637947756172643A207265656E7472616E742063616C6C00 PUSH1 0x0 DUP3 ADD MSTORE POP JUMP JUMPDEST PUSH1 0x0 PUSH3 0x2B80 PUSH1 0x1F DUP4 PUSH3 0x1FEA JUMP JUMPDEST SWAP2 POP PUSH3 0x2B8D DUP3 PUSH3 0x2B48 JUMP JUMPDEST PUSH1 0x20 DUP3 ADD SWAP1 POP SWAP2 SWAP1 POP JUMP JUMPDEST PUSH1 0x0 PUSH1 0x20 DUP3 ADD SWAP1 POP DUP2 DUP2 SUB PUSH1 0x0 DUP4 ADD MSTORE PUSH3 0x2BB3 DUP2 PUSH3 0x2B71 JUMP JUMPDEST SWAP1 POP SWAP2 SWAP1 POP JUMP JUMPDEST PUSH32 0x53616C65206E6F74206163746976650000000000000000000000000000000000 PUSH1 0x0 DUP3 ADD MSTORE POP JUMP JUMPDEST PUSH1 0x0 PUSH3 0x2BF2 PUSH1 0xF DUP4 PUSH3 0x1FEA JUMP JUMPDEST SWAP2 POP PUSH3 0x2BFF DUP3 PUSH3 0x2BBA JUMP JUMPDEST PUSH1 0x20 DUP3 ADD SWAP1 POP SWAP2 SWAP1 POP JUMP JUMPDEST PUSH1 0x0 PUSH1 0x20 DUP3 ADD SWAP1 POP DUP2 DUP2 SUB PUSH1 0x0 DUP4 ADD MSTORE PUSH3 0x2C25 DUP2 PUSH3 0x2BE3 JUMP JUMPDEST SWAP1 POP SWAP2 SWAP1 POP JUMP JUMPDEST PUSH32 0x4D75737420627579203E20300000000000000000000000000000000000000000 PUSH1 0x0 DUP3 ADD MSTORE POP JUMP JUMPDEST PUSH1 0x0 PUSH3 0x2C64 PUSH1 0xC DUP4 PUSH3 0x1FEA JUMP JUMPDEST SWAP2 POP PUSH3 0x2C71 DUP3 PUSH3 0x2C2C JUMP JUMPDEST PUSH1 0x20 DUP3 ADD SWAP1 POP SWAP2 SWAP1 POP JUMP JUMPDEST PUSH1 0x0 PUSH1 0x20 DUP3 ADD SWAP1 POP DUP2 DUP2 SUB PUSH1 0x0 DUP4 ADD MSTORE PUSH3 0x2C97 DUP2 PUSH3 0x2C55 JUMP JUMPDEST SWAP1 POP SWAP2 SWAP1 POP JUMP JUMPDEST PUSH32 0x4672616374696F6E73206E6F7420666F756E6400000000000000000000000000 PUSH1 0x0 DUP3 ADD MSTORE POP JUMP JUMPDEST PUSH1 0x0 PUSH3 0x2CD6 PUSH1 0x13 DUP4 PUSH3 0x1FEA JUMP JUMPDEST SWAP2 POP PUSH3 0x2CE3 DUP3 PUSH3 0x2C9E JUMP JUMPDEST PUSH1 0x20 DUP3 ADD SWAP1 POP SWAP2 SWAP1 POP JUMP JUMPDEST PUSH1 0x0 PUSH1 0x20 DUP3 ADD SWAP1 POP DUP2 DUP2 SUB PUSH1 0x0 DUP4 ADD MSTORE PUSH3 0x2D09 DUP2 PUSH3 0x2CC7 JUMP JUMPDEST SWAP1 POP SWAP2 SWAP1 POP JUMP JUMPDEST PUSH32 0x4E6F7420656E6F756768206672616374696F6E7320617661696C61626C650000 PUSH1 0x0 DUP3 ADD MSTORE POP JUMP JUMPDEST PUSH1 0x0 PUSH3 0x2D48 PUSH1 0x1E DUP4 PUSH3 0x1FEA JUMP JUMPDEST SWAP2 POP PUSH3 0x2D55 DUP3 PUSH3 0x2D10 JUMP JUMPDEST PUSH1 0x20 DUP3 ADD SWAP1 POP SWAP2 SWAP1 POP JUMP JUMPDEST PUSH1 0x0 PUSH1 0x20 DUP3 ADD SWAP1 POP DUP2 DUP2 SUB PUSH1 0x0 DUP4 ADD MSTORE PUSH3 0x2D7B DUP2 PUSH3 0x2D39 JUMP JUMPDEST SWAP1 POP SWAP2 SWAP1 POP JUMP JUMPDEST PUSH32 0x496E73756666696369656E74204554482073656E740000000000000000000000 PUSH1 0x0 DUP3 ADD MSTORE POP JUMP JUMPDEST PUSH1 0x0 PUSH3 0x2DBA PUSH1 0x15 DUP4 PUSH3 0x1FEA JUMP JUMPDEST SWAP2 POP PUSH3 0x2DC7 DUP3 PUSH3 0x2D82 JUMP JUMPDEST PUSH1 0x20 DUP3 ADD SWAP1 POP SWAP2 SWAP1 POP JUMP JUMPDEST PUSH1 0x0 PUSH1 0x20 DUP3 ADD SWAP1 POP DUP2 DUP2 SUB PUSH1 0x0 DUP4 ADD MSTORE PUSH3 0x2DED DUP2 PUSH3 0x2DAB JUMP JUMPDEST SWAP1 POP SWAP2 SWAP1 POP JUMP JUMPDEST PUSH1 0x0 PUSH1 0x40 DUP3 ADD SWAP1 POP PUSH3 0x2E0B PUSH1 0x0 DUP4 ADD DUP6 PUSH3 0x19FF JUMP JUMPDEST PUSH3 0x2E1A PUSH1 0x20 DUP4 ADD DUP5 PUSH3 0x1CAB JUMP JUMPDEST SWAP4 SWAP3 POP POP POP JUMP JUMPDEST PUSH3 0x2E2C DUP2 PUSH3 0x1EA5 JUMP JUMPDEST DUP2 EQ PUSH3 0x2E38 JUMPI PUSH1 0x0 DUP1 REVERT JUMPDEST POP JUMP JUMPDEST PUSH1 0x0 DUP2 MLOAD SWAP1 POP PUSH3 0x2E4C DUP2 PUSH3 0x2E21 JUMP JUMPDEST SWAP3 SWAP2 POP POP JUMP JUMPDEST PUSH1 0x0 PUSH1 0x20 DUP3 DUP5 SUB SLT ISZERO PUSH3 0x2E6B JUMPI PUSH3 0x2E6A PUSH3 0x1954 JUMP JUMPDEST JUMPDEST PUSH1 0x0 PUSH3 0x2E7B DUP5 DUP3 DUP6 ADD PUSH3 0x2E3B JUMP JUMPDEST SWAP2 POP POP SWAP3 SWAP2 POP POP JUMP JUMPDEST PUSH32 0x4552433230207472616E73666572206661696C65640000000000000000000000 PUSH1 0x0 DUP3 ADD MSTORE POP JUMP JUMPDEST PUSH1 0x0 PUSH3 0x2EBC PUSH1 0x15 DUP4 PUSH3 0x1FEA JUMP JUMPDEST SWAP2 POP PUSH3 0x2EC9 DUP3 PUSH3 0x2E84 JUMP JUMPDEST PUSH1 0x20 DUP3 ADD SWAP1 POP SWAP2 SWAP1 POP JUMP JUMPDEST PUSH1 0x0 PUSH1 0x20 DUP3 ADD SWAP1 POP DUP2 DUP2 SUB PUSH1 0x0 DUP4 ADD MSTORE PUSH3 0x2EEF DUP2 PUSH3 0x2EAD JUMP JUMPDEST SWAP1 POP SWAP2 SWAP1 POP JUMP JUMPDEST PUSH32 0x4661696C656420746F20666F72776172642066756E647320746F206F776E6572 PUSH1 0x0 DUP3 ADD MSTORE POP JUMP JUMPDEST PUSH1 0x0 PUSH3 0x2F2E PUSH1 0x20 DUP4 PUSH3 0x1FEA JUMP JUMPDEST SWAP2 POP PUSH3 0x2F3B DUP3 PUSH3 0x2EF6 JUMP JUMPDEST PUSH1 0x20 DUP3 ADD SWAP1 POP SWAP2 SWAP1 POP JUMP JUMPDEST PUSH1 0x0 PUSH1 0x20 DUP3 ADD SWAP1 POP DUP2 DUP2 SUB PUSH1 0x0 DUP4 ADD MSTORE PUSH3 0x2F61 DUP2 PUSH3 0x2F1F JUMP JUMPDEST SWAP1 POP SWAP2 SWAP1 POP JUMP JUMPDEST PUSH1 0x0 PUSH3 0x2F75 DUP3 PUSH3 0x195E JUMP JUMPDEST SWAP2 POP PUSH3 0x2F82 DUP4 PUSH3 0x195E JUMP JUMPDEST SWAP3 POP DUP3 DUP3 SUB SWAP1 POP DUP2 DUP2 GT ISZERO PUSH3 0x2F9D JUMPI PUSH3 0x2F9C PUSH3 0x2724 JUMP JUMPDEST JUMPDEST SWAP3 SWAP2 POP POP JUMP JUMPDEST PUSH32 0x526566756E64206661696C656400000000000000000000000000000000000000 PUSH1 0x0 DUP3 ADD MSTORE POP JUMP JUMPDEST PUSH1 0x0 PUSH3 0x2FDB PUSH1 0xD DUP4 PUSH3 0x1FEA JUMP JUMPDEST SWAP2 POP PUSH3 0x2FE8 DUP3 PUSH3 0x2FA3 JUMP JUMPDEST PUSH1 0x20 DUP3 ADD SWAP1 POP SWAP2 SWAP1 POP JUMP JUMPDEST PUSH1 0x0 PUSH1 0x20 DUP3 ADD SWAP1 POP DUP2 DUP2 SUB PUSH1 0x0 DUP4 ADD MSTORE PUSH3 0x300E DUP2 PUSH3 0x2FCC JUMP JUMPDEST SWAP1 POP SWAP2 SWAP1 POP JUMP JUMPDEST PUSH1 0x0 PUSH1 0x40 DUP3 ADD SWAP1 POP PUSH3 0x302C PUSH1 0x0 DUP4 ADD DUP6 PUSH3 0x1CAB JUMP JUMPDEST PUSH3 0x303B PUSH1 0x20 DUP4 ADD DUP5 PUSH3 0x1CAB JUMP JUMPDEST SWAP4 SWAP3 POP POP POP JUMP JUMPDEST PUSH32 0x5A65726F20616464726573730000000000000000000000000000000000000000 PUSH1 0x0 DUP3 ADD MSTORE POP JUMP JUMPDEST PUSH1 0x0 PUSH3 0x307A PUSH1 0xC DUP4 PUSH3 0x1FEA JUMP JUMPDEST SWAP2 POP PUSH3 0x3087 DUP3 PUSH3 0x3042 JUMP JUMPDEST PUSH1 0x20 DUP3 ADD SWAP1 POP SWAP2 SWAP1 POP JUMP JUMPDEST PUSH1 0x0 PUSH1 0x20 DUP3 ADD SWAP1 POP DUP2 DUP2 SUB PUSH1 0x0 DUP4 ADD MSTORE PUSH3 0x30AD DUP2 PUSH3 0x306B JUMP JUMPDEST SWAP1 POP SWAP2 SWAP1 POP JUMP INVALID PUSH1 0x80 PUSH1 0x40 MSTORE CALLVALUE DUP1 ISZERO PUSH3 0x11 JUMPI PUSH1 0x0 DUP1 REVERT JUMPDEST POP PUSH1 0x40 MLOAD PUSH3 0x2600 CODESIZE SUB DUP1 PUSH3 0x2600 DUP4 CODECOPY DUP2 DUP2 ADD PUSH1 0x40 MSTORE DUP2 ADD SWAP1 PUSH3 0x37 SWAP2 SWAP1 PUSH3 0x7BB JUMP JUMPDEST DUP6 DUP6 DUP2 PUSH1 0xE SWAP1 DUP2 PUSH3 0x4A SWAP2 SWAP1 PUSH3 0xAD6 JUMP JUMPDEST POP DUP1 PUSH1 0xF SWAP1 DUP2 PUSH3 0x5C SWAP2 SWAP1 PUSH3 0xAD6 JUMP JUMPDEST POP POP POP PUSH1 0x0 PUSH20 0xFFFFFFFFFFFFFFFFFFFFFFFFFFFFFFFFFFFFFFFF AND DUP3 PUSH20 0xFFFFFFFFFFFFFFFFFFFFFFFFFFFFFFFFFFFFFFFF AND SUB PUSH3 0xD1 JUMPI PUSH1 0x40 MLOAD PUSH32 0x8C379A000000000000000000000000000000000000000000000000000000000 DUP2 MSTORE PUSH1 0x4 ADD PUSH3 0xC8 SWAP1 PUSH3 0xC1E JUMP JUMPDEST PUSH1 0x40 MLOAD DUP1 SWAP2 SUB SWAP1 REVERT JUMPDEST PUSH1 0x0 PUSH20 0xFFFFFFFFFFFFFFFFFFFFFFFFFFFFFFFFFFFFFFFF AND DUP5 PUSH20 0xFFFFFFFFFFFFFFFFFFFFFFFFFFFFFFFFFFFFFFFF AND SUB PUSH3 0x143 JUMPI PUSH1 0x40 MLOAD PUSH32 0x8C379A000000000000000000000000000000000000000000000000000000000 DUP2 MSTORE PUSH1 0x4 ADD PUSH3 0x13A SWAP1 PUSH3 0xC90 JUMP JUMPDEST PUSH1 0x40 MLOAD DUP1 SWAP2 SUB SWAP1 REVERT JUMPDEST PUSH1 0x0 DUP2 GT PUSH3 0x189 JUMPI PUSH1 0x40 MLOAD PUSH32 0x8C379A000000000000000000000000000000000000000000000000000000000 DUP2 MSTORE PUSH1 0x4 ADD PUSH3 0x180 SWAP1 PUSH3 0xD02 JUMP JUMPDEST PUSH1 0x40 MLOAD DUP1 SWAP2 SUB SWAP1 REVERT JUMPDEST DUP4 PUSH1 0x8 PUSH1 0x0 PUSH2 0x100 EXP DUP2 SLOAD DUP2 PUSH20 0xFFFFFFFFFFFFFFFFFFFFFFFFFFFFFFFFFFFFFFFF MUL NOT AND SWAP1 DUP4 PUSH20 0xFFFFFFFFFFFFFFFFFFFFFFFFFFFFFFFFFFFFFFFF AND MUL OR SWAP1 SSTORE POP DUP3 PUSH1 0x7 DUP2 SWAP1 SSTORE POP CALLER PUSH1 0x9 PUSH1 0x0 PUSH2 0x100 EXP DUP2 SLOAD DUP2 PUSH20 0xFFFFFFFFFFFFFFFFFFFFFFFFFFFFFFFFFFFFFFFF MUL NOT AND SWAP1 DUP4 PUSH20 0xFFFFFFFFFFFFFFFFFFFFFFFFFFFFFFFFFFFFFFFF AND MUL OR SWAP1 SSTORE POP PUSH1 0x0 PUSH3 0x224 PUSH3 0x2BF PUSH1 0x20 SHL PUSH1 0x20 SHR JUMP JUMPDEST SWAP1 POP DUP1 PUSH1 0xFF AND PUSH1 0xA PUSH3 0x238 SWAP2 SWAP1 PUSH3 0xEA7 JUMP JUMPDEST DUP3 PUSH3 0x245 SWAP2 SWAP1 PUSH3 0xEF8 JUMP JUMPDEST PUSH1 0xA DUP2 SWAP1 SSTORE POP PUSH3 0x25F DUP4 PUSH1 0xA SLOAD PUSH3 0x2C8 PUSH1 0x20 SHL PUSH1 0x20 SHR JUMP JUMPDEST DUP4 DUP4 PUSH20 0xFFFFFFFFFFFFFFFFFFFFFFFFFFFFFFFFFFFFFFFF AND PUSH32 0x1ADA2EAE037FB6FF59F185305A4720BC3E809772C23B4F0D70E3462DB5D13E6D PUSH1 0xA SLOAD PUSH1 0x40 MLOAD PUSH3 0x2AA SWAP2 SWAP1 PUSH3 0xF54 JUMP JUMPDEST PUSH1 0x40 MLOAD DUP1 SWAP2 SUB SWAP1 LOG3 POP POP POP POP POP POP POP PUSH3 0x1017 JUMP JUMPDEST PUSH1 0x0 PUSH1 0x12 SWAP1 POP SWAP1 JUMP JUMPDEST PUSH1 0x0 PUSH20 0xFFFFFFFFFFFFFFFFFFFFFFFFFFFFFFFFFFFFFFFF AND DUP3 PUSH20 0xFFFFFFFFFFFFFFFFFFFFFFFFFFFFFFFFFFFFFFFF AND SUB PUSH3 0x33D JUMPI PUSH1 0x0 PUSH1 0x40 MLOAD PUSH32 0xEC442F0500000000000000000000000000000000000000000000000000000000 DUP2 MSTORE PUSH1 0x4 ADD PUSH3 0x334 SWAP2 SWAP1 PUSH3 0xF82 JUMP JUMPDEST PUSH1 0x40 MLOAD DUP1 SWAP2 SUB SWAP1 REVERT JUMPDEST PUSH3 0x351 PUSH1 0x0 DUP4 DUP4 PUSH3 0x355 PUSH1 0x20 SHL PUSH1 0x20 SHR JUMP JUMPDEST POP POP JUMP JUMPDEST PUSH1 0x0 PUSH20 0xFFFFFFFFFFFFFFFFFFFFFFFFFFFFFFFFFFFFFFFF AND DUP4 PUSH20 0xFFFFFFFFFFFFFFFFFFFFFFFFFFFFFFFFFFFFFFFF AND SUB PUSH3 0x3AB JUMPI DUP1 PUSH1 0xD PUSH1 0x0 DUP3 DUP3 SLOAD PUSH3 0x39E SWAP2 SWAP1 PUSH3 0xF9F JUMP JUMPDEST SWAP3 POP POP DUP2 SWAP1 SSTORE POP PUSH3 0x483 JUMP JUMPDEST PUSH1 0x0 PUSH1 0xB PUSH1 0x0 DUP6 PUSH20 0xFFFFFFFFFFFFFFFFFFFFFFFFFFFFFFFFFFFFFFFF AND PUSH20 0xFFFFFFFFFFFFFFFFFFFFFFFFFFFFFFFFFFFFFFFF AND DUP2 MSTORE PUSH1 0x20 ADD SWAP1 DUP2 MSTORE PUSH1 0x20 ADD PUSH1 0x0 KECCAK256 SLOAD SWAP1 POP DUP2 DUP2 LT ISZERO PUSH3 0x43B JUMPI DUP4 DUP2 DUP4 PUSH1 0x40 MLOAD PUSH32 0xE450D38C00000000000000000000000000000000000000000000000000000000 DUP2 MSTORE PUSH1 0x4 ADD PUSH3 0x432 SWAP4 SWAP3 SWAP2 SWAP1 PUSH3 0xFDA JUMP JUMPDEST PUSH1 0x40 MLOAD DUP1 SWAP2 SUB SWAP1 REVERT JUMPDEST DUP2 DUP2 SUB PUSH1 0xB PUSH1 0x0 DUP7 PUSH20 0xFFFFFFFFFFFFFFFFFFFFFFFFFFFFFFFFFFFFFFFF AND PUSH20 0xFFFFFFFFFFFFFFFFFFFFFFFFFFFFFFFFFFFFFFFF AND DUP2 MSTORE PUSH1 0x20 ADD SWAP1 DUP2 MSTORE PUSH1 0x20 ADD PUSH1 0x0 KECCAK256 DUP2 SWAP1 SSTORE POP POP JUMPDEST PUSH1 0x0 PUSH20 0xFFFFFFFFFFFFFFFFFFFFFFFFFFFFFFFFFFFFFFFF AND DUP3 PUSH20 0xFFFFFFFFFFFFFFFFFFFFFFFFFFFFFFFFFFFFFFFF AND SUB PUSH3 0x4CE JUMPI DUP1 PUSH1 0xD PUSH1 0x0 DUP3 DUP3 SLOAD SUB SWAP3 POP POP DUP2 SWAP1 SSTORE POP PUSH3 0x51C JUMP JUMPDEST DUP1 PUSH1 0xB PUSH1 0x0 DUP5 PUSH20 0xFFFFFFFFFFFFFFFFFFFFFFFFFFFFFFFFFFFFFFFF AND PUSH20 0xFFFFFFFFFFFFFFFFFFFFFFFFFFFFFFFFFFFFFFFF AND DUP2 MSTORE PUSH1 0x20 ADD SWAP1 DUP2 MSTORE PUSH1 0x20 ADD PUSH1 0x0 KECCAK256 PUSH1 0x0 DUP3 DUP3 SLOAD ADD SWAP3 POP POP DUP2 SWAP1 SSTORE POP JUMPDEST DUP2 PUSH20 0xFFFFFFFFFFFFFFFFFFFFFFFFFFFFFFFFFFFFFFFF AND DUP4 PUSH20 0xFFFFFFFFFFFFFFFFFFFFFFFFFFFFFFFFFFFFFFFF AND PUSH32 0xDDF252AD1BE2C89B69C2B068FC378DAA952BA7F163C4A11628F55A4DF523B3EF DUP4 PUSH1 0x40 MLOAD PUSH3 0x57B SWAP2 SWAP1 PUSH3 0xF54 JUMP JUMPDEST PUSH1 0x40 MLOAD DUP1 SWAP2 SUB SWAP1 LOG3 POP POP POP JUMP JUMPDEST PUSH1 0x0 PUSH1 0x40 MLOAD SWAP1 POP SWAP1 JUMP JUMPDEST PUSH1 0x0 DUP1 REVERT JUMPDEST PUSH1 0x0 DUP1 REVERT JUMPDEST PUSH1 0x0 DUP1 REVERT JUMPDEST PUSH1 0x0 DUP1 REVERT JUMPDEST PUSH1 0x0 PUSH1 0x1F NOT PUSH1 0x1F DUP4 ADD AND SWAP1 POP SWAP2 SWAP1 POP JUMP JUMPDEST PUSH32 0x4E487B7100000000000000000000000000000000000000000000000000000000 PUSH1 0x0 MSTORE PUSH1 0x41 PUSH1 0x4 MSTORE PUSH1 0x24 PUSH1 0x0 REVERT JUMPDEST PUSH3 0x5F1 DUP3 PUSH3 0x5A6 JUMP JUMPDEST DUP2 ADD DUP2 DUP2 LT PUSH8 0xFFFFFFFFFFFFFFFF DUP3 GT OR ISZERO PUSH3 0x613 JUMPI PUSH3 0x612 PUSH3 0x5B7 JUMP JUMPDEST JUMPDEST DUP1 PUSH1 0x40 MSTORE POP POP POP JUMP JUMPDEST PUSH1 0x0 PUSH3 0x628 PUSH3 0x588 JUMP JUMPDEST SWAP1 POP PUSH3 0x636 DUP3 DUP3 PUSH3 0x5E6 JUMP JUMPDEST SWAP2 SWAP1 POP JUMP JUMPDEST PUSH1 0x0 PUSH8 0xFFFFFFFFFFFFFFFF DUP3 GT ISZERO PUSH3 0x659 JUMPI PUSH3 0x658 PUSH3 0x5B7 JUMP JUMPDEST JUMPDEST PUSH3 0x664 DUP3 PUSH3 0x5A6 JUMP JUMPDEST SWAP1 POP PUSH1 0x20 DUP2 ADD SWAP1 POP SWAP2 SWAP1 POP JUMP JUMPDEST PUSH1 0x0 JUMPDEST DUP4 DUP2 LT ISZERO PUSH3 0x691 JUMPI DUP1 DUP3 ADD MLOAD DUP2 DUP5 ADD MSTORE PUSH1 0x20 DUP2 ADD SWAP1 POP PUSH3 0x674 JUMP JUMPDEST PUSH1 0x0 DUP5 DUP5 ADD MSTORE POP POP POP POP JUMP JUMPDEST PUSH1 0x0 PUSH3 0x6B4 PUSH3 0x6AE DUP5 PUSH3 0x63B JUMP JUMPDEST PUSH3 0x61C JUMP JUMPDEST SWAP1 POP DUP3 DUP2 MSTORE PUSH1 0x20 DUP2 ADD DUP5 DUP5 DUP5 ADD GT ISZERO PUSH3 0x6D3 JUMPI PUSH3 0x6D2 PUSH3 0x5A1 JUMP JUMPDEST JUMPDEST PUSH3 0x6E0 DUP5 DUP3 DUP6 PUSH3 0x671 JUMP JUMPDEST POP SWAP4 SWAP3 POP POP POP JUMP JUMPDEST PUSH1 0x0 DUP3 PUSH1 0x1F DUP4 ADD SLT PUSH3 0x700 JUMPI PUSH3 0x6FF PUSH3 0x59C JUMP JUMPDEST JUMPDEST DUP2 MLOAD PUSH3 0x712 DUP5 DUP3 PUSH1 0x20 DUP7 ADD PUSH3 0x69D JUMP JUMPDEST SWAP2 POP POP SWAP3 SWAP2 POP POP JUMP JUMPDEST PUSH1 0x0 PUSH20 0xFFFFFFFFFFFFFFFFFFFFFFFFFFFFFFFFFFFFFFFF DUP3 AND SWAP1 POP SWAP2 SWAP1 POP JUMP JUMPDEST PUSH1 0x0 PUSH3 0x748 DUP3 PUSH3 0x71B JUMP JUMPDEST SWAP1 POP SWAP2 SWAP1 POP JUMP JUMPDEST PUSH3 0x75A DUP2 PUSH3 0x73B JUMP JUMPDEST DUP2 EQ PUSH3 0x766 JUMPI PUSH1 0x0 DUP1 REVERT JUMPDEST POP JUMP JUMPDEST PUSH1 0x0 DUP2 MLOAD SWAP1 POP PUSH3 0x77A DUP2 PUSH3 0x74F JUMP JUMPDEST SWAP3 SWAP2 POP POP JUMP JUMPDEST PUSH1 0x0 DUP2 SWAP1 POP SWAP2 SWAP1 POP JUMP JUMPDEST PUSH3 0x795 DUP2 PUSH3 0x780 JUMP JUMPDEST DUP2 EQ PUSH3 0x7A1 JUMPI PUSH1 0x0 DUP1 REVERT JUMPDEST POP JUMP JUMPDEST PUSH1 0x0 DUP2 MLOAD SWAP1 POP PUSH3 0x7B5 DUP2 PUSH3 0x78A JUMP JUMPDEST SWAP3 SWAP2 POP POP JUMP JUMPDEST PUSH1 0x0 DUP1 PUSH1 0x0 DUP1 PUSH1 0x0 DUP1 PUSH1 0xC0 DUP8 DUP10 SUB SLT ISZERO PUSH3 0x7DB JUMPI PUSH3 0x7DA PUSH3 0x592 JUMP JUMPDEST JUMPDEST PUSH1 0x0 DUP8 ADD MLOAD PUSH8 0xFFFFFFFFFFFFFFFF DUP2 GT ISZERO PUSH3 0x7FC JUMPI PUSH3 0x7FB PUSH3 0x597 JUMP JUMPDEST JUMPDEST PUSH3 0x80A DUP10 DUP3 DUP11 ADD PUSH3 0x6E8 JUMP JUMPDEST SWAP7 POP POP PUSH1 0x20 DUP8 ADD MLOAD PUSH8 0xFFFFFFFFFFFFFFFF DUP2 GT ISZERO PUSH3 0x82E JUMPI PUSH3 0x82D PUSH3 0x597 JUMP JUMPDEST JUMPDEST PUSH3 0x83C DUP10 DUP3 DUP11 ADD PUSH3 0x6E8 JUMP JUMPDEST SWAP6 POP POP PUSH1 0x40 PUSH3 0x84F DUP10 DUP3 DUP11 ADD PUSH3 0x769 JUMP JUMPDEST SWAP5 POP POP PUSH1 0x60 PUSH3 0x862 DUP10 DUP3 DUP11 ADD PUSH3 0x7A4 JUMP JUMPDEST SWAP4 POP POP PUSH1 0x80 PUSH3 0x875 DUP10 DUP3 DUP11 ADD PUSH3 0x769 JUMP JUMPDEST SWAP3 POP POP PUSH1 0xA0 PUSH3 0x888 DUP10 DUP3 DUP11 ADD PUSH3 0x7A4 JUMP JUMPDEST SWAP2 POP POP SWAP3 SWAP6 POP SWAP3 SWAP6 POP SWAP3 SWAP6 JUMP JUMPDEST PUSH1 0x0 DUP2 MLOAD SWAP1 POP SWAP2 SWAP1 POP JUMP JUMPDEST PUSH32 0x4E487B7100000000000000000000000000000000000000000000000000000000 PUSH1 0x0 MSTORE PUSH1 0x22 PUSH1 0x4 MSTORE PUSH1 0x24 PUSH1 0x0 REVERT JUMPDEST PUSH1 0x0 PUSH1 0x2 DUP3 DIV SWAP1 POP PUSH1 0x1 DUP3 AND DUP1 PUSH3 0x8E8 JUMPI PUSH1 0x7F DUP3 AND SWAP2 POP JUMPDEST PUSH1 0x20 DUP3 LT DUP2 SUB PUSH3 0x8FE JUMPI PUSH3 0x8FD PUSH3 0x8A0 JUMP JUMPDEST JUMPDEST POP SWAP2 SWAP1 POP JUMP JUMPDEST PUSH1 0x0 DUP2 SWAP1 POP DUP2 PUSH1 0x0 MSTORE PUSH1 0x20 PUSH1 0x0 KECCAK256 SWAP1 POP SWAP2 SWAP1 POP JUMP JUMPDEST PUSH1 0x0 PUSH1 0x20 PUSH1 0x1F DUP4 ADD DIV SWAP1 POP SWAP2 SWAP1 POP JUMP JUMPDEST PUSH1 0x0 DUP3 DUP3 SHL SWAP1 POP SWAP3 SWAP2 POP POP JUMP JUMPDEST PUSH1 0x0 PUSH1 0x8 DUP4 MUL PUSH3 0x968 PUSH32 0xFFFFFFFFFFFFFFFFFFFFFFFFFFFFFFFFFFFFFFFFFFFFFFFFFFFFFFFFFFFFFFFF DUP3 PUSH3 0x929 JUMP JUMPDEST PUSH3 0x974 DUP7 DUP4 PUSH3 0x929 JUMP JUMPDEST SWAP6 POP DUP1 NOT DUP5 AND SWAP4 POP DUP1 DUP7 AND DUP5 OR SWAP3 POP POP POP SWAP4 SWAP3 POP POP POP JUMP JUMPDEST PUSH1 0x0 DUP2 SWAP1 POP SWAP2 SWAP1 POP JUMP JUMPDEST PUSH1 0x0 PUSH3 0x9B7 PUSH3 0x9B1 PUSH3 0x9AB DUP5 PUSH3 0x780 JUMP JUMPDEST PUSH3 0x98C JUMP JUMPDEST PUSH3 0x780 JUMP JUMPDEST SWAP1 POP SWAP2 SWAP1 POP JUMP JUMPDEST PUSH1 0x0 DUP2 SWAP1 POP SWAP2 SWAP1 POP JUMP JUMPDEST PUSH3 0x9D3 DUP4 PUSH3 0x996 JUMP JUMPDEST PUSH3 0x9EB PUSH3 0x9E2 DUP3 PUSH3 0x9BE JUMP JUMPDEST DUP5 DUP5 SLOAD PUSH3 0x936 JUMP JUMPDEST DUP3 SSTORE POP POP POP POP JUMP JUMPDEST PUSH1 0x0 SWAP1 JUMP JUMPDEST PUSH3 0xA02 PUSH3 0x9F3 JUMP JUMPDEST PUSH3 0xA0F DUP2 DUP5 DUP5 PUSH3 0x9C8 JUMP JUMPDEST POP POP POP JUMP JUMPDEST JUMPDEST DUP2 DUP2 LT ISZERO PUSH3 0xA37 JUMPI PUSH3 0xA2B PUSH1 0x0 DUP3 PUSH3 0x9F8 JUMP JUMPDEST PUSH1 0x1 DUP2 ADD SWAP1 POP PUSH3 0xA15 JUMP JUMPDEST POP POP JUMP JUMPDEST PUSH1 0x1F DUP3 GT ISZERO PUSH3 0xA86 JUMPI PUSH3 0xA50 DUP2 PUSH3 0x904 JUMP JUMPDEST PUSH3 0xA5B DUP5 PUSH3 0x919 JUMP JUMPDEST DUP2 ADD PUSH1 0x20 DUP6 LT ISZERO PUSH3 0xA6B JUMPI DUP2 SWAP1 POP JUMPDEST PUSH3 0xA83 PUSH3 0xA7A DUP6 PUSH3 0x919 JUMP JUMPDEST DUP4 ADD DUP3 PUSH3 0xA14 JUMP JUMPDEST POP POP JUMPDEST POP POP POP JUMP JUMPDEST PUSH1 0x0 DUP3 DUP3 SHR SWAP1 POP SWAP3 SWAP2 POP POP JUMP JUMPDEST PUSH1 0x0 PUSH3 0xAAB PUSH1 0x0 NOT DUP5 PUSH1 0x8 MUL PUSH3 0xA8B JUMP JUMPDEST NOT DUP1 DUP4 AND SWAP2 POP POP SWAP3 SWAP2 POP POP JUMP JUMPDEST PUSH1 0x0 PUSH3 0xAC6 DUP4 DUP4 PUSH3 0xA98 JUMP JUMPDEST SWAP2 POP DUP3 PUSH1 0x2 MUL DUP3 OR SWAP1 POP SWAP3 SWAP2 POP POP JUMP JUMPDEST PUSH3 0xAE1 DUP3 PUSH3 0x895 JUMP JUMPDEST PUSH8 0xFFFFFFFFFFFFFFFF DUP2 GT ISZERO PUSH3 0xAFD JUMPI PUSH3 0xAFC PUSH3 0x5B7 JUMP JUMPDEST JUMPDEST PUSH3 0xB09 DUP3 SLOAD PUSH3 0x8CF JUMP JUMPDEST PUSH3 0xB16 DUP3 DUP3 DUP6 PUSH3 0xA3B JUMP JUMPDEST PUSH1 0x0 PUSH1 0x20 SWAP1 POP PUSH1 0x1F DUP4 GT PUSH1 0x1 DUP2 EQ PUSH3 0xB4E JUMPI PUSH1 0x0 DUP5 ISZERO PUSH3 0xB39 JUMPI DUP3 DUP8 ADD MLOAD SWAP1 POP JUMPDEST PUSH3 0xB45 DUP6 DUP3 PUSH3 0xAB8 JUMP JUMPDEST DUP7 SSTORE POP PUSH3 0xBB5 JUMP JUMPDEST PUSH1 0x1F NOT DUP5 AND PUSH3 0xB5E DUP7 PUSH3 0x904 JUMP JUMPDEST PUSH1 0x0 JUMPDEST DUP3 DUP2 LT ISZERO PUSH3 0xB88 JUMPI DUP5 DUP10 ADD MLOAD DUP3 SSTORE PUSH1 0x1 DUP3 ADD SWAP2 POP PUSH1 0x20 DUP6 ADD SWAP5 POP PUSH1 0x20 DUP2 ADD SWAP1 POP PUSH3 0xB61 JUMP JUMPDEST DUP7 DUP4 LT ISZERO PUSH3 0xBA8 JUMPI DUP5 DUP10 ADD MLOAD PUSH3 0xBA4 PUSH1 0x1F DUP10 AND DUP3 PUSH3 0xA98 JUMP JUMPDEST DUP4 SSTORE POP JUMPDEST PUSH1 0x1 PUSH1 0x2 DUP9 MUL ADD DUP9 SSTORE POP POP POP JUMPDEST POP POP POP POP POP POP JUMP JUMPDEST PUSH1 0x0 DUP3 DUP3 MSTORE PUSH1 0x20 DUP3 ADD SWAP1 POP SWAP3 SWAP2 POP POP JUMP JUMPDEST PUSH32 0x496E697469616C20686F6C646572207A65726F00000000000000000000000000 PUSH1 0x0 DUP3 ADD MSTORE POP JUMP JUMPDEST PUSH1 0x0 PUSH3 0xC06 PUSH1 0x13 DUP4 PUSH3 0xBBD JUMP JUMPDEST SWAP2 POP PUSH3 0xC13 DUP3 PUSH3 0xBCE JUMP JUMPDEST PUSH1 0x20 DUP3 ADD SWAP1 POP SWAP2 SWAP1 POP JUMP JUMPDEST PUSH1 0x0 PUSH1 0x20 DUP3 ADD SWAP1 POP DUP2 DUP2 SUB PUSH1 0x0 DUP4 ADD MSTORE PUSH3 0xC39 DUP2 PUSH3 0xBF7 JUMP JUMPDEST SWAP1 POP SWAP2 SWAP1 POP JUMP JUMPDEST PUSH32 0x50726F706572747944656564207A65726F000000000000000000000000000000 PUSH1 0x0 DUP3 ADD MSTORE POP JUMP JUMPDEST PUSH1 0x0 PUSH3 0xC78 PUSH1 0x11 DUP4 PUSH3 0xBBD JUMP JUMPDEST SWAP2 POP PUSH3 0xC85 DUP3 PUSH3 0xC40 JUMP JUMPDEST PUSH1 0x20 DUP3 ADD SWAP1 POP SWAP2 SWAP1 POP JUMP JUMPDEST PUSH1 0x0 PUSH1 0x20 DUP3 ADD SWAP1 POP DUP2 DUP2 SUB PUSH1 0x0 DUP4 ADD MSTORE PUSH3 0xCAB DUP2 PUSH3 0xC69 JUMP JUMPDEST SWAP1 POP SWAP2 SWAP1 POP JUMP JUMPDEST PUSH32 0x546F74616C20737570706C79207A65726F000000000000000000000000000000 PUSH1 0x0 DUP3 ADD MSTORE POP JUMP JUMPDEST PUSH1 0x0 PUSH3 0xCEA PUSH1 0x11 DUP4 PUSH3 0xBBD JUMP JUMPDEST SWAP2 POP PUSH3 0xCF7 DUP3 PUSH3 0xCB2 JUMP JUMPDEST PUSH1 0x20 DUP3 ADD SWAP1 POP SWAP2 SWAP1 POP JUMP JUMPDEST PUSH1 0x0 PUSH1 0x20 DUP3 ADD SWAP1 POP DUP2 DUP2 SUB PUSH1 0x0 DUP4 ADD MSTORE PUSH3 0xD1D DUP2 PUSH3 0xCDB JUMP JUMPDEST SWAP1 POP SWAP2 SWAP1 POP JUMP JUMPDEST PUSH32 0x4E487B7100000000000000000000000000000000000000000000000000000000 PUSH1 0x0 MSTORE PUSH1 0x11 PUSH1 0x4 MSTORE PUSH1 0x24 PUSH1 0x0 REVERT JUMPDEST PUSH1 0x0 DUP2 PUSH1 0x1 SHR SWAP1 POP SWAP2 SWAP1 POP JUMP JUMPDEST PUSH1 0x0 DUP1 DUP3 SWAP2 POP DUP4 SWAP1 POP JUMPDEST PUSH1 0x1 DUP6 GT ISZERO PUSH3 0xDB2 JUMPI DUP1 DUP7 DIV DUP2 GT ISZERO PUSH3 0xD8A JUMPI PUSH3 0xD89 PUSH3 0xD24 JUMP JUMPDEST JUMPDEST PUSH1 0x1 DUP6 AND ISZERO PUSH3 0xD9A JUMPI DUP1 DUP3 MUL SWAP2 POP JUMPDEST DUP1 DUP2 MUL SWAP1 POP PUSH3 0xDAA DUP6 PUSH3 0xD53 JUMP JUMPDEST SWAP5 POP PUSH3 0xD6A JUMP JUMPDEST SWAP5 POP SWAP5 SWAP3 POP POP POP JUMP JUMPDEST PUSH1 0x0 DUP3 PUSH3 0xDCD JUMPI PUSH1 0x1 SWAP1 POP PUSH3 0xEA0 JUMP JUMPDEST DUP2 PUSH3 0xDDD JUMPI PUSH1 0x0 SWAP1 POP PUSH3 0xEA0 JUMP JUMPDEST DUP2 PUSH1 0x1 DUP2 EQ PUSH3 0xDF6 JUMPI PUSH1 0x2 DUP2 EQ PUSH3 0xE01 JUMPI PUSH3 0xE37 JUMP JUMPDEST PUSH1 0x1 SWAP2 POP POP PUSH3 0xEA0 JUMP JUMPDEST PUSH1 0xFF DUP5 GT ISZERO PUSH3 0xE16 JUMPI PUSH3 0xE15 PUSH3 0xD24 JUMP JUMPDEST JUMPDEST DUP4 PUSH1 0x2 EXP SWAP2 POP DUP5 DUP3 GT ISZERO PUSH3 0xE30 JUMPI PUSH3 0xE2F PUSH3 0xD24 JUMP JUMPDEST JUMPDEST POP PUSH3 0xEA0 JUMP JUMPDEST POP PUSH1 0x20 DUP4 LT PUSH2 0x133 DUP4 LT AND PUSH1 0x4E DUP5 LT PUSH1 0xB DUP5 LT AND OR ISZERO PUSH3 0xE71 JUMPI DUP3 DUP3 EXP SWAP1 POP DUP4 DUP2 GT ISZERO PUSH3 0xE6B JUMPI PUSH3 0xE6A PUSH3 0xD24 JUMP JUMPDEST JUMPDEST PUSH3 0xEA0 JUMP JUMPDEST PUSH3 0xE80 DUP5 DUP5 DUP5 PUSH1 0x1 PUSH3 0xD60 JUMP JUMPDEST SWAP3 POP SWAP1 POP DUP2 DUP5 DIV DUP2 GT ISZERO PUSH3 0xE9A JUMPI PUSH3 0xE99 PUSH3 0xD24 JUMP JUMPDEST JUMPDEST DUP2 DUP2 MUL SWAP1 POP JUMPDEST SWAP4 SWAP3 POP POP POP JUMP JUMPDEST PUSH1 0x0 PUSH3 0xEB4 DUP3 PUSH3 0x780 JUMP JUMPDEST SWAP2 POP PUSH3 0xEC1 DUP4 PUSH3 0x780 JUMP JUMPDEST SWAP3 POP PUSH3 0xEF0 PUSH32 0xFFFFFFFFFFFFFFFFFFFFFFFFFFFFFFFFFFFFFFFFFFFFFFFFFFFFFFFFFFFFFFFF DUP5 DUP5 PUSH3 0xDBB JUMP JUMPDEST SWAP1 POP SWAP3 SWAP2 POP POP JUMP JUMPDEST PUSH1 0x0 PUSH3 0xF05 DUP3 PUSH3 0x780 JUMP JUMPDEST SWAP2 POP PUSH3 0xF12 DUP4 PUSH3 0x780 JUMP JUMPDEST SWAP3 POP DUP3 DUP3 MUL PUSH3 0xF22 DUP2 PUSH3 0x780 JUMP JUMPDEST SWAP2 POP DUP3 DUP3 DIV DUP5 EQ DUP4 ISZERO OR PUSH3 0xF3C JUMPI PUSH3 0xF3B PUSH3 0xD24 JUMP JUMPDEST JUMPDEST POP SWAP3 SWAP2 POP POP JUMP JUMPDEST PUSH3 0xF4E DUP2 PUSH3 0x780 JUMP JUMPDEST DUP3 MSTORE POP POP JUMP JUMPDEST PUSH1 0x0 PUSH1 0x20 DUP3 ADD SWAP1 POP PUSH3 0xF6B PUSH1 0x0 DUP4 ADD DUP5 PUSH3 0xF43 JUMP JUMPDEST SWAP3 SWAP2 POP POP JUMP JUMPDEST PUSH3 0xF7C DUP2 PUSH3 0x73B JUMP JUMPDEST DUP3 MSTORE POP POP JUMP JUMPDEST PUSH1 0x0 PUSH1 0x20 DUP3 ADD SWAP1 POP PUSH3 0xF99 PUSH1 0x0 DUP4 ADD DUP5 PUSH3 0xF71 JUMP JUMPDEST SWAP3 SWAP2 POP POP JUMP JUMPDEST PUSH1 0x0 PUSH3 0xFAC DUP3 PUSH3 0x780 JUMP JUMPDEST SWAP2 POP PUSH3 0xFB9 DUP4 PUSH3 0x780 JUMP JUMPDEST SWAP3 POP DUP3 DUP3 ADD SWAP1 POP DUP1 DUP3 GT ISZERO PUSH3 0xFD4 JUMPI PUSH3 0xFD3 PUSH3 0xD24 JUMP JUMPDEST JUMPDEST SWAP3 SWAP2 POP POP JUMP JUMPDEST PUSH1 0x0 PUSH1 0x60 DUP3 ADD SWAP1 POP PUSH3 0xFF1 PUSH1 0x0 DUP4 ADD DUP7 PUSH3 0xF71 JUMP JUMPDEST PUSH3 0x1000 PUSH1 0x20 DUP4 ADD DUP6 PUSH3 0xF43 JUMP JUMPDEST PUSH3 0x100F PUSH1 0x40 DUP4 ADD DUP5 PUSH3 0xF43 JUMP JUMPDEST SWAP5 SWAP4 POP POP POP POP JUMP JUMPDEST PUSH2 0x15D9 DUP1 PUSH3 0x1027 PUSH1 0x0 CODECOPY PUSH1 0x0 RETURN INVALID PUSH1 0x80 PUSH1 0x40 MSTORE CALLVALUE DUP1 ISZERO PUSH2 0x10 JUMPI PUSH1 0x0 DUP1 REVERT JUMPDEST POP PUSH1 0x4 CALLDATASIZE LT PUSH2 0x137 JUMPI PUSH1 0x0 CALLDATALOAD PUSH1 0xE0 SHR DUP1 PUSH4 0x57DBCD8D GT PUSH2 0xB8 JUMPI DUP1 PUSH4 0xC1BD8CF9 GT PUSH2 0x7C JUMPI DUP1 PUSH4 0xC1BD8CF9 EQ PUSH2 0x37D JUMPI DUP1 PUSH4 0xD090E47E EQ PUSH2 0x39B JUMPI DUP1 PUSH4 0xD1FEDBC2 EQ PUSH2 0x3B9 JUMPI DUP1 PUSH4 0xDD62ED3E EQ PUSH2 0x3E9 JUMPI DUP1 PUSH4 0xF657A95D EQ PUSH2 0x419 JUMPI DUP1 PUSH4 0xF7B10808 EQ PUSH2 0x437 JUMPI PUSH2 0x137 JUMP JUMPDEST DUP1 PUSH4 0x57DBCD8D EQ PUSH2 0x2B1 JUMPI DUP1 PUSH4 0x70A08231 EQ PUSH2 0x2CF JUMPI DUP1 PUSH4 0x766DE47F EQ PUSH2 0x2FF JUMPI DUP1 PUSH4 0x95D89B41 EQ PUSH2 0x32F JUMPI DUP1 PUSH4 0xA9059CBB EQ PUSH2 0x34D JUMPI PUSH2 0x137 JUMP JUMPDEST DUP1 PUSH4 0x23B872DD GT PUSH2 0xFF JUMPI DUP1 PUSH4 0x23B872DD EQ PUSH2 0x1F6 JUMPI DUP1 PUSH4 0x2D487D2F EQ PUSH2 0x226 JUMPI DUP1 PUSH4 0x313CE567 EQ PUSH2 0x257 JUMPI DUP1 PUSH4 0x359CD67B EQ PUSH2 0x275 JUMPI DUP1 PUSH4 0x481C6A75 EQ PUSH2 0x293 JUMPI PUSH2 0x137 JUMP JUMPDEST DUP1 PUSH4 0x6FDDE03 EQ PUSH2 0x13C JUMPI DUP1 PUSH4 0x95EA7B3 EQ PUSH2 0x15A JUMPI DUP1 PUSH4 0x12CDA254 EQ PUSH2 0x18A JUMPI DUP1 PUSH4 0x17D70F7C EQ PUSH2 0x1BA JUMPI DUP1 PUSH4 0x18160DDD EQ PUSH2 0x1D8 JUMPI JUMPDEST PUSH1 0x0 DUP1 REVERT JUMPDEST PUSH2 0x144 PUSH2 0x469 JUMP JUMPDEST PUSH1 0x40 MLOAD PUSH2 0x151 SWAP2 SWAP1 PUSH2 0xFB4 JUMP JUMPDEST PUSH1 0x40 MLOAD DUP1 SWAP2 SUB SWAP1 RETURN JUMPDEST PUSH2 0x174 PUSH1 0x4 DUP1 CALLDATASIZE SUB DUP2 ADD SWAP1 PUSH2 0x16F SWAP2 SWAP1 PUSH2 0x106F JUMP JUMPDEST PUSH2 0x4FB JUMP JUMPDEST PUSH1 0x40 MLOAD PUSH2 0x181 SWAP2 SWAP1 PUSH2 0x10CA JUMP JUMPDEST PUSH1 0x40 MLOAD DUP1 SWAP2 SUB SWAP1 RETURN JUMPDEST PUSH2 0x1A4 PUSH1 0x4 DUP1 CALLDATASIZE SUB DUP2 ADD SWAP1 PUSH2 0x19F SWAP2 SWAP1 PUSH2 0x10E5 JUMP JUMPDEST PUSH2 0x51E JUMP JUMPDEST PUSH1 0x40 MLOAD PUSH2 0x1B1 SWAP2 SWAP1 PUSH2 0x1121 JUMP JUMPDEST PUSH1 0x40 MLOAD DUP1 SWAP2 SUB SWAP1 RETURN JUMPDEST PUSH2 0x1C2 PUSH2 0x551 JUMP JUMPDEST PUSH1 0x40 MLOAD PUSH2 0x1CF SWAP2 SWAP1 PUSH2 0x114B JUMP JUMPDEST PUSH1 0x40 MLOAD DUP1 SWAP2 SUB SWAP1 RETURN JUMPDEST PUSH2 0x1E0 PUSH2 0x557 JUMP JUMPDEST PUSH1 0x40 MLOAD PUSH2 0x1ED SWAP2 SWAP1 PUSH2 0x114B JUMP JUMPDEST PUSH1 0x40 MLOAD DUP1 SWAP2 SUB SWAP1 RETURN JUMPDEST PUSH2 0x210 PUSH1 0x4 DUP1 CALLDATASIZE SUB DUP2 ADD SWAP1 PUSH2 0x20B SWAP2 SWAP1 PUSH2 0x1166 JUMP JUMPDEST PUSH2 0x561 JUMP JUMPDEST PUSH1 0x40 MLOAD PUSH2 0x21D SWAP2 SWAP1 PUSH2 0x10CA JUMP JUMPDEST PUSH1 0x40 MLOAD DUP1 SWAP2 SUB SWAP1 RETURN JUMPDEST PUSH2 0x240 PUSH1 0x4 DUP1 CALLDATASIZE SUB DUP2 ADD SWAP1 PUSH2 0x23B SWAP2 SWAP1 PUSH2 0x10E5 JUMP JUMPDEST PUSH2 0x590 JUMP JUMPDEST PUSH1 0x40 MLOAD PUSH2 0x24E SWAP3 SWAP2 SWAP1 PUSH2 0x11B9 JUMP JUMPDEST PUSH1 0x40 MLOAD DUP1 SWAP2 SUB SWAP1 RETURN JUMPDEST PUSH2 0x25F PUSH2 0x5C1 JUMP JUMPDEST PUSH1 0x40 MLOAD PUSH2 0x26C SWAP2 SWAP1 PUSH2 0x11FE JUMP JUMPDEST PUSH1 0x40 MLOAD DUP1 SWAP2 SUB SWAP1 RETURN JUMPDEST PUSH2 0x27D PUSH2 0x5CA JUMP JUMPDEST PUSH1 0x40 MLOAD PUSH2 0x28A SWAP2 SWAP1 PUSH2 0x1121 JUMP JUMPDEST PUSH1 0x40 MLOAD DUP1 SWAP2 SUB SWAP1 RETURN JUMPDEST PUSH2 0x29B PUSH2 0x5F0 JUMP JUMPDEST PUSH1 0x40 MLOAD PUSH2 0x2A8 SWAP2 SWAP1 PUSH2 0x1121 JUMP JUMPDEST PUSH1 0x40 MLOAD DUP1 SWAP2 SUB SWAP1 RETURN JUMPDEST PUSH2 0x2B9 PUSH2 0x616 JUMP JUMPDEST PUSH1 0x40 MLOAD PUSH2 0x2C6 SWAP2 SWAP1 PUSH2 0x114B JUMP JUMPDEST PUSH1 0x40 MLOAD DUP1 SWAP2 SUB SWAP1 RETURN JUMPDEST PUSH2 0x2E9 PUSH1 0x4 DUP1 CALLDATASIZE SUB DUP2 ADD SWAP1 PUSH2 0x2E4 SWAP2 SWAP1 PUSH2 0x1219 JUMP JUMPDEST PUSH2 0x646 JUMP JUMPDEST PUSH1 0x40 MLOAD PUSH2 0x2F6 SWAP2 SWAP1 PUSH2 0x114B JUMP JUMPDEST PUSH1 0x40 MLOAD DUP1 SWAP2 SUB SWAP1 RETURN JUMPDEST PUSH2 0x319 PUSH1 0x4 DUP1 CALLDATASIZE SUB DUP2 ADD SWAP1 PUSH2 0x314 SWAP2 SWAP1 PUSH2 0x10E5 JUMP JUMPDEST PUSH2 0x68F JUMP JUMPDEST PUSH1 0x40 MLOAD PUSH2 0x326 SWAP2 SWAP1 PUSH2 0x114B JUMP JUMPDEST PUSH1 0x40 MLOAD DUP1 SWAP2 SUB SWAP1 RETURN JUMPDEST PUSH2 0x337 PUSH2 0x6A7 JUMP JUMPDEST PUSH1 0x40 MLOAD PUSH2 0x344 SWAP2 SWAP1 PUSH2 0xFB4 JUMP JUMPDEST PUSH1 0x40 MLOAD DUP1 SWAP2 SUB SWAP1 RETURN JUMPDEST PUSH2 0x367 PUSH1 0x4 DUP1 CALLDATASIZE SUB DUP2 ADD SWAP1 PUSH2 0x362 SWAP2 SWAP1 PUSH2 0x106F JUMP JUMPDEST PUSH2 0x739 JUMP JUMPDEST PUSH1 0x40 MLOAD PUSH2 0x374 SWAP2 SWAP1 PUSH2 0x10CA JUMP JUMPDEST PUSH1 0x40 MLOAD DUP1 SWAP2 SUB SWAP1 RETURN JUMPDEST PUSH2 0x385 PUSH2 0x75C JUMP JUMPDEST PUSH1 0x40 MLOAD PUSH2 0x392 SWAP2 SWAP1 PUSH2 0x114B JUMP JUMPDEST PUSH1 0x40 MLOAD DUP1 SWAP2 SUB SWAP1 RETURN JUMPDEST PUSH2 0x3A3 PUSH2 0x762 JUMP JUMPDEST PUSH1 0x40 MLOAD PUSH2 0x3B0 SWAP2 SWAP1 PUSH2 0x114B JUMP JUMPDEST PUSH1 0x40 MLOAD DUP1 SWAP2 SUB SWAP1 RETURN JUMPDEST PUSH2 0x3D3 PUSH1 0x4 DUP1 CALLDATASIZE SUB DUP2 ADD SWAP1 PUSH2 0x3CE SWAP2 SWAP1 PUSH2 0x10E5 JUMP JUMPDEST PUSH2 0x768 JUMP JUMPDEST PUSH1 0x40 MLOAD PUSH2 0x3E0 SWAP2 SWAP1 PUSH2 0x1121 JUMP JUMPDEST PUSH1 0x40 MLOAD DUP1 SWAP2 SUB SWAP1 RETURN JUMPDEST PUSH2 0x403 PUSH1 0x4 DUP1 CALLDATASIZE SUB DUP2 ADD SWAP1 PUSH2 0x3FE SWAP2 SWAP1 PUSH2 0x1246 JUMP JUMPDEST PUSH2 0x79B JUMP JUMPDEST PUSH1 0x40 MLOAD PUSH2 0x410 SWAP2 SWAP1 PUSH2 0x114B JUMP JUMPDEST PUSH1 0x40 MLOAD DUP1 SWAP2 SUB SWAP1 RETURN JUMPDEST PUSH2 0x421 PUSH2 0x822 JUMP JUMPDEST PUSH1 0x40 MLOAD PUSH2 0x42E SWAP2 SWAP1 PUSH2 0x1121 JUMP JUMPDEST PUSH1 0x40 MLOAD DUP1 SWAP2 SUB SWAP1 RETURN JUMPDEST PUSH2 0x451 PUSH1 0x4 DUP1 CALLDATASIZE SUB DUP2 ADD SWAP1 PUSH2 0x44C SWAP2 SWAP1 PUSH2 0x10E5 JUMP JUMPDEST PUSH2 0x848 JUMP JUMPDEST PUSH1 0x40 MLOAD PUSH2 0x460 SWAP4 SWAP3 SWAP2 SWAP1 PUSH2 0x1286 JUMP JUMPDEST PUSH1 0x40 MLOAD DUP1 SWAP2 SUB SWAP1 RETURN JUMPDEST PUSH1 0x60 PUSH1 0xE DUP1 SLOAD PUSH2 0x478 SWAP1 PUSH2 0x12FA JUMP JUMPDEST DUP1 PUSH1 0x1F ADD PUSH1 0x20 DUP1 SWAP2 DIV MUL PUSH1 0x20 ADD PUSH1 0x40 MLOAD SWAP1 DUP2 ADD PUSH1 0x40 MSTORE DUP1 SWAP3 SWAP2 SWAP1 DUP2 DUP2 MSTORE PUSH1 0x20 ADD DUP3 DUP1 SLOAD PUSH2 0x4A4 SWAP1 PUSH2 0x12FA JUMP JUMPDEST DUP1 ISZERO PUSH2 0x4F1 JUMPI DUP1 PUSH1 0x1F LT PUSH2 0x4C6 JUMPI PUSH2 0x100 DUP1 DUP4 SLOAD DIV MUL DUP4 MSTORE SWAP2 PUSH1 0x20 ADD SWAP2 PUSH2 0x4F1 JUMP JUMPDEST DUP3 ADD SWAP2 SWAP1 PUSH1 0x0 MSTORE PUSH1 0x20 PUSH1 0x0 KECCAK256 SWAP1 JUMPDEST DUP2 SLOAD DUP2 MSTORE SWAP1 PUSH1 0x1 ADD SWAP1 PUSH1 0x20 ADD DUP1 DUP4 GT PUSH2 0x4D4 JUMPI DUP3 SWAP1 SUB PUSH1 0x1F AND DUP3 ADD SWAP2 JUMPDEST POP POP POP POP POP SWAP1 POP SWAP1 JUMP JUMPDEST PUSH1 0x0 DUP1 PUSH2 0x506 PUSH2 0x982 JUMP JUMPDEST SWAP1 POP PUSH2 0x513 DUP2 DUP6 DUP6 PUSH2 0x98A JUMP JUMPDEST PUSH1 0x1 SWAP2 POP POP SWAP3 SWAP2 POP POP JUMP JUMPDEST PUSH1 0x3 PUSH1 0x20 MSTORE DUP1 PUSH1 0x0 MSTORE PUSH1 0x40 PUSH1 0x0 KECCAK256 PUSH1 0x0 SWAP2 POP SLOAD SWAP1 PUSH2 0x100 EXP SWAP1 DIV PUSH20 0xFFFFFFFFFFFFFFFFFFFFFFFFFFFFFFFFFFFFFFFF AND DUP2 JUMP JUMPDEST PUSH1 0x7 SLOAD DUP2 JUMP JUMPDEST PUSH1 0x0 PUSH1 0xD SLOAD SWAP1 POP SWAP1 JUMP JUMPDEST PUSH1 0x0 DUP1 PUSH2 0x56C PUSH2 0x982 JUMP JUMPDEST SWAP1 POP PUSH2 0x579 DUP6 DUP3 DUP6 PUSH2 0x99C JUMP JUMPDEST PUSH2 0x584 DUP6 DUP6 DUP6 PUSH2 0xA31 JUMP JUMPDEST PUSH1 0x1 SWAP2 POP POP SWAP4 SWAP3 POP POP POP JUMP JUMPDEST PUSH1 0x5 PUSH1 0x20 MSTORE DUP1 PUSH1 0x0 MSTORE PUSH1 0x40 PUSH1 0x0 KECCAK256 PUSH1 0x0 SWAP2 POP SWAP1 POP DUP1 PUSH1 0x0 ADD SLOAD SWAP1 DUP1 PUSH1 0x1 ADD PUSH1 0x0 SWAP1 SLOAD SWAP1 PUSH2 0x100 EXP SWAP1 DIV PUSH1 0xFF AND SWAP1 POP DUP3 JUMP JUMPDEST PUSH1 0x0 PUSH1 0x12 SWAP1 POP SWAP1 JUMP JUMPDEST PUSH1 0x8 PUSH1 0x0 SWAP1 SLOAD SWAP1 PUSH2 0x100 EXP SWAP1 DIV PUSH20 0xFFFFFFFFFFFFFFFFFFFFFFFFFFFFFFFFFFFFFFFF AND DUP2 JUMP JUMPDEST PUSH1 0x9 PUSH1 0x0 SWAP1 SLOAD SWAP1 PUSH2 0x100 EXP SWAP1 DIV PUSH20 0xFFFFFFFFFFFFFFFFFFFFFFFFFFFFFFFFFFFFFFFF AND DUP2 JUMP JUMPDEST PUSH1 0x0 PUSH2 0x620 PUSH2 0x5C1 JUMP JUMPDEST PUSH1 0xFF AND PUSH1 0xA PUSH2 0x62F SWAP2 SWAP1 PUSH2 0x148D JUMP JUMPDEST PUSH2 0x637 PUSH2 0x557 JUMP JUMPDEST PUSH2 0x641 SWAP2 SWAP1 PUSH2 0x1507 JUMP JUMPDEST SWAP1 POP SWAP1 JUMP JUMPDEST PUSH1 0x0 PUSH1 0xB PUSH1 0x0 DUP4 PUSH20 0xFFFFFFFFFFFFFFFFFFFFFFFFFFFFFFFFFFFFFFFF AND PUSH20 0xFFFFFFFFFFFFFFFFFFFFFFFFFFFFFFFFFFFFFFFF AND DUP2 MSTORE PUSH1 0x20 ADD SWAP1 DUP2 MSTORE PUSH1 0x20 ADD PUSH1 0x0 KECCAK256 SLOAD SWAP1 POP SWAP2 SWAP1 POP JUMP JUMPDEST PUSH1 0x2 PUSH1 0x20 MSTORE DUP1 PUSH1 0x0 MSTORE PUSH1 0x40 PUSH1 0x0 KECCAK256 PUSH1 0x0 SWAP2 POP SWAP1 POP SLOAD DUP2 JUMP JUMPDEST PUSH1 0x60 PUSH1 0xF DUP1 SLOAD PUSH2 0x6B6 SWAP1 PUSH2 0x12FA JUMP JUMPDEST DUP1 PUSH1 0x1F ADD PUSH1 0x20 DUP1 SWAP2 DIV MUL PUSH1 0x20 ADD PUSH1 0x40 MLOAD SWAP1 DUP2 ADD PUSH1 0x40 MSTORE DUP1 SWAP3 SWAP2 SWAP1 DUP2 DUP2 MSTORE PUSH1 0x20 ADD DUP3 DUP1 SLOAD PUSH2 0x6E2 SWAP1 PUSH2 0x12FA JUMP JUMPDEST DUP1 ISZERO PUSH2 0x72F JUMPI DUP1 PUSH1 0x1F LT PUSH2 0x704 JUMPI PUSH2 0x100 DUP1 DUP4 SLOAD DIV MUL DUP4 MSTORE SWAP2 PUSH1 0x20 ADD SWAP2 PUSH2 0x72F JUMP JUMPDEST DUP3 ADD SWAP2 SWAP1 PUSH1 0x0 MSTORE PUSH1 0x20 PUSH1 0x0 KECCAK256 SWAP1 JUMPDEST DUP2 SLOAD DUP2 MSTORE SWAP1 PUSH1 0x1 ADD SWAP1 PUSH1 0x20 ADD DUP1 DUP4 GT PUSH2 0x712 JUMPI DUP3 SWAP1 SUB PUSH1 0x1F AND DUP3 ADD SWAP2 JUMPDEST POP POP POP POP POP SWAP1 POP SWAP1 JUMP JUMPDEST PUSH1 0x0 DUP1 PUSH2 0x744 PUSH2 0x982 JUMP JUMPDEST SWAP1 POP PUSH2 0x751 DUP2 DUP6 DUP6 PUSH2 0xA31 JUMP JUMPDEST PUSH1 0x1 SWAP2 POP POP SWAP3 SWAP2 POP POP JUMP JUMPDEST PUSH1 0xA SLOAD DUP2 JUMP JUMPDEST PUSH1 0x1 SLOAD DUP2 JUMP JUMPDEST PUSH1 0x6 PUSH1 0x20 MSTORE DUP1 PUSH1 0x0 MSTORE PUSH1 0x40 PUSH1 0x0 KECCAK256 PUSH1 0x0 SWAP2 POP SLOAD SWAP1 PUSH2 0x100 EXP SWAP1 DIV PUSH20 0xFFFFFFFFFFFFFFFFFFFFFFFFFFFFFFFFFFFFFFFF AND DUP2 JUMP JUMPDEST PUSH1 0x0 PUSH1 0xC PUSH1 0x0 DUP5 PUSH20 0xFFFFFFFFFFFFFFFFFFFFFFFFFFFFFFFFFFFFFFFF AND PUSH20 0xFFFFFFFFFFFFFFFFFFFFFFFFFFFFFFFFFFFFFFFF AND DUP2 MSTORE PUSH1 0x20 ADD SWAP1 DUP2 MSTORE PUSH1 0x20 ADD PUSH1 0x0 KECCAK256 PUSH1 0x0 DUP4 PUSH20 0xFFFFFFFFFFFFFFFFFFFFFFFFFFFFFFFFFFFFFFFF AND PUSH20 0xFFFFFFFFFFFFFFFFFFFFFFFFFFFFFFFFFFFFFFFF AND DUP2 MSTORE PUSH1 0x20 ADD SWAP1 DUP2 MSTORE PUSH1 0x20 ADD PUSH1 0x0 KECCAK256 SLOAD SWAP1 POP SWAP3 SWAP2 POP POP JUMP JUMPDEST PUSH1 0x4 PUSH1 0x0 SWAP1 SLOAD SWAP1 PUSH2 0x100 EXP SWAP1 DIV PUSH20 0xFFFFFFFFFFFFFFFFFFFFFFFFFFFFFFFFFFFFFFFF AND DUP2 JUMP JUMPDEST PUSH1 0x0 PUSH1 0x20 MSTORE DUP1 PUSH1 0x0 MSTORE PUSH1 0x40 PUSH1 0x0 KECCAK256 PUSH1 0x0 SWAP2 POP SWAP1 POP DUP1 PUSH1 0x0 ADD DUP1 SLOAD PUSH2 0x86B SWAP1 PUSH2 0x12FA JUMP JUMPDEST DUP1 PUSH1 0x1F ADD PUSH1 0x20 DUP1 SWAP2 DIV MUL PUSH1 0x20 ADD PUSH1 0x40 MLOAD SWAP1 DUP2 ADD PUSH1 0x40 MSTORE DUP1 SWAP3 SWAP2 SWAP1 DUP2 DUP2 MSTORE PUSH1 0x20 ADD DUP3 DUP1 SLOAD PUSH2 0x897 SWAP1 PUSH2 0x12FA JUMP JUMPDEST DUP1 ISZERO PUSH2 0x8E4 JUMPI DUP1 PUSH1 0x1F LT PUSH2 0x8B9 JUMPI PUSH2 0x100 DUP1 DUP4 SLOAD DIV MUL DUP4 MSTORE SWAP2 PUSH1 0x20 ADD SWAP2 PUSH2 0x8E4 JUMP JUMPDEST DUP3 ADD SWAP2 SWAP1 PUSH1 0x0 MSTORE PUSH1 0x20 PUSH1 0x0 KECCAK256 SWAP1 JUMPDEST DUP2 SLOAD DUP2 MSTORE SWAP1 PUSH1 0x1 ADD SWAP1 PUSH1 0x20 ADD DUP1 DUP4 GT PUSH2 0x8C7 JUMPI DUP3 SWAP1 SUB PUSH1 0x1F AND DUP3 ADD SWAP2 JUMPDEST POP POP POP POP POP SWAP1 DUP1 PUSH1 0x1 ADD DUP1 SLOAD PUSH2 0x8F9 SWAP1 PUSH2 0x12FA JUMP JUMPDEST DUP1 PUSH1 0x1F ADD PUSH1 0x20 DUP1 SWAP2 DIV MUL PUSH1 0x20 ADD PUSH1 0x40 MLOAD SWAP1 DUP2 ADD PUSH1 0x40 MSTORE DUP1 SWAP3 SWAP2 SWAP1 DUP2 DUP2 MSTORE PUSH1 0x20 ADD DUP3 DUP1 SLOAD PUSH2 0x925 SWAP1 PUSH2 0x12FA JUMP JUMPDEST DUP1 ISZERO PUSH2 0x972 JUMPI DUP1 PUSH1 0x1F LT PUSH2 0x947 JUMPI PUSH2 0x100 DUP1 DUP4 SLOAD DIV MUL DUP4 MSTORE SWAP2 PUSH1 0x20 ADD SWAP2 PUSH2 0x972 JUMP JUMPDEST DUP3 ADD SWAP2 SWAP1 PUSH1 0x0 MSTORE PUSH1 0x20 PUSH1 0x0 KECCAK256 SWAP1 JUMPDEST DUP2 SLOAD DUP2 MSTORE SWAP1 PUSH1 0x1 ADD SWAP1 PUSH1 0x20 ADD DUP1 DUP4 GT PUSH2 0x955 JUMPI DUP3 SWAP1 SUB PUSH1 0x1F AND DUP3 ADD SWAP2 JUMPDEST POP POP POP POP POP SWAP1 DUP1 PUSH1 0x2 ADD SLOAD SWAP1 POP DUP4 JUMP JUMPDEST PUSH1 0x0 CALLER SWAP1 POP SWAP1 JUMP JUMPDEST PUSH2 0x997 DUP4 DUP4 DUP4 PUSH1 0x1 PUSH2 0xB25 JUMP JUMPDEST POP POP POP JUMP JUMPDEST PUSH1 0x0 PUSH2 0x9A8 DUP5 DUP5 PUSH2 0x79B JUMP JUMPDEST SWAP1 POP PUSH32 0xFFFFFFFFFFFFFFFFFFFFFFFFFFFFFFFFFFFFFFFFFFFFFFFFFFFFFFFFFFFFFFFF DUP2 LT ISZERO PUSH2 0xA2B JUMPI DUP2 DUP2 LT ISZERO PUSH2 0xA1B JUMPI DUP3 DUP2 DUP4 PUSH1 0x40 MLOAD PUSH32 0xFB8F41B200000000000000000000000000000000000000000000000000000000 DUP2 MSTORE PUSH1 0x4 ADD PUSH2 0xA12 SWAP4 SWAP3 SWAP2 SWAP1 PUSH2 0x1538 JUMP JUMPDEST PUSH1 0x40 MLOAD DUP1 SWAP2 SUB SWAP1 REVERT JUMPDEST PUSH2 0xA2A DUP5 DUP5 DUP5 DUP5 SUB PUSH1 0x0 PUSH2 0xB25 JUMP JUMPDEST JUMPDEST POP POP POP POP JUMP JUMPDEST PUSH1 0x0 PUSH20 0xFFFFFFFFFFFFFFFFFFFFFFFFFFFFFFFFFFFFFFFF AND DUP4 PUSH20 0xFFFFFFFFFFFFFFFFFFFFFFFFFFFFFFFFFFFFFFFF AND SUB PUSH2 0xAA3 JUMPI PUSH1 0x0 PUSH1 0x40 MLOAD PUSH32 0x96C6FD1E00000000000000000000000000000000000000000000000000000000 DUP2 MSTORE PUSH1 0x4 ADD PUSH2 0xA9A SWAP2 SWAP1 PUSH2 0x1121 JUMP JUMPDEST PUSH1 0x40 MLOAD DUP1 SWAP2 SUB SWAP1 REVERT JUMPDEST PUSH1 0x0 PUSH20 0xFFFFFFFFFFFFFFFFFFFFFFFFFFFFFFFFFFFFFFFF AND DUP3 PUSH20 0xFFFFFFFFFFFFFFFFFFFFFFFFFFFFFFFFFFFFFFFF AND SUB PUSH2 0xB15 JUMPI PUSH1 0x0 PUSH1 0x40 MLOAD PUSH32 0xEC442F0500000000000000000000000000000000000000000000000000000000 DUP2 MSTORE PUSH1 0x4 ADD PUSH2 0xB0C SWAP2 SWAP1 PUSH2 0x1121 JUMP JUMPDEST PUSH1 0x40 MLOAD DUP1 SWAP2 SUB SWAP1 REVERT JUMPDEST PUSH2 0xB20 DUP4 DUP4 DUP4 PUSH2 0xCFC JUMP JUMPDEST POP POP POP JUMP JUMPDEST PUSH1 0x0 PUSH20 0xFFFFFFFFFFFFFFFFFFFFFFFFFFFFFFFFFFFFFFFF AND DUP5 PUSH20 0xFFFFFFFFFFFFFFFFFFFFFFFFFFFFFFFFFFFFFFFF AND SUB PUSH2 0xB97 JUMPI PUSH1 0x0 PUSH1 0x40 MLOAD PUSH32 0xE602DF0500000000000000000000000000000000000000000000000000000000 DUP2 MSTORE PUSH1 0x4 ADD PUSH2 0xB8E SWAP2 SWAP1 PUSH2 0x1121 JUMP JUMPDEST PUSH1 0x40 MLOAD DUP1 SWAP2 SUB SWAP1 REVERT JUMPDEST PUSH1 0x0 PUSH20 0xFFFFFFFFFFFFFFFFFFFFFFFFFFFFFFFFFFFFFFFF AND DUP4 PUSH20 0xFFFFFFFFFFFFFFFFFFFFFFFFFFFFFFFFFFFFFFFF AND SUB PUSH2 0xC09 JUMPI PUSH1 0x0 PUSH1 0x40 MLOAD PUSH32 0x94280D6200000000000000000000000000000000000000000000000000000000 DUP2 MSTORE PUSH1 0x4 ADD PUSH2 0xC00 SWAP2 SWAP1 PUSH2 0x1121 JUMP JUMPDEST PUSH1 0x40 MLOAD DUP1 SWAP2 SUB SWAP1 REVERT JUMPDEST DUP2 PUSH1 0xC PUSH1 0x0 DUP7 PUSH20 0xFFFFFFFFFFFFFFFFFFFFFFFFFFFFFFFFFFFFFFFF AND PUSH20 0xFFFFFFFFFFFFFFFFFFFFFFFFFFFFFFFFFFFFFFFF AND DUP2 MSTORE PUSH1 0x20 ADD SWAP1 DUP2 MSTORE PUSH1 0x20 ADD PUSH1 0x0 KECCAK256 PUSH1 0x0 DUP6 PUSH20 0xFFFFFFFFFFFFFFFFFFFFFFFFFFFFFFFFFFFFFFFF AND PUSH20 0xFFFFFFFFFFFFFFFFFFFFFFFFFFFFFFFFFFFFFFFF AND DUP2 MSTORE PUSH1 0x20 ADD SWAP1 DUP2 MSTORE PUSH1 0x20 ADD PUSH1 0x0 KECCAK256 DUP2 SWAP1 SSTORE POP DUP1 ISZERO PUSH2 0xCF6 JUMPI DUP3 PUSH20 0xFFFFFFFFFFFFFFFFFFFFFFFFFFFFFFFFFFFFFFFF AND DUP5 PUSH20 0xFFFFFFFFFFFFFFFFFFFFFFFFFFFFFFFFFFFFFFFF AND PUSH32 0x8C5BE1E5EBEC7D5BD14F71427D1E84F3DD0314C0F7B2291E5B200AC8C7C3B925 DUP5 PUSH1 0x40 MLOAD PUSH2 0xCED SWAP2 SWAP1 PUSH2 0x114B JUMP JUMPDEST PUSH1 0x40 MLOAD DUP1 SWAP2 SUB SWAP1 LOG3 JUMPDEST POP POP POP POP JUMP JUMPDEST PUSH1 0x0 PUSH20 0xFFFFFFFFFFFFFFFFFFFFFFFFFFFFFFFFFFFFFFFF AND DUP4 PUSH20 0xFFFFFFFFFFFFFFFFFFFFFFFFFFFFFFFFFFFFFFFF AND SUB PUSH2 0xD4E JUMPI DUP1 PUSH1 0xD PUSH1 0x0 DUP3 DUP3 SLOAD PUSH2 0xD42 SWAP2 SWAP1 PUSH2 0x156F JUMP JUMPDEST SWAP3 POP POP DUP2 SWAP1 SSTORE POP PUSH2 0xE23 JUMP JUMPDEST PUSH1 0x0 PUSH1 0xB PUSH1 0x0 DUP6 PUSH20 0xFFFFFFFFFFFFFFFFFFFFFFFFFFFFFFFFFFFFFFFF AND PUSH20 0xFFFFFFFFFFFFFFFFFFFFFFFFFFFFFFFFFFFFFFFF AND DUP2 MSTORE PUSH1 0x20 ADD SWAP1 DUP2 MSTORE PUSH1 0x20 ADD PUSH1 0x0 KECCAK256 SLOAD SWAP1 POP DUP2 DUP2 LT ISZERO PUSH2 0xDDB JUMPI DUP4 DUP2 DUP4 PUSH1 0x40 MLOAD PUSH32 0xE450D38C00000000000000000000000000000000000000000000000000000000 DUP2 MSTORE PUSH1 0x4 ADD PUSH2 0xDD2 SWAP4 SWAP3 SWAP2 SWAP1 PUSH2 0x1538 JUMP JUMPDEST PUSH1 0x40 MLOAD DUP1 SWAP2 SUB SWAP1 REVERT JUMPDEST DUP2 DUP2 SUB PUSH1 0xB PUSH1 0x0 DUP7 PUSH20 0xFFFFFFFFFFFFFFFFFFFFFFFFFFFFFFFFFFFFFFFF AND PUSH20 0xFFFFFFFFFFFFFFFFFFFFFFFFFFFFFFFFFFFFFFFF AND DUP2 MSTORE PUSH1 0x20 ADD SWAP1 DUP2 MSTORE PUSH1 0x20 ADD PUSH1 0x0 KECCAK256 DUP2 SWAP1 SSTORE POP POP JUMPDEST PUSH1 0x0 PUSH20 0xFFFFFFFFFFFFFFFFFFFFFFFFFFFFFFFFFFFFFFFF AND DUP3 PUSH20 0xFFFFFFFFFFFFFFFFFFFFFFFFFFFFFFFFFFFFFFFF AND SUB PUSH2 0xE6C JUMPI DUP1 PUSH1 0xD PUSH1 0x0 DUP3 DUP3 SLOAD SUB SWAP3 POP POP DUP2 SWAP1 SSTORE POP PUSH2 0xEBA JUMP JUMPDEST DUP1 PUSH1 0xB PUSH1 0x0 DUP5 PUSH20 0xFFFFFFFFFFFFFFFFFFFFFFFFFFFFFFFFFFFFFFFF AND PUSH20 0xFFFFFFFFFFFFFFFFFFFFFFFFFFFFFFFFFFFFFFFF AND DUP2 MSTORE PUSH1 0x20 ADD SWAP1 DUP2 MSTORE PUSH1 0x20 ADD PUSH1 0x0 KECCAK256 PUSH1 0x0 DUP3 DUP3 SLOAD ADD SWAP3 POP POP DUP2 SWAP1 SSTORE POP JUMPDEST DUP2 PUSH20 0xFFFFFFFFFFFFFFFFFFFFFFFFFFFFFFFFFFFFFFFF AND DUP4 PUSH20 0xFFFFFFFFFFFFFFFFFFFFFFFFFFFFFFFFFFFFFFFF AND PUSH32 0xDDF252AD1BE2C89B69C2B068FC378DAA952BA7F163C4A11628F55A4DF523B3EF DUP4 PUSH1 0x40 MLOAD PUSH2 0xF17 SWAP2 SWAP1 PUSH2 0x114B JUMP JUMPDEST PUSH1 0x40 MLOAD DUP1 SWAP2 SUB SWAP1 LOG3 POP POP POP JUMP JUMPDEST PUSH1 0x0 DUP2 MLOAD SWAP1 POP SWAP2 SWAP1 POP JUMP JUMPDEST PUSH1 0x0 DUP3 DUP3 MSTORE PUSH1 0x20 DUP3 ADD SWAP1 POP SWAP3 SWAP2 POP POP JUMP JUMPDEST PUSH1 0x0 JUMPDEST DUP4 DUP2 LT ISZERO PUSH2 0xF5E JUMPI DUP1 DUP3 ADD MLOAD DUP2 DUP5 ADD MSTORE PUSH1 0x20 DUP2 ADD SWAP1 POP PUSH2 0xF43 JUMP JUMPDEST PUSH1 0x0 DUP5 DUP5 ADD MSTORE POP POP POP POP JUMP JUMPDEST PUSH1 0x0 PUSH1 0x1F NOT PUSH1 0x1F DUP4 ADD AND SWAP1 POP SWAP2 SWAP1 POP JUMP JUMPDEST PUSH1 0x0 PUSH2 0xF86 DUP3 PUSH2 0xF24 JUMP JUMPDEST PUSH2 0xF90 DUP2 DUP6 PUSH2 0xF2F JUMP JUMPDEST SWAP4 POP PUSH2 0xFA0 DUP2 DUP6 PUSH1 0x20 DUP7 ADD PUSH2 0xF40 JUMP JUMPDEST PUSH2 0xFA9 DUP2 PUSH2 0xF6A JUMP JUMPDEST DUP5 ADD SWAP2 POP POP SWAP3 SWAP2 POP POP JUMP JUMPDEST PUSH1 0x0 PUSH1 0x20 DUP3 ADD SWAP1 POP DUP2 DUP2 SUB PUSH1 0x0 DUP4 ADD MSTORE PUSH2 0xFCE DUP2 DUP5 PUSH2 0xF7B JUMP JUMPDEST SWAP1 POP SWAP3 SWAP2 POP POP JUMP JUMPDEST PUSH1 0x0 DUP1 REVERT JUMPDEST PUSH1 0x0 PUSH20 0xFFFFFFFFFFFFFFFFFFFFFFFFFFFFFFFFFFFFFFFF DUP3 AND SWAP1 POP SWAP2 SWAP1 POP JUMP JUMPDEST PUSH1 0x0 PUSH2 0x1006 DUP3 PUSH2 0xFDB JUMP JUMPDEST SWAP1 POP SWAP2 SWAP1 POP JUMP JUMPDEST PUSH2 0x1016 DUP2 PUSH2 0xFFB JUMP JUMPDEST DUP2 EQ PUSH2 0x1021 JUMPI PUSH1 0x0 DUP1 REVERT JUMPDEST POP JUMP JUMPDEST PUSH1 0x0 DUP2 CALLDATALOAD SWAP1 POP PUSH2 0x1033 DUP2 PUSH2 0x100D JUMP JUMPDEST SWAP3 SWAP2 POP POP JUMP JUMPDEST PUSH1 0x0 DUP2 SWAP1 POP SWAP2 SWAP1 POP JUMP JUMPDEST PUSH2 0x104C DUP2 PUSH2 0x1039 JUMP JUMPDEST DUP2 EQ PUSH2 0x1057 JUMPI PUSH1 0x0 DUP1 REVERT JUMPDEST POP JUMP JUMPDEST PUSH1 0x0 DUP2 CALLDATALOAD SWAP1 POP PUSH2 0x1069 DUP2 PUSH2 0x1043 JUMP JUMPDEST SWAP3 SWAP2 POP POP JUMP JUMPDEST PUSH1 0x0 DUP1 PUSH1 0x40 DUP4 DUP6 SUB SLT ISZERO PUSH2 0x1086 JUMPI PUSH2 0x1085 PUSH2 0xFD6 JUMP JUMPDEST JUMPDEST PUSH1 0x0 PUSH2 0x1094 DUP6 DUP3 DUP7 ADD PUSH2 0x1024 JUMP JUMPDEST SWAP3 POP POP PUSH1 0x20 PUSH2 0x10A5 DUP6 DUP3 DUP7 ADD PUSH2 0x105A JUMP JUMPDEST SWAP2 POP POP SWAP3 POP SWAP3 SWAP1 POP JUMP JUMPDEST PUSH1 0x0 DUP2 ISZERO ISZERO SWAP1 POP SWAP2 SWAP1 POP JUMP JUMPDEST PUSH2 0x10C4 DUP2 PUSH2 0x10AF JUMP JUMPDEST DUP3 MSTORE POP POP JUMP JUMPDEST PUSH1 0x0 PUSH1 0x20 DUP3 ADD SWAP1 POP PUSH2 0x10DF PUSH1 0x0 DUP4 ADD DUP5 PUSH2 0x10BB JUMP JUMPDEST SWAP3 SWAP2 POP POP JUMP JUMPDEST PUSH1 0x0 PUSH1 0x20 DUP3 DUP5 SUB SLT ISZERO PUSH2 0x10FB JUMPI PUSH2 0x10FA PUSH2 0xFD6 JUMP JUMPDEST JUMPDEST PUSH1 0x0 PUSH2 0x1109 DUP5 DUP3 DUP6 ADD PUSH2 0x105A JUMP JUMPDEST SWAP2 POP POP SWAP3 SWAP2 POP POP JUMP JUMPDEST PUSH2 0x111B DUP2 PUSH2 0xFFB JUMP JUMPDEST DUP3 MSTORE POP POP JUMP JUMPDEST PUSH1 0x0 PUSH1 0x20 DUP3 ADD SWAP1 POP PUSH2 0x1136 PUSH1 0x0 DUP4 ADD DUP5 PUSH2 0x1112 JUMP JUMPDEST SWAP3 SWAP2 POP POP JUMP JUMPDEST PUSH2 0x1145 DUP2 PUSH2 0x1039 JUMP JUMPDEST DUP3 MSTORE POP POP JUMP JUMPDEST PUSH1 0x0 PUSH1 0x20 DUP3 ADD SWAP1 POP PUSH2 0x1160 PUSH1 0x0 DUP4 ADD DUP5 PUSH2 0x113C JUMP JUMPDEST SWAP3 SWAP2 POP POP JUMP JUMPDEST PUSH1 0x0 DUP1 PUSH1 0x0 PUSH1 0x60 DUP5 DUP7 SUB SLT ISZERO PUSH2 0x117F JUMPI PUSH2 0x117E PUSH2 0xFD6 JUMP JUMPDEST JUMPDEST PUSH1 0x0 PUSH2 0x118D DUP7 DUP3 DUP8 ADD PUSH2 0x1024 JUMP JUMPDEST SWAP4 POP POP PUSH1 0x20 PUSH2 0x119E DUP7 DUP3 DUP8 ADD PUSH2 0x1024 JUMP JUMPDEST SWAP3 POP POP PUSH1 0x40 PUSH2 0x11AF DUP7 DUP3 DUP8 ADD PUSH2 0x105A JUMP JUMPDEST SWAP2 POP POP SWAP3 POP SWAP3 POP SWAP3 JUMP JUMPDEST PUSH1 0x0 PUSH1 0x40 DUP3 ADD SWAP1 POP PUSH2 0x11CE PUSH1 0x0 DUP4 ADD DUP6 PUSH2 0x113C JUMP JUMPDEST PUSH2 0x11DB PUSH1 0x20 DUP4 ADD DUP5 PUSH2 0x10BB JUMP JUMPDEST SWAP4 SWAP3 POP POP POP JUMP JUMPDEST PUSH1 0x0 PUSH1 0xFF DUP3 AND SWAP1 POP SWAP2 SWAP1 POP JUMP JUMPDEST PUSH2 0x11F8 DUP2 PUSH2 0x11E2 JUMP JUMPDEST DUP3 MSTORE POP POP JUMP JUMPDEST PUSH1 0x0 PUSH1 0x20 DUP3 ADD SWAP1 POP PUSH2 0x1213 PUSH1 0x0 DUP4 ADD DUP5 PUSH2 0x11EF JUMP JUMPDEST SWAP3 SWAP2 POP POP JUMP JUMPDEST PUSH1 0x0 PUSH1 0x20 DUP3 DUP5 SUB SLT ISZERO PUSH2 0x122F JUMPI PUSH2 0x122E PUSH2 0xFD6 JUMP JUMPDEST JUMPDEST PUSH1 0x0 PUSH2 0x123D DUP5 DUP3 DUP6 ADD PUSH2 0x1024 JUMP JUMPDEST SWAP2 POP POP SWAP3 SWAP2 POP POP JUMP JUMPDEST PUSH1 0x0 DUP1 PUSH1 0x40 DUP4 DUP6 SUB SLT ISZERO PUSH2 0x125D JUMPI PUSH2 0x125C PUSH2 0xFD6 JUMP JUMPDEST JUMPDEST PUSH1 0x0 PUSH2 0x126B DUP6 DUP3 DUP7 ADD PUSH2 0x1024 JUMP JUMPDEST SWAP3 POP POP PUSH1 0x20 PUSH2 0x127C DUP6 DUP3 DUP7 ADD PUSH2 0x1024 JUMP JUMPDEST SWAP2 POP POP SWAP3 POP SWAP3 SWAP1 POP JUMP JUMPDEST PUSH1 0x0 PUSH1 0x60 DUP3 ADD SWAP1 POP DUP2 DUP2 SUB PUSH1 0x0 DUP4 ADD MSTORE PUSH2 0x12A0 DUP2 DUP7 PUSH2 0xF7B JUMP JUMPDEST SWAP1 POP DUP2 DUP2 SUB PUSH1 0x20 DUP4 ADD MSTORE PUSH2 0x12B4 DUP2 DUP6 PUSH2 0xF7B JUMP JUMPDEST SWAP1 POP PUSH2 0x12C3 PUSH1 0x40 DUP4 ADD DUP5 PUSH2 0x113C JUMP JUMPDEST SWAP5 SWAP4 POP POP POP POP JUMP JUMPDEST PUSH32 0x4E487B7100000000000000000000000000000000000000000000000000000000 PUSH1 0x0 MSTORE PUSH1 0x22 PUSH1 0x4 MSTORE PUSH1 0x24 PUSH1 0x0 REVERT JUMPDEST PUSH1 0x0 PUSH1 0x2 DUP3 DIV SWAP1 POP PUSH1 0x1 DUP3 AND DUP1 PUSH2 0x1312 JUMPI PUSH1 0x7F DUP3 AND SWAP2 POP JUMPDEST PUSH1 0x20 DUP3 LT DUP2 SUB PUSH2 0x1325 JUMPI PUSH2 0x1324 PUSH2 0x12CB JUMP JUMPDEST JUMPDEST POP SWAP2 SWAP1 POP JUMP JUMPDEST PUSH32 0x4E487B7100000000000000000000000000000000000000000000000000000000 PUSH1 0x0 MSTORE PUSH1 0x11 PUSH1 0x4 MSTORE PUSH1 0x24 PUSH1 0x0 REVERT JUMPDEST PUSH1 0x0 DUP2 PUSH1 0x1 SHR SWAP1 POP SWAP2 SWAP1 POP JUMP JUMPDEST PUSH1 0x0 DUP1 DUP3 SWAP2 POP DUP4 SWAP1 POP JUMPDEST PUSH1 0x1 DUP6 GT ISZERO PUSH2 0x13B1 JUMPI DUP1 DUP7 DIV DUP2 GT ISZERO PUSH2 0x138D JUMPI PUSH2 0x138C PUSH2 0x132B JUMP JUMPDEST JUMPDEST PUSH1 0x1 DUP6 AND ISZERO PUSH2 0x139C JUMPI DUP1 DUP3 MUL SWAP2 POP JUMPDEST DUP1 DUP2 MUL SWAP1 POP PUSH2 0x13AA DUP6 PUSH2 0x135A JUMP JUMPDEST SWAP5 POP PUSH2 0x1371 JUMP JUMPDEST SWAP5 POP SWAP5 SWAP3 POP POP POP JUMP JUMPDEST PUSH1 0x0 DUP3 PUSH2 0x13CA JUMPI PUSH1 0x1 SWAP1 POP PUSH2 0x1486 JUMP JUMPDEST DUP2 PUSH2 0x13D8 JUMPI PUSH1 0x0 SWAP1 POP PUSH2 0x1486 JUMP JUMPDEST DUP2 PUSH1 0x1 DUP2 EQ PUSH2 0x13EE JUMPI PUSH1 0x2 DUP2 EQ PUSH2 0x13F8 JUMPI PUSH2 0x1427 JUMP JUMPDEST PUSH1 0x1 SWAP2 POP POP PUSH2 0x1486 JUMP JUMPDEST PUSH1 0xFF DUP5 GT ISZERO PUSH2 0x140A JUMPI PUSH2 0x1409 PUSH2 0x132B JUMP JUMPDEST JUMPDEST DUP4 PUSH1 0x2 EXP SWAP2 POP DUP5 DUP3 GT ISZERO PUSH2 0x1421 JUMPI PUSH2 0x1420 PUSH2 0x132B JUMP JUMPDEST JUMPDEST POP PUSH2 0x1486 JUMP JUMPDEST POP PUSH1 0x20 DUP4 LT PUSH2 0x133 DUP4 LT AND PUSH1 0x4E DUP5 LT PUSH1 0xB DUP5 LT AND OR ISZERO PUSH2 0x145C JUMPI DUP3 DUP3 EXP SWAP1 POP DUP4 DUP2 GT ISZERO PUSH2 0x1457 JUMPI PUSH2 0x1456 PUSH2 0x132B JUMP JUMPDEST JUMPDEST PUSH2 0x1486 JUMP JUMPDEST PUSH2 0x1469 DUP5 DUP5 DUP5 PUSH1 0x1 PUSH2 0x1367 JUMP JUMPDEST SWAP3 POP SWAP1 POP DUP2 DUP5 DIV DUP2 GT ISZERO PUSH2 0x1480 JUMPI PUSH2 0x147F PUSH2 0x132B JUMP JUMPDEST JUMPDEST DUP2 DUP2 MUL SWAP1 POP JUMPDEST SWAP4 SWAP3 POP POP POP JUMP JUMPDEST PUSH1 0x0 PUSH2 0x1498 DUP3 PUSH2 0x1039 JUMP JUMPDEST SWAP2 POP PUSH2 0x14A3 DUP4 PUSH2 0x1039 JUMP JUMPDEST SWAP3 POP PUSH2 0x14D0 PUSH32 0xFFFFFFFFFFFFFFFFFFFFFFFFFFFFFFFFFFFFFFFFFFFFFFFFFFFFFFFFFFFFFFFF DUP5 DUP5 PUSH2 0x13BA JUMP JUMPDEST SWAP1 POP SWAP3 SWAP2 POP POP JUMP JUMPDEST PUSH32 0x4E487B7100000000000000000000000000000000000000000000000000000000 PUSH1 0x0 MSTORE PUSH1 0x12 PUSH1 0x4 MSTORE PUSH1 0x24 PUSH1 0x0 REVERT JUMPDEST PUSH1 0x0 PUSH2 0x1512 DUP3 PUSH2 0x1039 JUMP JUMPDEST SWAP2 POP PUSH2 0x151D DUP4 PUSH2 0x1039 JUMP JUMPDEST SWAP3 POP DUP3 PUSH2 0x152D JUMPI PUSH2 0x152C PUSH2 0x14D8 JUMP JUMPDEST JUMPDEST DUP3 DUP3 DIV SWAP1 POP SWAP3 SWAP2 POP POP JUMP JUMPDEST PUSH1 0x0 PUSH1 0x60 DUP3 ADD SWAP1 POP PUSH2 0x154D PUSH1 0x0 DUP4 ADD DUP7 PUSH2 0x1112 JUMP JUMPDEST PUSH2 0x155A PUSH1 0x20 DUP4 ADD DUP6 PUSH2 0x113C JUMP JUMPDEST PUSH2 0x1567 PUSH1 0x40 DUP4 ADD DUP5 PUSH2 0x113C JUMP JUMPDEST SWAP5 SWAP4 POP POP POP POP JUMP JUMPDEST PUSH1 0x0 PUSH2 0x157A DUP3 PUSH2 0x1039 JUMP JUMPDEST SWAP2 POP PUSH2 0x1585 DUP4 PUSH2 0x1039 JUMP JUMPDEST SWAP3 POP DUP3 DUP3 ADD SWAP1 POP DUP1 DUP3 GT ISZERO PUSH2 0x159D JUMPI PUSH2 0x159C PUSH2 0x132B JUMP JUMPDEST JUMPDEST SWAP3 SWAP2 POP POP JUMP INVALID LOG2 PUSH5 0x6970667358 0x22 SLT KECCAK256 DUP10 LOG3 PUSH23 0x72383CF2EB189B8AB14A561BB0F46F211B22BF2C2F9B0F 0xEB 0xE1 SELFBALANCE 0x29 SSTORE 0xEE PUSH5 0x736F6C6343 STOP ADDMOD EQ STOP CALLER LOG2 PUSH5 0x6970667358 0x22 SLT KECCAK256 SELFDESTRUCT SWAP1 0xCD 0x4C PUSH9 0xE68D267D018D31DC0D 0xAB 0x4B 0x2E SMOD 0x2A SAR 0xB1 PUSH4 0x2EED12F1 0x22 0x21 0xE8 RETURNDATACOPY SWAP10 DUP5 PUSH5 0x736F6C6343 STOP ADDMOD EQ STOP CALLER "},"methodIdentifiers":{"buyFractions(uint256,uint256)":"ea370276","fractionContracts(uint256)":"12cda254","fractionSales(uint256)":"2d487d2f","manager()":"481c6a75","mintedSupply()":"c1bd8cf9","onERC721Received(address,address,uint256,bytes)":"150b7a02","owner()":"8da5cb5b","properties(uint256)":"f7b10808","propertyCounter()":"d090e47e","propertyDeed()":"359cd67b","propertyDeedAddress()":"f657a95d","propertyOwner(uint256)":"d1fedbc2","renounceOwnership()":"715018a6","setPropertyDeedAddress(address)":"f54e30e6","startDistribution(uint256,uint256)":"2e4da132","tokenId()":"17d70f7c","tokenizeProperty(string,string,uint256,uint256,string,string)":"1da0f203","totalFractions(uint256)":"766de47f","transferOwnership(address)":"f2fde38b","withdrawETH(address)":"690d8320"}}}}}