{
  "_format": "hh-sol-artifact-1",
  "contractName": "TokenizationManager",
  "sourceName": "contracts/TokenizationManager.sol",
  "abi": [
    {
      "inputs": [],
      "stateMutability": "nonpayable",
      "type": "constructor"
    },
    {
      "inputs": [
        {
          "internalType": "address",
          "name": "owner",
          "type": "address"
        }
      ],
      "name": "OwnableInvalidOwner",
      "type": "error"
    },
    {
      "inputs": [
        {
          "internalType": "address",
          "name": "account",
          "type": "address"
        }
      ],
      "name": "OwnableUnauthorizedAccount",
      "type": "error"
    },
    {
      "anonymous": false,
      "inputs": [
        {
          "indexed": true,
          "internalType": "uint256",
          "name": "propertyId",
          "type": "uint256"
        },
        {
          "indexed": true,
          "internalType": "address",
          "name": "buyer",
          "type": "address"
        },
        {
          "indexed": false,
          "internalType": "uint256",
          "name": "amount",
          "type": "uint256"
        },
        {
          "indexed": false,
          "internalType": "uint256",
          "name": "totalPaid",
          "type": "uint256"
        }
      ],
      "name": "FractionsPurchased",
      "type": "event"
    },
    {
      "anonymous": false,
      "inputs": [
        {
          "indexed": true,
          "internalType": "address",
          "name": "previousOwner",
          "type": "address"
        },
        {
          "indexed": true,
          "internalType": "address",
          "name": "newOwner",
          "type": "address"
        }
      ],
      "name": "OwnershipTransferred",
      "type": "event"
    },
    {
      "anonymous": false,
      "inputs": [
        {
          "indexed": true,
          "internalType": "uint256",
          "name": "propertyId",
          "type": "uint256"
        },
        {
          "indexed": false,
          "internalType": "address",
          "name": "deedAddress",
          "type": "address"
        },
        {
          "indexed": false,
          "internalType": "address",
          "name": "fractionsAddress",
          "type": "address"
        },
        {
          "indexed": false,
          "internalType": "address",
          "name": "propertyOwner",
          "type": "address"
        }
      ],
      "name": "PropertyTokenized",
      "type": "event"
    },
    {
      "anonymous": false,
      "inputs": [
        {
          "indexed": true,
          "internalType": "uint256",
          "name": "propertyId",
          "type": "uint256"
        },
        {
          "indexed": false,
          "internalType": "uint256",
          "name": "pricePerFraction",
          "type": "uint256"
        }
      ],
      "name": "SaleStarted",
      "type": "event"
    },
    {
      "inputs": [
        {
          "internalType": "uint256",
          "name": "propertyId",
          "type": "uint256"
        },
        {
          "internalType": "uint256",
          "name": "numberOfFractions",
          "type": "uint256"
        }
      ],
      "name": "buyFractions",
      "outputs": [],
      "stateMutability": "payable",
      "type": "function"
    },
    {
      "inputs": [
        {
          "internalType": "uint256",
          "name": "",
          "type": "uint256"
        }
      ],
      "name": "fractionContracts",
      "outputs": [
        {
          "internalType": "address",
          "name": "",
          "type": "address"
        }
      ],
      "stateMutability": "view",
      "type": "function"
    },
    {
      "inputs": [
        {
          "internalType": "uint256",
          "name": "",
          "type": "uint256"
        }
      ],
      "name": "fractionSales",
      "outputs": [
        {
          "internalType": "uint256",
          "name": "pricePerFraction",
          "type": "uint256"
        },
        {
          "internalType": "bool",
          "name": "active",
          "type": "bool"
        }
      ],
      "stateMutability": "view",
      "type": "function"
    },
    {
      "inputs": [],
      "name": "manager",
      "outputs": [
        {
          "internalType": "address",
          "name": "",
          "type": "address"
        }
      ],
      "stateMutability": "view",
      "type": "function"
    },
    {
      "inputs": [],
      "name": "mintedSupply",
      "outputs": [
        {
          "internalType": "uint256",
          "name": "",
          "type": "uint256"
        }
      ],
      "stateMutability": "view",
      "type": "function"
    },
    {
      "inputs": [
        {
          "internalType": "address",
          "name": "",
          "type": "address"
        },
        {
          "internalType": "address",
          "name": "",
          "type": "address"
        },
        {
          "internalType": "uint256",
          "name": "",
          "type": "uint256"
        },
        {
          "internalType": "bytes",
          "name": "",
          "type": "bytes"
        }
      ],
      "name": "onERC721Received",
      "outputs": [
        {
          "internalType": "bytes4",
          "name": "",
          "type": "bytes4"
        }
      ],
      "stateMutability": "nonpayable",
      "type": "function"
    },
    {
      "inputs": [],
      "name": "owner",
      "outputs": [
        {
          "internalType": "address",
          "name": "",
          "type": "address"
        }
      ],
      "stateMutability": "view",
      "type": "function"
    },
    {
      "inputs": [
        {
          "internalType": "uint256",
          "name": "",
          "type": "uint256"
        }
      ],
      "name": "properties",
      "outputs": [
        {
          "internalType": "string",
          "name": "name",
          "type": "string"
        },
        {
          "internalType": "string",
          "name": "location",
          "type": "string"
        },
        {
          "internalType": "uint256",
          "name": "valuation",
          "type": "uint256"
        }
      ],
      "stateMutability": "view",
      "type": "function"
    },
    {
      "inputs": [],
      "name": "propertyCounter",
      "outputs": [
        {
          "internalType": "uint256",
          "name": "",
          "type": "uint256"
        }
      ],
      "stateMutability": "view",
      "type": "function"
    },
    {
      "inputs": [],
      "name": "propertyDeed",
      "outputs": [
        {
          "internalType": "address",
          "name": "",
          "type": "address"
        }
      ],
      "stateMutability": "view",
      "type": "function"
    },
    {
      "inputs": [],
      "name": "propertyDeedAddress",
      "outputs": [
        {
          "internalType": "address",
          "name": "",
          "type": "address"
        }
      ],
      "stateMutability": "view",
      "type": "function"
    },
    {
      "inputs": [
        {
          "internalType": "uint256",
          "name": "",
          "type": "uint256"
        }
      ],
      "name": "propertyOwner",
      "outputs": [
        {
          "internalType": "address",
          "name": "",
          "type": "address"
        }
      ],
      "stateMutability": "view",
      "type": "function"
    },
    {
      "inputs": [],
      "name": "renounceOwnership",
      "outputs": [],
      "stateMutability": "nonpayable",
      "type": "function"
    },
    {
      "inputs": [
        {
          "internalType": "address",
          "name": "_propertyDeed",
          "type": "address"
        }
      ],
      "name": "setPropertyDeedAddress",
      "outputs": [],
      "stateMutability": "nonpayable",
      "type": "function"
    },
    {
      "inputs": [
        {
          "internalType": "uint256",
          "name": "propertyId",
          "type": "uint256"
        },
        {
          "internalType": "uint256",
          "name": "pricePerFractionInWei",
          "type": "uint256"
        }
      ],
      "name": "startDistribution",
      "outputs": [],
      "stateMutability": "nonpayable",
      "type": "function"
    },
    {
      "inputs": [],
      "name": "tokenId",
      "outputs": [
        {
          "internalType": "uint256",
          "name": "",
          "type": "uint256"
        }
      ],
      "stateMutability": "view",
      "type": "function"
    },
    {
      "inputs": [
        {
          "internalType": "string",
          "name": "name",
          "type": "string"
        },
        {
          "internalType": "string",
          "name": "location",
          "type": "string"
        },
        {
          "internalType": "uint256",
          "name": "valuation",
          "type": "uint256"
        },
        {
          "internalType": "uint256",
          "name": "totalFractionsTokens",
          "type": "uint256"
        },
        {
          "internalType": "string",
          "name": "fractionName",
          "type": "string"
        },
        {
          "internalType": "string",
          "name": "fractionSymbol",
          "type": "string"
        }
      ],
      "name": "tokenizeProperty",
      "outputs": [],
      "stateMutability": "nonpayable",
      "type": "function"
    },
    {
      "inputs": [
        {
          "internalType": "uint256",
          "name": "",
          "type": "uint256"
        }
      ],
      "name": "totalFractions",
      "outputs": [
        {
          "internalType": "uint256",
          "name": "",
          "type": "uint256"
        }
      ],
      "stateMutability": "view",
      "type": "function"
    },
    {
      "inputs": [
        {
          "internalType": "address",
          "name": "newOwner",
          "type": "address"
        }
      ],
      "name": "transferOwnership",
      "outputs": [],
      "stateMutability": "nonpayable",
      "type": "function"
    },
    {
      "inputs": [
        {
          "internalType": "address payable",
          "name": "to",
          "type": "address"
        }
      ],
      "name": "withdrawETH",
      "outputs": [],
      "stateMutability": "nonpayable",
      "type": "function"
    },
    {
      "stateMutability": "payable",
      "type": "receive"
    }
  ],
  "bytecode": "0x60806040523480156200001157600080fd5b50336001600b81905550600073ffffffffffffffffffffffffffffffffffffffff168173ffffffffffffffffffffffffffffffffffffffff1603620000905760006040517f1e4fbdf7000000000000000000000000000000000000000000000000000000008152600401620000879190620001b3565b60405180910390fd5b620000a181620000a860201b60201c565b50620001d0565b6000600c60009054906101000a900473ffffffffffffffffffffffffffffffffffffffff16905081600c60006101000a81548173ffffffffffffffffffffffffffffffffffffffff021916908373ffffffffffffffffffffffffffffffffffffffff1602179055508173ffffffffffffffffffffffffffffffffffffffff168173ffffffffffffffffffffffffffffffffffffffff167f8be0079c531659141344cd1fd0a4f28419497f9722a3daafe3b4186f6b6457e060405160405180910390a35050565b600073ffffffffffffffffffffffffffffffffffffffff82169050919050565b60006200019b826200016e565b9050919050565b620001ad816200018e565b82525050565b6000602082019050620001ca6000830184620001a2565b92915050565b6156ea80620001e06000396000f3fe6080604052600436106200013f5760003560e01c8063766de47f11620000af578063ea370276116200006d578063ea3702761462000465578063f2fde38b1462000485578063f54e30e614620004b3578063f657a95d14620004e1578063f7b1080814620005115762000147565b8063766de47f146200034d5780638da5cb5b1462000391578063c1bd8cf914620003c1578063d090e47e14620003f1578063d1fedbc214620004215762000147565b80632e4da13211620000fd5780632e4da1321462000277578063359cd67b14620002a5578063481c6a7514620002d5578063690d83201462000305578063715018a614620003335762000147565b806312cda254146200014c578063150b7a02146200019057806317d70f7c14620001d45780631da0f20314620002045780632d487d2f14620002325762000147565b366200014757005b600080fd5b3480156200015957600080fd5b5062000178600480360381019062000172919062001999565b62000557565b60405162000187919062001a10565b60405180910390f35b3480156200019d57600080fd5b50620001bc6004803603810190620001b6919062001bc0565b6200058a565b604051620001cb919062001c8e565b60405180910390f35b348015620001e157600080fd5b50620001ec6200059e565b604051620001fb919062001cbc565b60405180910390f35b3480156200021157600080fd5b506200023060048036038101906200022a919062001d8d565b620005a4565b005b3480156200023f57600080fd5b506200025e600480360381019062000258919062001999565b62000ac4565b6040516200026e92919062001ec2565b60405180910390f35b3480156200028457600080fd5b50620002a360048036038101906200029d919062001eef565b62000af5565b005b348015620002b257600080fd5b50620002bd62000cd4565b604051620002cc919062001a10565b60405180910390f35b348015620002e257600080fd5b50620002ed62000cfa565b604051620002fc919062001a10565b60405180910390f35b3480156200031257600080fd5b506200033160048036038101906200032b919062001f7b565b62000d20565b005b3480156200034057600080fd5b506200034b62000de1565b005b3480156200035a57600080fd5b5062000379600480360381019062000373919062001999565b62000df9565b60405162000388919062001cbc565b60405180910390f35b3480156200039e57600080fd5b50620003a962000e11565b604051620003b8919062001a10565b60405180910390f35b348015620003ce57600080fd5b50620003d962000e3b565b604051620003e8919062001cbc565b60405180910390f35b348015620003fe57600080fd5b506200040962000e41565b60405162000418919062001cbc565b60405180910390f35b3480156200042e57600080fd5b506200044d600480360381019062000447919062001999565b62000e47565b6040516200045c919062001a10565b60405180910390f35b6200048360048036038101906200047d919062001eef565b62000e7a565b005b3480156200049257600080fd5b50620004b16004803603810190620004ab919062001fad565b62001521565b005b348015620004c057600080fd5b50620004df6004803603810190620004d9919062001fad565b620015ae565b005b348015620004ee57600080fd5b50620004f96200166e565b60405162000508919062001a10565b60405180910390f35b3480156200051e57600080fd5b506200053d600480360381019062000537919062001999565b62001694565b6040516200054e9392919062002068565b60405180910390f35b60036020528060005260406000206000915054906101000a900473ffffffffffffffffffffffffffffffffffffffff1681565b600063150b7a0260e01b9050949350505050565b60075481565b600073ffffffffffffffffffffffffffffffffffffffff16600460009054906101000a900473ffffffffffffffffffffffffffffffffffffffff1673ffffffffffffffffffffffffffffffffffffffff160362000638576040517f08c379a00000000000000000000000000000000000000000000000000000000081526004016200062f9062002103565b60405180910390fd5b600083116200067e576040517f08c379a0000000000000000000000000000000000000000000000000000000008152600401620006759062002175565b60405180910390fd5b3073ffffffffffffffffffffffffffffffffffffffff16600460009054906101000a900473ffffffffffffffffffffffffffffffffffffffff1673ffffffffffffffffffffffffffffffffffffffff16638da5cb5b6040518163ffffffff1660e01b8152600401602060405180830381865afa15801562000703573d6000803e3d6000fd5b505050506040513d601f19601f82011682018060405250810190620007299190620021ae565b73ffffffffffffffffffffffffffffffffffffffff161462000782576040517f08c379a0000000000000000000000000000000000000000000000000000000008152600401620007799062002256565b60405180910390fd5b6000600460009054906101000a900473ffffffffffffffffffffffffffffffffffffffff1673ffffffffffffffffffffffffffffffffffffffff1663f2364122308989896040518563ffffffff1660e01b8152600401620007e7949392919062002278565b6020604051808303816000875af115801562000807573d6000803e3d6000fd5b505050506040513d601f19601f820116820180604052508101906200082d9190620022ea565b9050604051806060016040528088815260200187815260200186815250600080838152602001908152602001600020600082015181600001908162000873919062002552565b5060208201518160010190816200088b919062002552565b50604082015181600201559050508060018190555060008383600460009054906101000a900473ffffffffffffffffffffffffffffffffffffffff16843089604051620008d8906200193c565b620008e99695949392919062002639565b604051809103906000f08015801562000906573d6000803e3d6000fd5b509050806003600084815260200190815260200160002060006101000a81548173ffffffffffffffffffffffffffffffffffffffff021916908373ffffffffffffffffffffffffffffffffffffffff16021790555060008173ffffffffffffffffffffffffffffffffffffffff1663313ce5676040518163ffffffff1660e01b8152600401602060405180830381865afa158015620009a9573d6000803e3d6000fd5b505050506040513d601f19601f82011682018060405250810190620009cf9190620026f2565b90508060ff16600a620009e39190620028a7565b86620009f09190620028f8565b6002600085815260200190815260200160002081905550336006600085815260200190815260200160002060006101000a81548173ffffffffffffffffffffffffffffffffffffffff021916908373ffffffffffffffffffffffffffffffffffffffff160217905550827f0616a80693ceeda2f38244d6c54a248b71a7bb82fa74ad42eb092243033b5982600460009054906101000a900473ffffffffffffffffffffffffffffffffffffffff16843360405162000ab19392919062002943565b60405180910390a2505050505050505050565b60056020528060005260406000206000915090508060000154908060010160009054906101000a900460ff16905082565b600073ffffffffffffffffffffffffffffffffffffffff166003600084815260200190815260200160002060009054906101000a900473ffffffffffffffffffffffffffffffffffffffff1673ffffffffffffffffffffffffffffffffffffffff160362000b9a576040517f08c379a000000000000000000000000000000000000000000000000000000000815260040162000b9190620029d0565b60405180910390fd5b3373ffffffffffffffffffffffffffffffffffffffff166006600084815260200190815260200160002060009054906101000a900473ffffffffffffffffffffffffffffffffffffffff1673ffffffffffffffffffffffffffffffffffffffff161462000c3e576040517f08c379a000000000000000000000000000000000000000000000000000000000815260040162000c359062002a68565b60405180910390fd5b604051806040016040528082815260200160011515815250600560008481526020019081526020016000206000820151816000015560208201518160010160006101000a81548160ff021916908315150217905550905050817f87d03dcfa12666a6f670d52387c414c3147775a8cc623d78088c0e23b4a903468260405162000cc8919062001cbc565b60405180910390a25050565b600860009054906101000a900473ffffffffffffffffffffffffffffffffffffffff1681565b600960009054906101000a900473ffffffffffffffffffffffffffffffffffffffff1681565b62000d2a620017de565b60008173ffffffffffffffffffffffffffffffffffffffff164760405162000d529062002abf565b60006040518083038185875af1925050503d806000811462000d91576040519150601f19603f3d011682016040523d82523d6000602084013e62000d96565b606091505b505090508062000ddd576040517f08c379a000000000000000000000000000000000000000000000000000000000815260040162000dd49062002b26565b60405180910390fd5b5050565b62000deb620017de565b62000df760006200186e565b565b60026020528060005260406000206000915090505481565b6000600c60009054906101000a900473ffffffffffffffffffffffffffffffffffffffff16905090565b600a5481565b60015481565b60066020528060005260406000206000915054906101000a900473ffffffffffffffffffffffffffffffffffffffff1681565b6002600b540362000ec2576040517f08c379a000000000000000000000000000000000000000000000000000000000815260040162000eb99062002b98565b60405180910390fd5b6002600b81905550600060056000848152602001908152602001600020604051806040016040529081600082015481526020016001820160009054906101000a900460ff1615151515815250509050806020015162000f58576040517f08c379a000000000000000000000000000000000000000000000000000000000815260040162000f4f9062002c0a565b60405180910390fd5b6000821162000f9e576040517f08c379a000000000000000000000000000000000000000000000000000000000815260040162000f959062002c7c565b60405180910390fd5b600073ffffffffffffffffffffffffffffffffffffffff166003600085815260200190815260200160002060009054906101000a900473ffffffffffffffffffffffffffffffffffffffff1673ffffffffffffffffffffffffffffffffffffffff160362001043576040517f08c379a00000000000000000000000000000000000000000000000000000000081526004016200103a9062002cee565b60405180910390fd5b60006003600085815260200190815260200160002060009054906101000a900473ffffffffffffffffffffffffffffffffffffffff16905060008173ffffffffffffffffffffffffffffffffffffffff1663313ce5676040518163ffffffff1660e01b8152600401602060405180830381865afa158015620010c9573d6000803e3d6000fd5b505050506040513d601f19601f82011682018060405250810190620010ef9190620026f2565b905060008160ff16600a620011059190620028a7565b85620011129190620028f8565b905060008373ffffffffffffffffffffffffffffffffffffffff166370a08231306040518263ffffffff1660e01b815260040162001151919062001a10565b602060405180830381865afa1580156200116f573d6000803e3d6000fd5b505050506040513d601f19601f82011682018060405250810190620011959190620022ea565b905081811015620011dd576040517f08c379a0000000000000000000000000000000000000000000000000000000008152600401620011d49062002d60565b60405180910390fd5b6000856000015187620011f19190620028f8565b90508034101562001239576040517f08c379a0000000000000000000000000000000000000000000000000000000008152600401620012309062002dd2565b60405180910390fd5b60008573ffffffffffffffffffffffffffffffffffffffff1663a9059cbb33866040518363ffffffff1660e01b81526004016200127892919062002df4565b6020604051808303816000875af115801562001298573d6000803e3d6000fd5b505050506040513d601f19601f82011682018060405250810190620012be919062002e52565b90508062001303576040517f08c379a0000000000000000000000000000000000000000000000000000000008152600401620012fa9062002ed4565b60405180910390fd5b6000600660008b815260200190815260200160002060009054906101000a900473ffffffffffffffffffffffffffffffffffffffff16905060008173ffffffffffffffffffffffffffffffffffffffff1684604051620013639062002abf565b60006040518083038185875af1925050503d8060008114620013a2576040519150601f19603f3d011682016040523d82523d6000602084013e620013a7565b606091505b5050905080620013ee576040517f08c379a0000000000000000000000000000000000000000000000000000000008152600401620013e59062002f46565b60405180910390fd5b83341115620014b95760003373ffffffffffffffffffffffffffffffffffffffff1685346200141e919062002f68565b6040516200142c9062002abf565b60006040518083038185875af1925050503d80600081146200146b576040519150601f19603f3d011682016040523d82523d6000602084013e62001470565b606091505b5050905080620014b7576040517f08c379a0000000000000000000000000000000000000000000000000000000008152600401620014ae9062002ff3565b60405180910390fd5b505b3373ffffffffffffffffffffffffffffffffffffffff168b7f4baafac02d651b8886d3212cc69aff0fb3c687080a4fe86b0674563ac1493e828c876040516200150492919062003015565b60405180910390a35050505050505050506001600b819055505050565b6200152b620017de565b600073ffffffffffffffffffffffffffffffffffffffff168173ffffffffffffffffffffffffffffffffffffffff1603620015a05760006040517f1e4fbdf700000000000000000000000000000000000000000000000000000000815260040162001597919062001a10565b60405180910390fd5b620015ab816200186e565b50565b620015b8620017de565b600073ffffffffffffffffffffffffffffffffffffffff168173ffffffffffffffffffffffffffffffffffffffff16036200162a576040517f08c379a0000000000000000000000000000000000000000000000000000000008152600401620016219062003092565b60405180910390fd5b80600460006101000a81548173ffffffffffffffffffffffffffffffffffffffff021916908373ffffffffffffffffffffffffffffffffffffffff16021790555050565b600460009054906101000a900473ffffffffffffffffffffffffffffffffffffffff1681565b6000602052806000526040600020600091509050806000018054620016b9906200234b565b80601f0160208091040260200160405190810160405280929190818152602001828054620016e7906200234b565b8015620017385780601f106200170c5761010080835404028352916020019162001738565b820191906000526020600020905b8154815290600101906020018083116200171a57829003601f168201915b5050505050908060010180546200174f906200234b565b80601f01602080910402602001604051908101604052809291908181526020018280546200177d906200234b565b8015620017ce5780601f10620017a257610100808354040283529160200191620017ce565b820191906000526020600020905b815481529060010190602001808311620017b057829003601f168201915b5050505050908060020154905083565b620017e862001934565b73ffffffffffffffffffffffffffffffffffffffff166200180862000e11565b73ffffffffffffffffffffffffffffffffffffffff16146200186c576200182e62001934565b6040517f118cdaa700000000000000000000000000000000000000000000000000000000815260040162001863919062001a10565b60405180910390fd5b565b6000600c60009054906101000a900473ffffffffffffffffffffffffffffffffffffffff16905081600c60006101000a81548173ffffffffffffffffffffffffffffffffffffffff021916908373ffffffffffffffffffffffffffffffffffffffff1602179055508173ffffffffffffffffffffffffffffffffffffffff168173ffffffffffffffffffffffffffffffffffffffff167f8be0079c531659141344cd1fd0a4f28419497f9722a3daafe3b4186f6b6457e060405160405180910390a35050565b600033905090565b61260080620030b583390190565b6000604051905090565b600080fd5b600080fd5b6000819050919050565b62001973816200195e565b81146200197f57600080fd5b50565b600081359050620019938162001968565b92915050565b600060208284031215620019b257620019b162001954565b5b6000620019c28482850162001982565b91505092915050565b600073ffffffffffffffffffffffffffffffffffffffff82169050919050565b6000620019f882620019cb565b9050919050565b62001a0a81620019eb565b82525050565b600060208201905062001a276000830184620019ff565b92915050565b62001a3881620019eb565b811462001a4457600080fd5b50565b60008135905062001a588162001a2d565b92915050565b600080fd5b600080fd5b6000601f19601f8301169050919050565b7f4e487b7100000000000000000000000000000000000000000000000000000000600052604160045260246000fd5b62001ab38262001a68565b810181811067ffffffffffffffff8211171562001ad55762001ad462001a79565b5b80604052505050565b600062001aea6200194a565b905062001af8828262001aa8565b919050565b600067ffffffffffffffff82111562001b1b5762001b1a62001a79565b5b62001b268262001a68565b9050602081019050919050565b82818337600083830152505050565b600062001b5962001b538462001afd565b62001ade565b90508281526020810184848401111562001b785762001b7762001a63565b5b62001b8584828562001b33565b509392505050565b600082601f83011262001ba55762001ba462001a5e565b5b813562001bb784826020860162001b42565b91505092915050565b6000806000806080858703121562001bdd5762001bdc62001954565b5b600062001bed8782880162001a47565b945050602062001c008782880162001a47565b935050604062001c138782880162001982565b925050606085013567ffffffffffffffff81111562001c375762001c3662001959565b5b62001c458782880162001b8d565b91505092959194509250565b60007fffffffff0000000000000000000000000000000000000000000000000000000082169050919050565b62001c888162001c51565b82525050565b600060208201905062001ca5600083018462001c7d565b92915050565b62001cb6816200195e565b82525050565b600060208201905062001cd3600083018462001cab565b92915050565b600067ffffffffffffffff82111562001cf75762001cf662001a79565b5b62001d028262001a68565b9050602081019050919050565b600062001d2662001d208462001cd9565b62001ade565b90508281526020810184848401111562001d455762001d4462001a63565b5b62001d5284828562001b33565b509392505050565b600082601f83011262001d725762001d7162001a5e565b5b813562001d8484826020860162001d0f565b91505092915050565b60008060008060008060c0878903121562001dad5762001dac62001954565b5b600087013567ffffffffffffffff81111562001dce5762001dcd62001959565b5b62001ddc89828a0162001d5a565b965050602087013567ffffffffffffffff81111562001e005762001dff62001959565b5b62001e0e89828a0162001d5a565b955050604062001e2189828a0162001982565b945050606062001e3489828a0162001982565b935050608087013567ffffffffffffffff81111562001e585762001e5762001959565b5b62001e6689828a0162001d5a565b92505060a087013567ffffffffffffffff81111562001e8a5762001e8962001959565b5b62001e9889828a0162001d5a565b9150509295509295509295565b60008115159050919050565b62001ebc8162001ea5565b82525050565b600060408201905062001ed9600083018562001cab565b62001ee8602083018462001eb1565b9392505050565b6000806040838503121562001f095762001f0862001954565b5b600062001f198582860162001982565b925050602062001f2c8582860162001982565b9150509250929050565b600062001f4382620019cb565b9050919050565b62001f558162001f36565b811462001f6157600080fd5b50565b60008135905062001f758162001f4a565b92915050565b60006020828403121562001f945762001f9362001954565b5b600062001fa48482850162001f64565b91505092915050565b60006020828403121562001fc65762001fc562001954565b5b600062001fd68482850162001a47565b91505092915050565b600081519050919050565b600082825260208201905092915050565b60005b838110156200201b57808201518184015260208101905062001ffe565b60008484015250505050565b6000620020348262001fdf565b62002040818562001fea565b93506200205281856020860162001ffb565b6200205d8162001a68565b840191505092915050565b6000606082019050818103600083015262002084818662002027565b905081810360208301526200209a818562002027565b9050620020ab604083018462001cab565b949350505050565b7f50726f706572747944656564206e6f7420736574000000000000000000000000600082015250565b6000620020eb60148362001fea565b9150620020f882620020b3565b602082019050919050565b600060208201905081810360008301526200211e81620020dc565b9050919050565b7f546f74616c206672616374696f6e73207a65726f000000000000000000000000600082015250565b60006200215d60148362001fea565b91506200216a8262002125565b602082019050919050565b6000602082019050818103600083015262002190816200214e565b9050919050565b600081519050620021a88162001a2d565b92915050565b600060208284031215620021c757620021c662001954565b5b6000620021d78482850162002197565b91505092915050565b7f4d616e61676572206e6f74206f776e6572206f66204465656420636f6e74726160008201527f6374000000000000000000000000000000000000000000000000000000000000602082015250565b60006200223e60228362001fea565b91506200224b82620021e0565b604082019050919050565b6000602082019050818103600083015262002271816200222f565b9050919050565b60006080820190506200228f6000830187620019ff565b8181036020830152620022a3818662002027565b90508181036040830152620022b9818562002027565b9050620022ca606083018462001cab565b95945050505050565b600081519050620022e48162001968565b92915050565b60006020828403121562002303576200230262001954565b5b60006200231384828501620022d3565b91505092915050565b7f4e487b7100000000000000000000000000000000000000000000000000000000600052602260045260246000fd5b600060028204905060018216806200236457607f821691505b6020821081036200237a57620023796200231c565b5b50919050565b60008190508160005260206000209050919050565b60006020601f8301049050919050565b600082821b905092915050565b600060088302620023e47fffffffffffffffffffffffffffffffffffffffffffffffffffffffffffffffff82620023a5565b620023f08683620023a5565b95508019841693508086168417925050509392505050565b6000819050919050565b6000620024336200242d62002427846200195e565b62002408565b6200195e565b9050919050565b6000819050919050565b6200244f8362002412565b620024676200245e826200243a565b848454620023b2565b825550505050565b600090565b6200247e6200246f565b6200248b81848462002444565b505050565b5b81811015620024b357620024a760008262002474565b60018101905062002491565b5050565b601f8211156200250257620024cc8162002380565b620024d78462002395565b81016020851015620024e7578190505b620024ff620024f68562002395565b83018262002490565b50505b505050565b600082821c905092915050565b6000620025276000198460080262002507565b1980831691505092915050565b600062002542838362002514565b9150826002028217905092915050565b6200255d8262001fdf565b67ffffffffffffffff81111562002579576200257862001a79565b5b6200258582546200234b565b62002592828285620024b7565b600060209050601f831160018114620025ca5760008415620025b5578287015190505b620025c1858262002534565b86555062002631565b601f198416620025da8662002380565b60005b828110156200260457848901518255600182019150602085019450602081019050620025dd565b8683101562002624578489015162002620601f89168262002514565b8355505b6001600288020188555050505b505050505050565b600060c082019050818103600083015262002655818962002027565b905081810360208301526200266b818862002027565b90506200267c6040830187620019ff565b6200268b606083018662001cab565b6200269a6080830185620019ff565b620026a960a083018462001cab565b979650505050505050565b600060ff82169050919050565b620026cc81620026b4565b8114620026d857600080fd5b50565b600081519050620026ec81620026c1565b92915050565b6000602082840312156200270b576200270a62001954565b5b60006200271b84828501620026db565b91505092915050565b7f4e487b7100000000000000000000000000000000000000000000000000000000600052601160045260246000fd5b60008160011c9050919050565b6000808291508390505b6001851115620027b2578086048111156200278a576200278962002724565b5b60018516156200279a5780820291505b8081029050620027aa8562002753565b94506200276a565b94509492505050565b600082620027cd5760019050620028a0565b81620027dd5760009050620028a0565b8160018114620027f65760028114620028015762002837565b6001915050620028a0565b60ff84111562002816576200281562002724565b5b8360020a91508482111562002830576200282f62002724565b5b50620028a0565b5060208310610133831016604e8410600b8410161715620028715782820a9050838111156200286b576200286a62002724565b5b620028a0565b62002880848484600162002760565b925090508184048111156200289a576200289962002724565b5b81810290505b9392505050565b6000620028b4826200195e565b9150620028c1836200195e565b9250620028f07fffffffffffffffffffffffffffffffffffffffffffffffffffffffffffffffff8484620027bb565b905092915050565b600062002905826200195e565b915062002912836200195e565b925082820262002922816200195e565b915082820484148315176200293c576200293b62002724565b5b5092915050565b60006060820190506200295a6000830186620019ff565b620029696020830185620019ff565b620029786040830184620019ff565b949350505050565b7f50726f7065727479206e6f74206672616374696f6e616c697a65640000000000600082015250565b6000620029b8601b8362001fea565b9150620029c58262002980565b602082019050919050565b60006020820190508181036000830152620029eb81620029a9565b9050919050565b7f4f6e6c792070726f7065727479206f776e65722063616e20737461727420736160008201527f6c65000000000000000000000000000000000000000000000000000000000000602082015250565b600062002a5060228362001fea565b915062002a5d82620029f2565b604082019050919050565b6000602082019050818103600083015262002a838162002a41565b9050919050565b600081905092915050565b50565b600062002aa760008362002a8a565b915062002ab48262002a95565b600082019050919050565b600062002acc8262002a98565b9150819050919050565b7f455448207472616e73666572206661696c656400000000000000000000000000600082015250565b600062002b0e60138362001fea565b915062002b1b8262002ad6565b602082019050919050565b6000602082019050818103600083015262002b418162002aff565b9050919050565b7f5265656e7472616e637947756172643a207265656e7472616e742063616c6c00600082015250565b600062002b80601f8362001fea565b915062002b8d8262002b48565b602082019050919050565b6000602082019050818103600083015262002bb38162002b71565b9050919050565b7f53616c65206e6f74206163746976650000000000000000000000000000000000600082015250565b600062002bf2600f8362001fea565b915062002bff8262002bba565b602082019050919050565b6000602082019050818103600083015262002c258162002be3565b9050919050565b7f4d75737420627579203e20300000000000000000000000000000000000000000600082015250565b600062002c64600c8362001fea565b915062002c718262002c2c565b602082019050919050565b6000602082019050818103600083015262002c978162002c55565b9050919050565b7f4672616374696f6e73206e6f7420666f756e6400000000000000000000000000600082015250565b600062002cd660138362001fea565b915062002ce38262002c9e565b602082019050919050565b6000602082019050818103600083015262002d098162002cc7565b9050919050565b7f4e6f7420656e6f756768206672616374696f6e7320617661696c61626c650000600082015250565b600062002d48601e8362001fea565b915062002d558262002d10565b602082019050919050565b6000602082019050818103600083015262002d7b8162002d39565b9050919050565b7f496e73756666696369656e74204554482073656e740000000000000000000000600082015250565b600062002dba60158362001fea565b915062002dc78262002d82565b602082019050919050565b6000602082019050818103600083015262002ded8162002dab565b9050919050565b600060408201905062002e0b6000830185620019ff565b62002e1a602083018462001cab565b9392505050565b62002e2c8162001ea5565b811462002e3857600080fd5b50565b60008151905062002e4c8162002e21565b92915050565b60006020828403121562002e6b5762002e6a62001954565b5b600062002e7b8482850162002e3b565b91505092915050565b7f4552433230207472616e73666572206661696c65640000000000000000000000600082015250565b600062002ebc60158362001fea565b915062002ec98262002e84565b602082019050919050565b6000602082019050818103600083015262002eef8162002ead565b9050919050565b7f4661696c656420746f20666f72776172642066756e647320746f206f776e6572600082015250565b600062002f2e60208362001fea565b915062002f3b8262002ef6565b602082019050919050565b6000602082019050818103600083015262002f618162002f1f565b9050919050565b600062002f75826200195e565b915062002f82836200195e565b925082820390508181111562002f9d5762002f9c62002724565b5b92915050565b7f526566756e64206661696c656400000000000000000000000000000000000000600082015250565b600062002fdb600d8362001fea565b915062002fe88262002fa3565b602082019050919050565b600060208201905081810360008301526200300e8162002fcc565b9050919050565b60006040820190506200302c600083018562001cab565b6200303b602083018462001cab565b9392505050565b7f5a65726f20616464726573730000000000000000000000000000000000000000600082015250565b60006200307a600c8362001fea565b9150620030878262003042565b602082019050919050565b60006020820190508181036000830152620030ad816200306b565b905091905056fe60806040523480156200001157600080fd5b5060405162002600380380620026008339818101604052810190620000379190620007bb565b858581600e90816200004a919062000ad6565b5080600f90816200005c919062000ad6565b505050600073ffffffffffffffffffffffffffffffffffffffff168273ffffffffffffffffffffffffffffffffffffffff1603620000d1576040517f08c379a0000000000000000000000000000000000000000000000000000000008152600401620000c89062000c1e565b60405180910390fd5b600073ffffffffffffffffffffffffffffffffffffffff168473ffffffffffffffffffffffffffffffffffffffff160362000143576040517f08c379a00000000000000000000000000000000000000000000000000000000081526004016200013a9062000c90565b60405180910390fd5b6000811162000189576040517f08c379a0000000000000000000000000000000000000000000000000000000008152600401620001809062000d02565b60405180910390fd5b83600860006101000a81548173ffffffffffffffffffffffffffffffffffffffff021916908373ffffffffffffffffffffffffffffffffffffffff1602179055508260078190555033600960006101000a81548173ffffffffffffffffffffffffffffffffffffffff021916908373ffffffffffffffffffffffffffffffffffffffff160217905550600062000224620002bf60201b60201c565b90508060ff16600a62000238919062000ea7565b8262000245919062000ef8565b600a819055506200025f83600a54620002c860201b60201c565b838373ffffffffffffffffffffffffffffffffffffffff167f1ada2eae037fb6ff59f185305a4720bc3e809772c23b4f0d70e3462db5d13e6d600a54604051620002aa919062000f54565b60405180910390a35050505050505062001017565b60006012905090565b600073ffffffffffffffffffffffffffffffffffffffff168273ffffffffffffffffffffffffffffffffffffffff16036200033d5760006040517fec442f0500000000000000000000000000000000000000000000000000000000815260040162000334919062000f82565b60405180910390fd5b62000351600083836200035560201b60201c565b5050565b600073ffffffffffffffffffffffffffffffffffffffff168373ffffffffffffffffffffffffffffffffffffffff1603620003ab5780600d60008282546200039e919062000f9f565b9250508190555062000483565b6000600b60008573ffffffffffffffffffffffffffffffffffffffff1673ffffffffffffffffffffffffffffffffffffffff168152602001908152602001600020549050818110156200043b578381836040517fe450d38c000000000000000000000000000000000000000000000000000000008152600401620004329392919062000fda565b60405180910390fd5b818103600b60008673ffffffffffffffffffffffffffffffffffffffff1673ffffffffffffffffffffffffffffffffffffffff16815260200190815260200160002081905550505b600073ffffffffffffffffffffffffffffffffffffffff168273ffffffffffffffffffffffffffffffffffffffff1603620004ce5780600d600082825403925050819055506200051c565b80600b60008473ffffffffffffffffffffffffffffffffffffffff1673ffffffffffffffffffffffffffffffffffffffff168152602001908152602001600020600082825401925050819055505b8173ffffffffffffffffffffffffffffffffffffffff168373ffffffffffffffffffffffffffffffffffffffff167fddf252ad1be2c89b69c2b068fc378daa952ba7f163c4a11628f55a4df523b3ef836040516200057b919062000f54565b60405180910390a3505050565b6000604051905090565b600080fd5b600080fd5b600080fd5b600080fd5b6000601f19601f8301169050919050565b7f4e487b7100000000000000000000000000000000000000000000000000000000600052604160045260246000fd5b620005f182620005a6565b810181811067ffffffffffffffff82111715620006135762000612620005b7565b5b80604052505050565b60006200062862000588565b9050620006368282620005e6565b919050565b600067ffffffffffffffff821115620006595762000658620005b7565b5b6200066482620005a6565b9050602081019050919050565b60005b838110156200069157808201518184015260208101905062000674565b60008484015250505050565b6000620006b4620006ae846200063b565b6200061c565b905082815260208101848484011115620006d357620006d2620005a1565b5b620006e084828562000671565b509392505050565b600082601f8301126200070057620006ff6200059c565b5b8151620007128482602086016200069d565b91505092915050565b600073ffffffffffffffffffffffffffffffffffffffff82169050919050565b600062000748826200071b565b9050919050565b6200075a816200073b565b81146200076657600080fd5b50565b6000815190506200077a816200074f565b92915050565b6000819050919050565b620007958162000780565b8114620007a157600080fd5b50565b600081519050620007b5816200078a565b92915050565b60008060008060008060c08789031215620007db57620007da62000592565b5b600087015167ffffffffffffffff811115620007fc57620007fb62000597565b5b6200080a89828a01620006e8565b965050602087015167ffffffffffffffff8111156200082e576200082d62000597565b5b6200083c89828a01620006e8565b95505060406200084f89828a0162000769565b94505060606200086289828a01620007a4565b93505060806200087589828a0162000769565b92505060a06200088889828a01620007a4565b9150509295509295509295565b600081519050919050565b7f4e487b7100000000000000000000000000000000000000000000000000000000600052602260045260246000fd5b60006002820490506001821680620008e857607f821691505b602082108103620008fe57620008fd620008a0565b5b50919050565b60008190508160005260206000209050919050565b60006020601f8301049050919050565b600082821b905092915050565b600060088302620009687fffffffffffffffffffffffffffffffffffffffffffffffffffffffffffffffff8262000929565b62000974868362000929565b95508019841693508086168417925050509392505050565b6000819050919050565b6000620009b7620009b1620009ab8462000780565b6200098c565b62000780565b9050919050565b6000819050919050565b620009d38362000996565b620009eb620009e282620009be565b84845462000936565b825550505050565b600090565b62000a02620009f3565b62000a0f818484620009c8565b505050565b5b8181101562000a375762000a2b600082620009f8565b60018101905062000a15565b5050565b601f82111562000a865762000a508162000904565b62000a5b8462000919565b8101602085101562000a6b578190505b62000a8362000a7a8562000919565b83018262000a14565b50505b505050565b600082821c905092915050565b600062000aab6000198460080262000a8b565b1980831691505092915050565b600062000ac6838362000a98565b9150826002028217905092915050565b62000ae18262000895565b67ffffffffffffffff81111562000afd5762000afc620005b7565b5b62000b098254620008cf565b62000b1682828562000a3b565b600060209050601f83116001811462000b4e576000841562000b39578287015190505b62000b45858262000ab8565b86555062000bb5565b601f19841662000b5e8662000904565b60005b8281101562000b885784890151825560018201915060208501945060208101905062000b61565b8683101562000ba8578489015162000ba4601f89168262000a98565b8355505b6001600288020188555050505b505050505050565b600082825260208201905092915050565b7f496e697469616c20686f6c646572207a65726f00000000000000000000000000600082015250565b600062000c0660138362000bbd565b915062000c138262000bce565b602082019050919050565b6000602082019050818103600083015262000c398162000bf7565b9050919050565b7f50726f706572747944656564207a65726f000000000000000000000000000000600082015250565b600062000c7860118362000bbd565b915062000c858262000c40565b602082019050919050565b6000602082019050818103600083015262000cab8162000c69565b9050919050565b7f546f74616c20737570706c79207a65726f000000000000000000000000000000600082015250565b600062000cea60118362000bbd565b915062000cf78262000cb2565b602082019050919050565b6000602082019050818103600083015262000d1d8162000cdb565b9050919050565b7f4e487b7100000000000000000000000000000000000000000000000000000000600052601160045260246000fd5b60008160011c9050919050565b6000808291508390505b600185111562000db25780860481111562000d8a5762000d8962000d24565b5b600185161562000d9a5780820291505b808102905062000daa8562000d53565b945062000d6a565b94509492505050565b60008262000dcd576001905062000ea0565b8162000ddd576000905062000ea0565b816001811462000df6576002811462000e015762000e37565b600191505062000ea0565b60ff84111562000e165762000e1562000d24565b5b8360020a91508482111562000e305762000e2f62000d24565b5b5062000ea0565b5060208310610133831016604e8410600b841016171562000e715782820a90508381111562000e6b5762000e6a62000d24565b5b62000ea0565b62000e80848484600162000d60565b9250905081840481111562000e9a5762000e9962000d24565b5b81810290505b9392505050565b600062000eb48262000780565b915062000ec18362000780565b925062000ef07fffffffffffffffffffffffffffffffffffffffffffffffffffffffffffffffff848462000dbb565b905092915050565b600062000f058262000780565b915062000f128362000780565b925082820262000f228162000780565b9150828204841483151762000f3c5762000f3b62000d24565b5b5092915050565b62000f4e8162000780565b82525050565b600060208201905062000f6b600083018462000f43565b92915050565b62000f7c816200073b565b82525050565b600060208201905062000f99600083018462000f71565b92915050565b600062000fac8262000780565b915062000fb98362000780565b925082820190508082111562000fd45762000fd362000d24565b5b92915050565b600060608201905062000ff1600083018662000f71565b62001000602083018562000f43565b6200100f604083018462000f43565b949350505050565b6115d980620010276000396000f3fe608060405234801561001057600080fd5b50600436106101375760003560e01c806357dbcd8d116100b8578063c1bd8cf91161007c578063c1bd8cf91461037d578063d090e47e1461039b578063d1fedbc2146103b9578063dd62ed3e146103e9578063f657a95d14610419578063f7b108081461043757610137565b806357dbcd8d146102b157806370a08231146102cf578063766de47f146102ff57806395d89b411461032f578063a9059cbb1461034d57610137565b806323b872dd116100ff57806323b872dd146101f65780632d487d2f14610226578063313ce56714610257578063359cd67b14610275578063481c6a751461029357610137565b806306fdde031461013c578063095ea7b31461015a57806312cda2541461018a57806317d70f7c146101ba57806318160ddd146101d8575b600080fd5b610144610469565b6040516101519190610fb4565b60405180910390f35b610174600480360381019061016f919061106f565b6104fb565b60405161018191906110ca565b60405180910390f35b6101a4600480360381019061019f91906110e5565b61051e565b6040516101b19190611121565b60405180910390f35b6101c2610551565b6040516101cf919061114b565b60405180910390f35b6101e0610557565b6040516101ed919061114b565b60405180910390f35b610210600480360381019061020b9190611166565b610561565b60405161021d91906110ca565b60405180910390f35b610240600480360381019061023b91906110e5565b610590565b60405161024e9291906111b9565b60405180910390f35b61025f6105c1565b60405161026c91906111fe565b60405180910390f35b61027d6105ca565b60405161028a9190611121565b60405180910390f35b61029b6105f0565b6040516102a89190611121565b60405180910390f35b6102b9610616565b6040516102c6919061114b565b60405180910390f35b6102e960048036038101906102e49190611219565b610646565b6040516102f6919061114b565b60405180910390f35b610319600480360381019061031491906110e5565b61068f565b604051610326919061114b565b60405180910390f35b6103376106a7565b6040516103449190610fb4565b60405180910390f35b6103676004803603810190610362919061106f565b610739565b60405161037491906110ca565b60405180910390f35b61038561075c565b604051610392919061114b565b60405180910390f35b6103a3610762565b6040516103b0919061114b565b60405180910390f35b6103d360048036038101906103ce91906110e5565b610768565b6040516103e09190611121565b60405180910390f35b61040360048036038101906103fe9190611246565b61079b565b604051610410919061114b565b60405180910390f35b610421610822565b60405161042e9190611121565b60405180910390f35b610451600480360381019061044c91906110e5565b610848565b60405161046093929190611286565b60405180910390f35b6060600e8054610478906112fa565b80601f01602080910402602001604051908101604052809291908181526020018280546104a4906112fa565b80156104f15780601f106104c6576101008083540402835291602001916104f1565b820191906000526020600020905b8154815290600101906020018083116104d457829003601f168201915b5050505050905090565b600080610506610982565b905061051381858561098a565b600191505092915050565b60036020528060005260406000206000915054906101000a900473ffffffffffffffffffffffffffffffffffffffff1681565b60075481565b6000600d54905090565b60008061056c610982565b905061057985828561099c565b610584858585610a31565b60019150509392505050565b60056020528060005260406000206000915090508060000154908060010160009054906101000a900460ff16905082565b60006012905090565b600860009054906101000a900473ffffffffffffffffffffffffffffffffffffffff1681565b600960009054906101000a900473ffffffffffffffffffffffffffffffffffffffff1681565b60006106206105c1565b60ff16600a61062f919061148d565b610637610557565b6106419190611507565b905090565b6000600b60008373ffffffffffffffffffffffffffffffffffffffff1673ffffffffffffffffffffffffffffffffffffffff168152602001908152602001600020549050919050565b60026020528060005260406000206000915090505481565b6060600f80546106b6906112fa565b80601f01602080910402602001604051908101604052809291908181526020018280546106e2906112fa565b801561072f5780601f106107045761010080835404028352916020019161072f565b820191906000526020600020905b81548152906001019060200180831161071257829003601f168201915b5050505050905090565b600080610744610982565b9050610751818585610a31565b600191505092915050565b600a5481565b60015481565b60066020528060005260406000206000915054906101000a900473ffffffffffffffffffffffffffffffffffffffff1681565b6000600c60008473ffffffffffffffffffffffffffffffffffffffff1673ffffffffffffffffffffffffffffffffffffffff16815260200190815260200160002060008373ffffffffffffffffffffffffffffffffffffffff1673ffffffffffffffffffffffffffffffffffffffff16815260200190815260200160002054905092915050565b600460009054906101000a900473ffffffffffffffffffffffffffffffffffffffff1681565b600060205280600052604060002060009150905080600001805461086b906112fa565b80601f0160208091040260200160405190810160405280929190818152602001828054610897906112fa565b80156108e45780601f106108b9576101008083540402835291602001916108e4565b820191906000526020600020905b8154815290600101906020018083116108c757829003601f168201915b5050505050908060010180546108f9906112fa565b80601f0160208091040260200160405190810160405280929190818152602001828054610925906112fa565b80156109725780601f1061094757610100808354040283529160200191610972565b820191906000526020600020905b81548152906001019060200180831161095557829003601f168201915b5050505050908060020154905083565b600033905090565b6109978383836001610b25565b505050565b60006109a8848461079b565b90507fffffffffffffffffffffffffffffffffffffffffffffffffffffffffffffffff811015610a2b5781811015610a1b578281836040517ffb8f41b2000000000000000000000000000000000000000000000000000000008152600401610a1293929190611538565b60405180910390fd5b610a2a84848484036000610b25565b5b50505050565b600073ffffffffffffffffffffffffffffffffffffffff168373ffffffffffffffffffffffffffffffffffffffff1603610aa35760006040517f96c6fd1e000000000000000000000000000000000000000000000000000000008152600401610a9a9190611121565b60405180910390fd5b600073ffffffffffffffffffffffffffffffffffffffff168273ffffffffffffffffffffffffffffffffffffffff1603610b155760006040517fec442f05000000000000000000000000000000000000000000000000000000008152600401610b0c9190611121565b60405180910390fd5b610b20838383610cfc565b505050565b600073ffffffffffffffffffffffffffffffffffffffff168473ffffffffffffffffffffffffffffffffffffffff1603610b975760006040517fe602df05000000000000000000000000000000000000000000000000000000008152600401610b8e9190611121565b60405180910390fd5b600073ffffffffffffffffffffffffffffffffffffffff168373ffffffffffffffffffffffffffffffffffffffff1603610c095760006040517f94280d62000000000000000000000000000000000000000000000000000000008152600401610c009190611121565b60405180910390fd5b81600c60008673ffffffffffffffffffffffffffffffffffffffff1673ffffffffffffffffffffffffffffffffffffffff16815260200190815260200160002060008573ffffffffffffffffffffffffffffffffffffffff1673ffffffffffffffffffffffffffffffffffffffff168152602001908152602001600020819055508015610cf6578273ffffffffffffffffffffffffffffffffffffffff168473ffffffffffffffffffffffffffffffffffffffff167f8c5be1e5ebec7d5bd14f71427d1e84f3dd0314c0f7b2291e5b200ac8c7c3b92584604051610ced919061114b565b60405180910390a35b50505050565b600073ffffffffffffffffffffffffffffffffffffffff168373ffffffffffffffffffffffffffffffffffffffff1603610d4e5780600d6000828254610d42919061156f565b92505081905550610e23565b6000600b60008573ffffffffffffffffffffffffffffffffffffffff1673ffffffffffffffffffffffffffffffffffffffff16815260200190815260200160002054905081811015610ddb578381836040517fe450d38c000000000000000000000000000000000000000000000000000000008152600401610dd293929190611538565b60405180910390fd5b818103600b60008673ffffffffffffffffffffffffffffffffffffffff1673ffffffffffffffffffffffffffffffffffffffff16815260200190815260200160002081905550505b600073ffffffffffffffffffffffffffffffffffffffff168273ffffffffffffffffffffffffffffffffffffffff1603610e6c5780600d60008282540392505081905550610eba565b80600b60008473ffffffffffffffffffffffffffffffffffffffff1673ffffffffffffffffffffffffffffffffffffffff168152602001908152602001600020600082825401925050819055505b8173ffffffffffffffffffffffffffffffffffffffff168373ffffffffffffffffffffffffffffffffffffffff167fddf252ad1be2c89b69c2b068fc378daa952ba7f163c4a11628f55a4df523b3ef83604051610f17919061114b565b60405180910390a3505050565b600081519050919050565b600082825260208201905092915050565b60005b83811015610f5e578082015181840152602081019050610f43565b60008484015250505050565b6000601f19601f8301169050919050565b6000610f8682610f24565b610f908185610f2f565b9350610fa0818560208601610f40565b610fa981610f6a565b840191505092915050565b60006020820190508181036000830152610fce8184610f7b565b905092915050565b600080fd5b600073ffffffffffffffffffffffffffffffffffffffff82169050919050565b600061100682610fdb565b9050919050565b61101681610ffb565b811461102157600080fd5b50565b6000813590506110338161100d565b92915050565b6000819050919050565b61104c81611039565b811461105757600080fd5b50565b60008135905061106981611043565b92915050565b6000806040838503121561108657611085610fd6565b5b600061109485828601611024565b92505060206110a58582860161105a565b9150509250929050565b60008115159050919050565b6110c4816110af565b82525050565b60006020820190506110df60008301846110bb565b92915050565b6000602082840312156110fb576110fa610fd6565b5b60006111098482850161105a565b91505092915050565b61111b81610ffb565b82525050565b60006020820190506111366000830184611112565b92915050565b61114581611039565b82525050565b6000602082019050611160600083018461113c565b92915050565b60008060006060848603121561117f5761117e610fd6565b5b600061118d86828701611024565b935050602061119e86828701611024565b92505060406111af8682870161105a565b9150509250925092565b60006040820190506111ce600083018561113c565b6111db60208301846110bb565b9392505050565b600060ff82169050919050565b6111f8816111e2565b82525050565b600060208201905061121360008301846111ef565b92915050565b60006020828403121561122f5761122e610fd6565b5b600061123d84828501611024565b91505092915050565b6000806040838503121561125d5761125c610fd6565b5b600061126b85828601611024565b925050602061127c85828601611024565b9150509250929050565b600060608201905081810360008301526112a08186610f7b565b905081810360208301526112b48185610f7b565b90506112c3604083018461113c565b949350505050565b7f4e487b7100000000000000000000000000000000000000000000000000000000600052602260045260246000fd5b6000600282049050600182168061131257607f821691505b602082108103611325576113246112cb565b5b50919050565b7f4e487b7100000000000000000000000000000000000000000000000000000000600052601160045260246000fd5b60008160011c9050919050565b6000808291508390505b60018511156113b15780860481111561138d5761138c61132b565b5b600185161561139c5780820291505b80810290506113aa8561135a565b9450611371565b94509492505050565b6000826113ca5760019050611486565b816113d85760009050611486565b81600181146113ee57600281146113f857611427565b6001915050611486565b60ff84111561140a5761140961132b565b5b8360020a9150848211156114215761142061132b565b5b50611486565b5060208310610133831016604e8410600b841016171561145c5782820a9050838111156114575761145661132b565b5b611486565b6114698484846001611367565b925090508184048111156114805761147f61132b565b5b81810290505b9392505050565b600061149882611039565b91506114a383611039565b92506114d07fffffffffffffffffffffffffffffffffffffffffffffffffffffffffffffffff84846113ba565b905092915050565b7f4e487b7100000000000000000000000000000000000000000000000000000000600052601260045260246000fd5b600061151282611039565b915061151d83611039565b92508261152d5761152c6114d8565b5b828204905092915050565b600060608201905061154d6000830186611112565b61155a602083018561113c565b611567604083018461113c565b949350505050565b600061157a82611039565b915061158583611039565b925082820190508082111561159d5761159c61132b565b5b9291505056fea264697066735822122089a37672383cf2eb189b8ab14a561bb0f46f211b22bf2c2f9b0febe1472955ee64736f6c63430008140033a2646970667358221220ff90cd4c68e68d267d018d31dc0dab4b2e072a1db1632eed12f12221e83e998464736f6c63430008140033",
  "linkReferences": {},
  "deployedLinkReferences": {}
}