{
  "_format": "hh-sol-artifact-1",
  "contractName": "Storage",
  "sourceName": "contracts/Storage.sol",
  "abi": [
    {
      "inputs": [
        {
          "internalType": "uint256",
          "name": "",
          "type": "uint256"
        }
      ],
      "name": "fractionContracts",
      "outputs": [
        {
          "internalType": "address",
          "name": "",
          "type": "address"
        }
      ],
      "stateMutability": "view",
      "type": "function"
    },
    {
      "inputs": [
        {
          "internalType": "uint256",
          "name": "",
          "type": "uint256"
        }
      ],
      "name": "fractionSales",
      "outputs": [
        {
          "internalType": "uint256",
          "name": "pricePerFraction",
          "type": "uint256"
        },
        {
          "internalType": "bool",
          "name": "active",
          "type": "bool"
        }
      ],
      "stateMutability": "view",
      "type": "function"
    },
    {
      "inputs": [],
      "name": "manager",
      "outputs": [
        {
          "internalType": "address",
          "name": "",
          "type": "address"
        }
      ],
      "stateMutability": "view",
      "type": "function"
    },
    {
      "inputs": [],
      "name": "mintedSupply",
      "outputs": [
        {
          "internalType": "uint256",
          "name": "",
          "type": "uint256"
        }
      ],
      "stateMutability": "view",
      "type": "function"
    },
    {
      "inputs": [
        {
          "internalType": "uint256",
          "name": "",
          "type": "uint256"
        }
      ],
      "name": "properties",
      "outputs": [
        {
          "internalType": "string",
          "name": "name",
          "type": "string"
        },
        {
          "internalType": "string",
          "name": "location",
          "type": "string"
        },
        {
          "internalType": "uint256",
          "name": "valuation",
          "type": "uint256"
        }
      ],
      "stateMutability": "view",
      "type": "function"
    },
    {
      "inputs": [],
      "name": "propertyCounter",
      "outputs": [
        {
          "internalType": "uint256",
          "name": "",
          "type": "uint256"
        }
      ],
      "stateMutability": "view",
      "type": "function"
    },
    {
      "inputs": [],
      "name": "propertyDeed",
      "outputs": [
        {
          "internalType": "address",
          "name": "",
          "type": "address"
        }
      ],
      "stateMutability": "view",
      "type": "function"
    },
    {
      "inputs": [],
      "name": "propertyDeedAddress",
      "outputs": [
        {
          "internalType": "address",
          "name": "",
          "type": "address"
        }
      ],
      "stateMutability": "view",
      "type": "function"
    },
    {
      "inputs": [
        {
          "internalType": "uint256",
          "name": "",
          "type": "uint256"
        }
      ],
      "name": "propertyOwner",
      "outputs": [
        {
          "internalType": "address",
          "name": "",
          "type": "address"
        }
      ],
      "stateMutability": "view",
      "type": "function"
    },
    {
      "inputs": [],
      "name": "tokenId",
      "outputs": [
        {
          "internalType": "uint256",
          "name": "",
          "type": "uint256"
        }
      ],
      "stateMutability": "view",
      "type": "function"
    },
    {
      "inputs": [
        {
          "internalType": "uint256",
          "name": "",
          "type": "uint256"
        }
      ],
      "name": "totalFractions",
      "outputs": [
        {
          "internalType": "uint256",
          "name": "",
          "type": "uint256"
        }
      ],
      "stateMutability": "view",
      "type": "function"
    }
  ],
  "bytecode": "0x608060405234801561001057600080fd5b5061075f806100206000396000f3fe608060405234801561001057600080fd5b50600436106100a95760003560e01c8063766de47f11610071578063766de47f14610169578063c1bd8cf914610199578063d090e47e146101b7578063d1fedbc2146101d5578063f657a95d14610205578063f7b1080814610223576100a9565b806312cda254146100ae57806317d70f7c146100de5780632d487d2f146100fc578063359cd67b1461012d578063481c6a751461014b575b600080fd5b6100c860048036038101906100c391906104fd565b610255565b6040516100d5919061056b565b60405180910390f35b6100e6610288565b6040516100f39190610595565b60405180910390f35b610116600480360381019061011191906104fd565b61028e565b6040516101249291906105cb565b60405180910390f35b6101356102bf565b604051610142919061056b565b60405180910390f35b6101536102e5565b604051610160919061056b565b60405180910390f35b610183600480360381019061017e91906104fd565b61030b565b6040516101909190610595565b60405180910390f35b6101a1610323565b6040516101ae9190610595565b60405180910390f35b6101bf610329565b6040516101cc9190610595565b60405180910390f35b6101ef60048036038101906101ea91906104fd565b61032f565b6040516101fc919061056b565b60405180910390f35b61020d610362565b60405161021a919061056b565b60405180910390f35b61023d600480360381019061023891906104fd565b610388565b60405161024c93929190610684565b60405180910390f35b60036020528060005260406000206000915054906101000a900473ffffffffffffffffffffffffffffffffffffffff1681565b60075481565b60056020528060005260406000206000915090508060000154908060010160009054906101000a900460ff16905082565b600860009054906101000a900473ffffffffffffffffffffffffffffffffffffffff1681565b600960009054906101000a900473ffffffffffffffffffffffffffffffffffffffff1681565b60026020528060005260406000206000915090505481565b600a5481565b60015481565b60066020528060005260406000206000915054906101000a900473ffffffffffffffffffffffffffffffffffffffff1681565b600460009054906101000a900473ffffffffffffffffffffffffffffffffffffffff1681565b60006020528060005260406000206000915090508060000180546103ab906106f8565b80601f01602080910402602001604051908101604052809291908181526020018280546103d7906106f8565b80156104245780601f106103f957610100808354040283529160200191610424565b820191906000526020600020905b81548152906001019060200180831161040757829003601f168201915b505050505090806001018054610439906106f8565b80601f0160208091040260200160405190810160405280929190818152602001828054610465906106f8565b80156104b25780601f10610487576101008083540402835291602001916104b2565b820191906000526020600020905b81548152906001019060200180831161049557829003601f168201915b5050505050908060020154905083565b600080fd5b6000819050919050565b6104da816104c7565b81146104e557600080fd5b50565b6000813590506104f7816104d1565b92915050565b600060208284031215610513576105126104c2565b5b6000610521848285016104e8565b91505092915050565b600073ffffffffffffffffffffffffffffffffffffffff82169050919050565b60006105558261052a565b9050919050565b6105658161054a565b82525050565b6000602082019050610580600083018461055c565b92915050565b61058f816104c7565b82525050565b60006020820190506105aa6000830184610586565b92915050565b60008115159050919050565b6105c5816105b0565b82525050565b60006040820190506105e06000830185610586565b6105ed60208301846105bc565b9392505050565b600081519050919050565b600082825260208201905092915050565b60005b8381101561062e578082015181840152602081019050610613565b60008484015250505050565b6000601f19601f8301169050919050565b6000610656826105f4565b61066081856105ff565b9350610670818560208601610610565b6106798161063a565b840191505092915050565b6000606082019050818103600083015261069e818661064b565b905081810360208301526106b2818561064b565b90506106c16040830184610586565b949350505050565b7f4e487b7100000000000000000000000000000000000000000000000000000000600052602260045260246000fd5b6000600282049050600182168061071057607f821691505b602082108103610723576107226106c9565b5b5091905056fea26469706673582212209118767c3472f077e47ba9ee59ba2dea77c6d71b63445a05ee424236f22d5d4764736f6c63430008140033",
  "linkReferences": {},
  "deployedLinkReferences": {}
}