{
  "_format": "hh-sol-artifact-1",
  "contractName": "PropertyFractions",
  "sourceName": "contracts/PropertyFractions.sol",
  "abi": [
    {
      "inputs": [
        {
          "internalType": "string",
          "name": "_name",
          "type": "string"
        },
        {
          "internalType": "string",
          "name": "_symbol",
          "type": "string"
        },
        {
          "internalType": "address",
          "name": "_propertyDeed",
          "type": "address"
        },
        {
          "internalType": "uint256",
          "name": "_tokenId",
          "type": "uint256"
        },
        {
          "internalType": "address",
          "name": "_initialHolder",
          "type": "address"
        },
        {
          "internalType": "uint256",
          "name": "_totalSupplyTokens",
          "type": "uint256"
        }
      ],
      "stateMutability": "nonpayable",
      "type": "constructor"
    },
    {
      "inputs": [
        {
          "internalType": "address",
          "name": "spender",
          "type": "address"
        },
        {
          "internalType": "uint256",
          "name": "allowance",
          "type": "uint256"
        },
        {
          "internalType": "uint256",
          "name": "needed",
          "type": "uint256"
        }
      ],
      "name": "ERC20InsufficientAllowance",
      "type": "error"
    },
    {
      "inputs": [
        {
          "internalType": "address",
          "name": "sender",
          "type": "address"
        },
        {
          "internalType": "uint256",
          "name": "balance",
          "type": "uint256"
        },
        {
          "internalType": "uint256",
          "name": "needed",
          "type": "uint256"
        }
      ],
      "name": "ERC20InsufficientBalance",
      "type": "error"
    },
    {
      "inputs": [
        {
          "internalType": "address",
          "name": "approver",
          "type": "address"
        }
      ],
      "name": "ERC20InvalidApprover",
      "type": "error"
    },
    {
      "inputs": [
        {
          "internalType": "address",
          "name": "receiver",
          "type": "address"
        }
      ],
      "name": "ERC20InvalidReceiver",
      "type": "error"
    },
    {
      "inputs": [
        {
          "internalType": "address",
          "name": "sender",
          "type": "address"
        }
      ],
      "name": "ERC20InvalidSender",
      "type": "error"
    },
    {
      "inputs": [
        {
          "internalType": "address",
          "name": "spender",
          "type": "address"
        }
      ],
      "name": "ERC20InvalidSpender",
      "type": "error"
    },
    {
      "anonymous": false,
      "inputs": [
        {
          "indexed": true,
          "internalType": "address",
          "name": "owner",
          "type": "address"
        },
        {
          "indexed": true,
          "internalType": "address",
          "name": "spender",
          "type": "address"
        },
        {
          "indexed": false,
          "internalType": "uint256",
          "name": "value",
          "type": "uint256"
        }
      ],
      "name": "Approval",
      "type": "event"
    },
    {
      "anonymous": false,
      "inputs": [
        {
          "indexed": true,
          "internalType": "address",
          "name": "initialHolder",
          "type": "address"
        },
        {
          "indexed": true,
          "internalType": "uint256",
          "name": "tokenId",
          "type": "uint256"
        },
        {
          "indexed": false,
          "internalType": "uint256",
          "name": "amount",
          "type": "uint256"
        }
      ],
      "name": "Fractionalized",
      "type": "event"
    },
    {
      "anonymous": false,
      "inputs": [
        {
          "indexed": true,
          "internalType": "address",
          "name": "from",
          "type": "address"
        },
        {
          "indexed": true,
          "internalType": "address",
          "name": "to",
          "type": "address"
        },
        {
          "indexed": false,
          "internalType": "uint256",
          "name": "value",
          "type": "uint256"
        }
      ],
      "name": "Transfer",
      "type": "event"
    },
    {
      "inputs": [
        {
          "internalType": "address",
          "name": "owner",
          "type": "address"
        },
        {
          "internalType": "address",
          "name": "spender",
          "type": "address"
        }
      ],
      "name": "allowance",
      "outputs": [
        {
          "internalType": "uint256",
          "name": "",
          "type": "uint256"
        }
      ],
      "stateMutability": "view",
      "type": "function"
    },
    {
      "inputs": [
        {
          "internalType": "address",
          "name": "spender",
          "type": "address"
        },
        {
          "internalType": "uint256",
          "name": "value",
          "type": "uint256"
        }
      ],
      "name": "approve",
      "outputs": [
        {
          "internalType": "bool",
          "name": "",
          "type": "bool"
        }
      ],
      "stateMutability": "nonpayable",
      "type": "function"
    },
    {
      "inputs": [
        {
          "internalType": "address",
          "name": "account",
          "type": "address"
        }
      ],
      "name": "balanceOf",
      "outputs": [
        {
          "internalType": "uint256",
          "name": "",
          "type": "uint256"
        }
      ],
      "stateMutability": "view",
      "type": "function"
    },
    {
      "inputs": [],
      "name": "decimals",
      "outputs": [
        {
          "internalType": "uint8",
          "name": "",
          "type": "uint8"
        }
      ],
      "stateMutability": "view",
      "type": "function"
    },
    {
      "inputs": [
        {
          "internalType": "uint256",
          "name": "",
          "type": "uint256"
        }
      ],
      "name": "fractionContracts",
      "outputs": [
        {
          "internalType": "address",
          "name": "",
          "type": "address"
        }
      ],
      "stateMutability": "view",
      "type": "function"
    },
    {
      "inputs": [
        {
          "internalType": "uint256",
          "name": "",
          "type": "uint256"
        }
      ],
      "name": "fractionSales",
      "outputs": [
        {
          "internalType": "uint256",
          "name": "pricePerFraction",
          "type": "uint256"
        },
        {
          "internalType": "bool",
          "name": "active",
          "type": "bool"
        }
      ],
      "stateMutability": "view",
      "type": "function"
    },
    {
      "inputs": [],
      "name": "manager",
      "outputs": [
        {
          "internalType": "address",
          "name": "",
          "type": "address"
        }
      ],
      "stateMutability": "view",
      "type": "function"
    },
    {
      "inputs": [],
      "name": "mintedSupply",
      "outputs": [
        {
          "internalType": "uint256",
          "name": "",
          "type": "uint256"
        }
      ],
      "stateMutability": "view",
      "type": "function"
    },
    {
      "inputs": [],
      "name": "name",
      "outputs": [
        {
          "internalType": "string",
          "name": "",
          "type": "string"
        }
      ],
      "stateMutability": "view",
      "type": "function"
    },
    {
      "inputs": [
        {
          "internalType": "uint256",
          "name": "",
          "type": "uint256"
        }
      ],
      "name": "properties",
      "outputs": [
        {
          "internalType": "string",
          "name": "name",
          "type": "string"
        },
        {
          "internalType": "string",
          "name": "location",
          "type": "string"
        },
        {
          "internalType": "uint256",
          "name": "valuation",
          "type": "uint256"
        }
      ],
      "stateMutability": "view",
      "type": "function"
    },
    {
      "inputs": [],
      "name": "propertyCounter",
      "outputs": [
        {
          "internalType": "uint256",
          "name": "",
          "type": "uint256"
        }
      ],
      "stateMutability": "view",
      "type": "function"
    },
    {
      "inputs": [],
      "name": "propertyDeed",
      "outputs": [
        {
          "internalType": "address",
          "name": "",
          "type": "address"
        }
      ],
      "stateMutability": "view",
      "type": "function"
    },
    {
      "inputs": [],
      "name": "propertyDeedAddress",
      "outputs": [
        {
          "internalType": "address",
          "name": "",
          "type": "address"
        }
      ],
      "stateMutability": "view",
      "type": "function"
    },
    {
      "inputs": [
        {
          "internalType": "uint256",
          "name": "",
          "type": "uint256"
        }
      ],
      "name": "propertyOwner",
      "outputs": [
        {
          "internalType": "address",
          "name": "",
          "type": "address"
        }
      ],
      "stateMutability": "view",
      "type": "function"
    },
    {
      "inputs": [],
      "name": "symbol",
      "outputs": [
        {
          "internalType": "string",
          "name": "",
          "type": "string"
        }
      ],
      "stateMutability": "view",
      "type": "function"
    },
    {
      "inputs": [],
      "name": "tokenId",
      "outputs": [
        {
          "internalType": "uint256",
          "name": "",
          "type": "uint256"
        }
      ],
      "stateMutability": "view",
      "type": "function"
    },
    {
      "inputs": [
        {
          "internalType": "uint256",
          "name": "",
          "type": "uint256"
        }
      ],
      "name": "totalFractions",
      "outputs": [
        {
          "internalType": "uint256",
          "name": "",
          "type": "uint256"
        }
      ],
      "stateMutability": "view",
      "type": "function"
    },
    {
      "inputs": [],
      "name": "totalSupply",
      "outputs": [
        {
          "internalType": "uint256",
          "name": "",
          "type": "uint256"
        }
      ],
      "stateMutability": "view",
      "type": "function"
    },
    {
      "inputs": [],
      "name": "totalSupplyWhole",
      "outputs": [
        {
          "internalType": "uint256",
          "name": "",
          "type": "uint256"
        }
      ],
      "stateMutability": "view",
      "type": "function"
    },
    {
      "inputs": [
        {
          "internalType": "address",
          "name": "to",
          "type": "address"
        },
        {
          "internalType": "uint256",
          "name": "value",
          "type": "uint256"
        }
      ],
      "name": "transfer",
      "outputs": [
        {
          "internalType": "bool",
          "name": "",
          "type": "bool"
        }
      ],
      "stateMutability": "nonpayable",
      "type": "function"
    },
    {
      "inputs": [
        {
          "internalType": "address",
          "name": "from",
          "type": "address"
        },
        {
          "internalType": "address",
          "name": "to",
          "type": "address"
        },
        {
          "internalType": "uint256",
          "name": "value",
          "type": "uint256"
        }
      ],
      "name": "transferFrom",
      "outputs": [
        {
          "internalType": "bool",
          "name": "",
          "type": "bool"
        }
      ],
      "stateMutability": "nonpayable",
      "type": "function"
    }
  ],
  "bytecode": "0x60806040523480156200001157600080fd5b5060405162002600380380620026008339818101604052810190620000379190620007bb565b858581600e90816200004a919062000ad6565b5080600f90816200005c919062000ad6565b505050600073ffffffffffffffffffffffffffffffffffffffff168273ffffffffffffffffffffffffffffffffffffffff1603620000d1576040517f08c379a0000000000000000000000000000000000000000000000000000000008152600401620000c89062000c1e565b60405180910390fd5b600073ffffffffffffffffffffffffffffffffffffffff168473ffffffffffffffffffffffffffffffffffffffff160362000143576040517f08c379a00000000000000000000000000000000000000000000000000000000081526004016200013a9062000c90565b60405180910390fd5b6000811162000189576040517f08c379a0000000000000000000000000000000000000000000000000000000008152600401620001809062000d02565b60405180910390fd5b83600860006101000a81548173ffffffffffffffffffffffffffffffffffffffff021916908373ffffffffffffffffffffffffffffffffffffffff1602179055508260078190555033600960006101000a81548173ffffffffffffffffffffffffffffffffffffffff021916908373ffffffffffffffffffffffffffffffffffffffff160217905550600062000224620002bf60201b60201c565b90508060ff16600a62000238919062000ea7565b8262000245919062000ef8565b600a819055506200025f83600a54620002c860201b60201c565b838373ffffffffffffffffffffffffffffffffffffffff167f1ada2eae037fb6ff59f185305a4720bc3e809772c23b4f0d70e3462db5d13e6d600a54604051620002aa919062000f54565b60405180910390a35050505050505062001017565b60006012905090565b600073ffffffffffffffffffffffffffffffffffffffff168273ffffffffffffffffffffffffffffffffffffffff16036200033d5760006040517fec442f0500000000000000000000000000000000000000000000000000000000815260040162000334919062000f82565b60405180910390fd5b62000351600083836200035560201b60201c565b5050565b600073ffffffffffffffffffffffffffffffffffffffff168373ffffffffffffffffffffffffffffffffffffffff1603620003ab5780600d60008282546200039e919062000f9f565b9250508190555062000483565b6000600b60008573ffffffffffffffffffffffffffffffffffffffff1673ffffffffffffffffffffffffffffffffffffffff168152602001908152602001600020549050818110156200043b578381836040517fe450d38c000000000000000000000000000000000000000000000000000000008152600401620004329392919062000fda565b60405180910390fd5b818103600b60008673ffffffffffffffffffffffffffffffffffffffff1673ffffffffffffffffffffffffffffffffffffffff16815260200190815260200160002081905550505b600073ffffffffffffffffffffffffffffffffffffffff168273ffffffffffffffffffffffffffffffffffffffff1603620004ce5780600d600082825403925050819055506200051c565b80600b60008473ffffffffffffffffffffffffffffffffffffffff1673ffffffffffffffffffffffffffffffffffffffff168152602001908152602001600020600082825401925050819055505b8173ffffffffffffffffffffffffffffffffffffffff168373ffffffffffffffffffffffffffffffffffffffff167fddf252ad1be2c89b69c2b068fc378daa952ba7f163c4a11628f55a4df523b3ef836040516200057b919062000f54565b60405180910390a3505050565b6000604051905090565b600080fd5b600080fd5b600080fd5b600080fd5b6000601f19601f8301169050919050565b7f4e487b7100000000000000000000000000000000000000000000000000000000600052604160045260246000fd5b620005f182620005a6565b810181811067ffffffffffffffff82111715620006135762000612620005b7565b5b80604052505050565b60006200062862000588565b9050620006368282620005e6565b919050565b600067ffffffffffffffff821115620006595762000658620005b7565b5b6200066482620005a6565b9050602081019050919050565b60005b838110156200069157808201518184015260208101905062000674565b60008484015250505050565b6000620006b4620006ae846200063b565b6200061c565b905082815260208101848484011115620006d357620006d2620005a1565b5b620006e084828562000671565b509392505050565b600082601f8301126200070057620006ff6200059c565b5b8151620007128482602086016200069d565b91505092915050565b600073ffffffffffffffffffffffffffffffffffffffff82169050919050565b600062000748826200071b565b9050919050565b6200075a816200073b565b81146200076657600080fd5b50565b6000815190506200077a816200074f565b92915050565b6000819050919050565b620007958162000780565b8114620007a157600080fd5b50565b600081519050620007b5816200078a565b92915050565b60008060008060008060c08789031215620007db57620007da62000592565b5b600087015167ffffffffffffffff811115620007fc57620007fb62000597565b5b6200080a89828a01620006e8565b965050602087015167ffffffffffffffff8111156200082e576200082d62000597565b5b6200083c89828a01620006e8565b95505060406200084f89828a0162000769565b94505060606200086289828a01620007a4565b93505060806200087589828a0162000769565b92505060a06200088889828a01620007a4565b9150509295509295509295565b600081519050919050565b7f4e487b7100000000000000000000000000000000000000000000000000000000600052602260045260246000fd5b60006002820490506001821680620008e857607f821691505b602082108103620008fe57620008fd620008a0565b5b50919050565b60008190508160005260206000209050919050565b60006020601f8301049050919050565b600082821b905092915050565b600060088302620009687fffffffffffffffffffffffffffffffffffffffffffffffffffffffffffffffff8262000929565b62000974868362000929565b95508019841693508086168417925050509392505050565b6000819050919050565b6000620009b7620009b1620009ab8462000780565b6200098c565b62000780565b9050919050565b6000819050919050565b620009d38362000996565b620009eb620009e282620009be565b84845462000936565b825550505050565b600090565b62000a02620009f3565b62000a0f818484620009c8565b505050565b5b8181101562000a375762000a2b600082620009f8565b60018101905062000a15565b5050565b601f82111562000a865762000a508162000904565b62000a5b8462000919565b8101602085101562000a6b578190505b62000a8362000a7a8562000919565b83018262000a14565b50505b505050565b600082821c905092915050565b600062000aab6000198460080262000a8b565b1980831691505092915050565b600062000ac6838362000a98565b9150826002028217905092915050565b62000ae18262000895565b67ffffffffffffffff81111562000afd5762000afc620005b7565b5b62000b098254620008cf565b62000b1682828562000a3b565b600060209050601f83116001811462000b4e576000841562000b39578287015190505b62000b45858262000ab8565b86555062000bb5565b601f19841662000b5e8662000904565b60005b8281101562000b885784890151825560018201915060208501945060208101905062000b61565b8683101562000ba8578489015162000ba4601f89168262000a98565b8355505b6001600288020188555050505b505050505050565b600082825260208201905092915050565b7f496e697469616c20686f6c646572207a65726f00000000000000000000000000600082015250565b600062000c0660138362000bbd565b915062000c138262000bce565b602082019050919050565b6000602082019050818103600083015262000c398162000bf7565b9050919050565b7f50726f706572747944656564207a65726f000000000000000000000000000000600082015250565b600062000c7860118362000bbd565b915062000c858262000c40565b602082019050919050565b6000602082019050818103600083015262000cab8162000c69565b9050919050565b7f546f74616c20737570706c79207a65726f000000000000000000000000000000600082015250565b600062000cea60118362000bbd565b915062000cf78262000cb2565b602082019050919050565b6000602082019050818103600083015262000d1d8162000cdb565b9050919050565b7f4e487b7100000000000000000000000000000000000000000000000000000000600052601160045260246000fd5b60008160011c9050919050565b6000808291508390505b600185111562000db25780860481111562000d8a5762000d8962000d24565b5b600185161562000d9a5780820291505b808102905062000daa8562000d53565b945062000d6a565b94509492505050565b60008262000dcd576001905062000ea0565b8162000ddd576000905062000ea0565b816001811462000df6576002811462000e015762000e37565b600191505062000ea0565b60ff84111562000e165762000e1562000d24565b5b8360020a91508482111562000e305762000e2f62000d24565b5b5062000ea0565b5060208310610133831016604e8410600b841016171562000e715782820a90508381111562000e6b5762000e6a62000d24565b5b62000ea0565b62000e80848484600162000d60565b9250905081840481111562000e9a5762000e9962000d24565b5b81810290505b9392505050565b600062000eb48262000780565b915062000ec18362000780565b925062000ef07fffffffffffffffffffffffffffffffffffffffffffffffffffffffffffffffff848462000dbb565b905092915050565b600062000f058262000780565b915062000f128362000780565b925082820262000f228162000780565b9150828204841483151762000f3c5762000f3b62000d24565b5b5092915050565b62000f4e8162000780565b82525050565b600060208201905062000f6b600083018462000f43565b92915050565b62000f7c816200073b565b82525050565b600060208201905062000f99600083018462000f71565b92915050565b600062000fac8262000780565b915062000fb98362000780565b925082820190508082111562000fd45762000fd362000d24565b5b92915050565b600060608201905062000ff1600083018662000f71565b62001000602083018562000f43565b6200100f604083018462000f43565b949350505050565b6115d980620010276000396000f3fe608060405234801561001057600080fd5b50600436106101375760003560e01c806357dbcd8d116100b8578063c1bd8cf91161007c578063c1bd8cf91461037d578063d090e47e1461039b578063d1fedbc2146103b9578063dd62ed3e146103e9578063f657a95d14610419578063f7b108081461043757610137565b806357dbcd8d146102b157806370a08231146102cf578063766de47f146102ff57806395d89b411461032f578063a9059cbb1461034d57610137565b806323b872dd116100ff57806323b872dd146101f65780632d487d2f14610226578063313ce56714610257578063359cd67b14610275578063481c6a751461029357610137565b806306fdde031461013c578063095ea7b31461015a57806312cda2541461018a57806317d70f7c146101ba57806318160ddd146101d8575b600080fd5b610144610469565b6040516101519190610fb4565b60405180910390f35b610174600480360381019061016f919061106f565b6104fb565b60405161018191906110ca565b60405180910390f35b6101a4600480360381019061019f91906110e5565b61051e565b6040516101b19190611121565b60405180910390f35b6101c2610551565b6040516101cf919061114b565b60405180910390f35b6101e0610557565b6040516101ed919061114b565b60405180910390f35b610210600480360381019061020b9190611166565b610561565b60405161021d91906110ca565b60405180910390f35b610240600480360381019061023b91906110e5565b610590565b60405161024e9291906111b9565b60405180910390f35b61025f6105c1565b60405161026c91906111fe565b60405180910390f35b61027d6105ca565b60405161028a9190611121565b60405180910390f35b61029b6105f0565b6040516102a89190611121565b60405180910390f35b6102b9610616565b6040516102c6919061114b565b60405180910390f35b6102e960048036038101906102e49190611219565b610646565b6040516102f6919061114b565b60405180910390f35b610319600480360381019061031491906110e5565b61068f565b604051610326919061114b565b60405180910390f35b6103376106a7565b6040516103449190610fb4565b60405180910390f35b6103676004803603810190610362919061106f565b610739565b60405161037491906110ca565b60405180910390f35b61038561075c565b604051610392919061114b565b60405180910390f35b6103a3610762565b6040516103b0919061114b565b60405180910390f35b6103d360048036038101906103ce91906110e5565b610768565b6040516103e09190611121565b60405180910390f35b61040360048036038101906103fe9190611246565b61079b565b604051610410919061114b565b60405180910390f35b610421610822565b60405161042e9190611121565b60405180910390f35b610451600480360381019061044c91906110e5565b610848565b60405161046093929190611286565b60405180910390f35b6060600e8054610478906112fa565b80601f01602080910402602001604051908101604052809291908181526020018280546104a4906112fa565b80156104f15780601f106104c6576101008083540402835291602001916104f1565b820191906000526020600020905b8154815290600101906020018083116104d457829003601f168201915b5050505050905090565b600080610506610982565b905061051381858561098a565b600191505092915050565b60036020528060005260406000206000915054906101000a900473ffffffffffffffffffffffffffffffffffffffff1681565b60075481565b6000600d54905090565b60008061056c610982565b905061057985828561099c565b610584858585610a31565b60019150509392505050565b60056020528060005260406000206000915090508060000154908060010160009054906101000a900460ff16905082565b60006012905090565b600860009054906101000a900473ffffffffffffffffffffffffffffffffffffffff1681565b600960009054906101000a900473ffffffffffffffffffffffffffffffffffffffff1681565b60006106206105c1565b60ff16600a61062f919061148d565b610637610557565b6106419190611507565b905090565b6000600b60008373ffffffffffffffffffffffffffffffffffffffff1673ffffffffffffffffffffffffffffffffffffffff168152602001908152602001600020549050919050565b60026020528060005260406000206000915090505481565b6060600f80546106b6906112fa565b80601f01602080910402602001604051908101604052809291908181526020018280546106e2906112fa565b801561072f5780601f106107045761010080835404028352916020019161072f565b820191906000526020600020905b81548152906001019060200180831161071257829003601f168201915b5050505050905090565b600080610744610982565b9050610751818585610a31565b600191505092915050565b600a5481565b60015481565b60066020528060005260406000206000915054906101000a900473ffffffffffffffffffffffffffffffffffffffff1681565b6000600c60008473ffffffffffffffffffffffffffffffffffffffff1673ffffffffffffffffffffffffffffffffffffffff16815260200190815260200160002060008373ffffffffffffffffffffffffffffffffffffffff1673ffffffffffffffffffffffffffffffffffffffff16815260200190815260200160002054905092915050565b600460009054906101000a900473ffffffffffffffffffffffffffffffffffffffff1681565b600060205280600052604060002060009150905080600001805461086b906112fa565b80601f0160208091040260200160405190810160405280929190818152602001828054610897906112fa565b80156108e45780601f106108b9576101008083540402835291602001916108e4565b820191906000526020600020905b8154815290600101906020018083116108c757829003601f168201915b5050505050908060010180546108f9906112fa565b80601f0160208091040260200160405190810160405280929190818152602001828054610925906112fa565b80156109725780601f1061094757610100808354040283529160200191610972565b820191906000526020600020905b81548152906001019060200180831161095557829003601f168201915b5050505050908060020154905083565b600033905090565b6109978383836001610b25565b505050565b60006109a8848461079b565b90507fffffffffffffffffffffffffffffffffffffffffffffffffffffffffffffffff811015610a2b5781811015610a1b578281836040517ffb8f41b2000000000000000000000000000000000000000000000000000000008152600401610a1293929190611538565b60405180910390fd5b610a2a84848484036000610b25565b5b50505050565b600073ffffffffffffffffffffffffffffffffffffffff168373ffffffffffffffffffffffffffffffffffffffff1603610aa35760006040517f96c6fd1e000000000000000000000000000000000000000000000000000000008152600401610a9a9190611121565b60405180910390fd5b600073ffffffffffffffffffffffffffffffffffffffff168273ffffffffffffffffffffffffffffffffffffffff1603610b155760006040517fec442f05000000000000000000000000000000000000000000000000000000008152600401610b0c9190611121565b60405180910390fd5b610b20838383610cfc565b505050565b600073ffffffffffffffffffffffffffffffffffffffff168473ffffffffffffffffffffffffffffffffffffffff1603610b975760006040517fe602df05000000000000000000000000000000000000000000000000000000008152600401610b8e9190611121565b60405180910390fd5b600073ffffffffffffffffffffffffffffffffffffffff168373ffffffffffffffffffffffffffffffffffffffff1603610c095760006040517f94280d62000000000000000000000000000000000000000000000000000000008152600401610c009190611121565b60405180910390fd5b81600c60008673ffffffffffffffffffffffffffffffffffffffff1673ffffffffffffffffffffffffffffffffffffffff16815260200190815260200160002060008573ffffffffffffffffffffffffffffffffffffffff1673ffffffffffffffffffffffffffffffffffffffff168152602001908152602001600020819055508015610cf6578273ffffffffffffffffffffffffffffffffffffffff168473ffffffffffffffffffffffffffffffffffffffff167f8c5be1e5ebec7d5bd14f71427d1e84f3dd0314c0f7b2291e5b200ac8c7c3b92584604051610ced919061114b565b60405180910390a35b50505050565b600073ffffffffffffffffffffffffffffffffffffffff168373ffffffffffffffffffffffffffffffffffffffff1603610d4e5780600d6000828254610d42919061156f565b92505081905550610e23565b6000600b60008573ffffffffffffffffffffffffffffffffffffffff1673ffffffffffffffffffffffffffffffffffffffff16815260200190815260200160002054905081811015610ddb578381836040517fe450d38c000000000000000000000000000000000000000000000000000000008152600401610dd293929190611538565b60405180910390fd5b818103600b60008673ffffffffffffffffffffffffffffffffffffffff1673ffffffffffffffffffffffffffffffffffffffff16815260200190815260200160002081905550505b600073ffffffffffffffffffffffffffffffffffffffff168273ffffffffffffffffffffffffffffffffffffffff1603610e6c5780600d60008282540392505081905550610eba565b80600b60008473ffffffffffffffffffffffffffffffffffffffff1673ffffffffffffffffffffffffffffffffffffffff168152602001908152602001600020600082825401925050819055505b8173ffffffffffffffffffffffffffffffffffffffff168373ffffffffffffffffffffffffffffffffffffffff167fddf252ad1be2c89b69c2b068fc378daa952ba7f163c4a11628f55a4df523b3ef83604051610f17919061114b565b60405180910390a3505050565b600081519050919050565b600082825260208201905092915050565b60005b83811015610f5e578082015181840152602081019050610f43565b60008484015250505050565b6000601f19601f8301169050919050565b6000610f8682610f24565b610f908185610f2f565b9350610fa0818560208601610f40565b610fa981610f6a565b840191505092915050565b60006020820190508181036000830152610fce8184610f7b565b905092915050565b600080fd5b600073ffffffffffffffffffffffffffffffffffffffff82169050919050565b600061100682610fdb565b9050919050565b61101681610ffb565b811461102157600080fd5b50565b6000813590506110338161100d565b92915050565b6000819050919050565b61104c81611039565b811461105757600080fd5b50565b60008135905061106981611043565b92915050565b6000806040838503121561108657611085610fd6565b5b600061109485828601611024565b92505060206110a58582860161105a565b9150509250929050565b60008115159050919050565b6110c4816110af565b82525050565b60006020820190506110df60008301846110bb565b92915050565b6000602082840312156110fb576110fa610fd6565b5b60006111098482850161105a565b91505092915050565b61111b81610ffb565b82525050565b60006020820190506111366000830184611112565b92915050565b61114581611039565b82525050565b6000602082019050611160600083018461113c565b92915050565b60008060006060848603121561117f5761117e610fd6565b5b600061118d86828701611024565b935050602061119e86828701611024565b92505060406111af8682870161105a565b9150509250925092565b60006040820190506111ce600083018561113c565b6111db60208301846110bb565b9392505050565b600060ff82169050919050565b6111f8816111e2565b82525050565b600060208201905061121360008301846111ef565b92915050565b60006020828403121561122f5761122e610fd6565b5b600061123d84828501611024565b91505092915050565b6000806040838503121561125d5761125c610fd6565b5b600061126b85828601611024565b925050602061127c85828601611024565b9150509250929050565b600060608201905081810360008301526112a08186610f7b565b905081810360208301526112b48185610f7b565b90506112c3604083018461113c565b949350505050565b7f4e487b7100000000000000000000000000000000000000000000000000000000600052602260045260246000fd5b6000600282049050600182168061131257607f821691505b602082108103611325576113246112cb565b5b50919050565b7f4e487b7100000000000000000000000000000000000000000000000000000000600052601160045260246000fd5b60008160011c9050919050565b6000808291508390505b60018511156113b15780860481111561138d5761138c61132b565b5b600185161561139c5780820291505b80810290506113aa8561135a565b9450611371565b94509492505050565b6000826113ca5760019050611486565b816113d85760009050611486565b81600181146113ee57600281146113f857611427565b6001915050611486565b60ff84111561140a5761140961132b565b5b8360020a9150848211156114215761142061132b565b5b50611486565b5060208310610133831016604e8410600b841016171561145c5782820a9050838111156114575761145661132b565b5b611486565b6114698484846001611367565b925090508184048111156114805761147f61132b565b5b81810290505b9392505050565b600061149882611039565b91506114a383611039565b92506114d07fffffffffffffffffffffffffffffffffffffffffffffffffffffffffffffffff84846113ba565b905092915050565b7f4e487b7100000000000000000000000000000000000000000000000000000000600052601260045260246000fd5b600061151282611039565b915061151d83611039565b92508261152d5761152c6114d8565b5b828204905092915050565b600060608201905061154d6000830186611112565b61155a602083018561113c565b611567604083018461113c565b949350505050565b600061157a82611039565b915061158583611039565b925082820190508082111561159d5761159c61132b565b5b9291505056fea264697066735822122089a37672383cf2eb189b8ab14a561bb0f46f211b22bf2c2f9b0febe1472955ee64736f6c63430008140033",
  "linkReferences": {},
  "deployedLinkReferences": {}
}