{
  "_format": "hh-sol-artifact-1",
  "contractName": "PropertyDeed",
  "sourceName": "contracts/PropertyDeed.sol",
  "abi": [
    {
      "inputs": [],
      "stateMutability": "nonpayable",
      "type": "constructor"
    },
    {
      "inputs": [
        {
          "internalType": "address",
          "name": "sender",
          "type": "address"
        },
        {
          "internalType": "uint256",
          "name": "tokenId",
          "type": "uint256"
        },
        {
          "internalType": "address",
          "name": "owner",
          "type": "address"
        }
      ],
      "name": "ERC721IncorrectOwner",
      "type": "error"
    },
    {
      "inputs": [
        {
          "internalType": "address",
          "name": "operator",
          "type": "address"
        },
        {
          "internalType": "uint256",
          "name": "tokenId",
          "type": "uint256"
        }
      ],
      "name": "ERC721InsufficientApproval",
      "type": "error"
    },
    {
      "inputs": [
        {
          "internalType": "address",
          "name": "approver",
          "type": "address"
        }
      ],
      "name": "ERC721InvalidApprover",
      "type": "error"
    },
    {
      "inputs": [
        {
          "internalType": "address",
          "name": "operator",
          "type": "address"
        }
      ],
      "name": "ERC721InvalidOperator",
      "type": "error"
    },
    {
      "inputs": [
        {
          "internalType": "address",
          "name": "owner",
          "type": "address"
        }
      ],
      "name": "ERC721InvalidOwner",
      "type": "error"
    },
    {
      "inputs": [
        {
          "internalType": "address",
          "name": "receiver",
          "type": "address"
        }
      ],
      "name": "ERC721InvalidReceiver",
      "type": "error"
    },
    {
      "inputs": [
        {
          "internalType": "address",
          "name": "sender",
          "type": "address"
        }
      ],
      "name": "ERC721InvalidSender",
      "type": "error"
    },
    {
      "inputs": [
        {
          "internalType": "uint256",
          "name": "tokenId",
          "type": "uint256"
        }
      ],
      "name": "ERC721NonexistentToken",
      "type": "error"
    },
    {
      "inputs": [
        {
          "internalType": "address",
          "name": "owner",
          "type": "address"
        }
      ],
      "name": "OwnableInvalidOwner",
      "type": "error"
    },
    {
      "inputs": [
        {
          "internalType": "address",
          "name": "account",
          "type": "address"
        }
      ],
      "name": "OwnableUnauthorizedAccount",
      "type": "error"
    },
    {
      "anonymous": false,
      "inputs": [
        {
          "indexed": true,
          "internalType": "address",
          "name": "owner",
          "type": "address"
        },
        {
          "indexed": true,
          "internalType": "address",
          "name": "approved",
          "type": "address"
        },
        {
          "indexed": true,
          "internalType": "uint256",
          "name": "tokenId",
          "type": "uint256"
        }
      ],
      "name": "Approval",
      "type": "event"
    },
    {
      "anonymous": false,
      "inputs": [
        {
          "indexed": true,
          "internalType": "address",
          "name": "owner",
          "type": "address"
        },
        {
          "indexed": true,
          "internalType": "address",
          "name": "operator",
          "type": "address"
        },
        {
          "indexed": false,
          "internalType": "bool",
          "name": "approved",
          "type": "bool"
        }
      ],
      "name": "ApprovalForAll",
      "type": "event"
    },
    {
      "anonymous": false,
      "inputs": [
        {
          "indexed": true,
          "internalType": "address",
          "name": "previousOwner",
          "type": "address"
        },
        {
          "indexed": true,
          "internalType": "address",
          "name": "newOwner",
          "type": "address"
        }
      ],
      "name": "OwnershipTransferred",
      "type": "event"
    },
    {
      "anonymous": false,
      "inputs": [
        {
          "indexed": true,
          "internalType": "uint256",
          "name": "propertyId",
          "type": "uint256"
        },
        {
          "indexed": true,
          "internalType": "address",
          "name": "owner",
          "type": "address"
        }
      ],
      "name": "PropertyMinted",
      "type": "event"
    },
    {
      "anonymous": false,
      "inputs": [
        {
          "indexed": true,
          "internalType": "address",
          "name": "from",
          "type": "address"
        },
        {
          "indexed": true,
          "internalType": "address",
          "name": "to",
          "type": "address"
        },
        {
          "indexed": true,
          "internalType": "uint256",
          "name": "tokenId",
          "type": "uint256"
        }
      ],
      "name": "Transfer",
      "type": "event"
    },
    {
      "inputs": [
        {
          "internalType": "address",
          "name": "to",
          "type": "address"
        },
        {
          "internalType": "uint256",
          "name": "tokenId",
          "type": "uint256"
        }
      ],
      "name": "approve",
      "outputs": [],
      "stateMutability": "nonpayable",
      "type": "function"
    },
    {
      "inputs": [
        {
          "internalType": "address",
          "name": "owner",
          "type": "address"
        }
      ],
      "name": "balanceOf",
      "outputs": [
        {
          "internalType": "uint256",
          "name": "",
          "type": "uint256"
        }
      ],
      "stateMutability": "view",
      "type": "function"
    },
    {
      "inputs": [
        {
          "internalType": "uint256",
          "name": "",
          "type": "uint256"
        }
      ],
      "name": "fractionContracts",
      "outputs": [
        {
          "internalType": "address",
          "name": "",
          "type": "address"
        }
      ],
      "stateMutability": "view",
      "type": "function"
    },
    {
      "inputs": [
        {
          "internalType": "uint256",
          "name": "",
          "type": "uint256"
        }
      ],
      "name": "fractionSales",
      "outputs": [
        {
          "internalType": "uint256",
          "name": "pricePerFraction",
          "type": "uint256"
        },
        {
          "internalType": "bool",
          "name": "active",
          "type": "bool"
        }
      ],
      "stateMutability": "view",
      "type": "function"
    },
    {
      "inputs": [
        {
          "internalType": "uint256",
          "name": "tokenId",
          "type": "uint256"
        }
      ],
      "name": "getApproved",
      "outputs": [
        {
          "internalType": "address",
          "name": "",
          "type": "address"
        }
      ],
      "stateMutability": "view",
      "type": "function"
    },
    {
      "inputs": [
        {
          "internalType": "uint256",
          "name": "propertyId",
          "type": "uint256"
        }
      ],
      "name": "getProperty",
      "outputs": [
        {
          "components": [
            {
              "internalType": "string",
              "name": "name",
              "type": "string"
            },
            {
              "internalType": "string",
              "name": "location",
              "type": "string"
            },
            {
              "internalType": "uint256",
              "name": "valuation",
              "type": "uint256"
            }
          ],
          "internalType": "struct Storage.Property",
          "name": "",
          "type": "tuple"
        }
      ],
      "stateMutability": "view",
      "type": "function"
    },
    {
      "inputs": [
        {
          "internalType": "address",
          "name": "owner",
          "type": "address"
        },
        {
          "internalType": "address",
          "name": "operator",
          "type": "address"
        }
      ],
      "name": "isApprovedForAll",
      "outputs": [
        {
          "internalType": "bool",
          "name": "",
          "type": "bool"
        }
      ],
      "stateMutability": "view",
      "type": "function"
    },
    {
      "inputs": [],
      "name": "manager",
      "outputs": [
        {
          "internalType": "address",
          "name": "",
          "type": "address"
        }
      ],
      "stateMutability": "view",
      "type": "function"
    },
    {
      "inputs": [
        {
          "internalType": "address",
          "name": "to",
          "type": "address"
        },
        {
          "internalType": "string",
          "name": "name",
          "type": "string"
        },
        {
          "internalType": "string",
          "name": "location",
          "type": "string"
        },
        {
          "internalType": "uint256",
          "name": "valuation",
          "type": "uint256"
        }
      ],
      "name": "mintPropertyDeed",
      "outputs": [
        {
          "internalType": "uint256",
          "name": "",
          "type": "uint256"
        }
      ],
      "stateMutability": "nonpayable",
      "type": "function"
    },
    {
      "inputs": [],
      "name": "mintedSupply",
      "outputs": [
        {
          "internalType": "uint256",
          "name": "",
          "type": "uint256"
        }
      ],
      "stateMutability": "view",
      "type": "function"
    },
    {
      "inputs": [],
      "name": "name",
      "outputs": [
        {
          "internalType": "string",
          "name": "",
          "type": "string"
        }
      ],
      "stateMutability": "view",
      "type": "function"
    },
    {
      "inputs": [],
      "name": "owner",
      "outputs": [
        {
          "internalType": "address",
          "name": "",
          "type": "address"
        }
      ],
      "stateMutability": "view",
      "type": "function"
    },
    {
      "inputs": [
        {
          "internalType": "uint256",
          "name": "tokenId",
          "type": "uint256"
        }
      ],
      "name": "ownerOf",
      "outputs": [
        {
          "internalType": "address",
          "name": "",
          "type": "address"
        }
      ],
      "stateMutability": "view",
      "type": "function"
    },
    {
      "inputs": [
        {
          "internalType": "uint256",
          "name": "",
          "type": "uint256"
        }
      ],
      "name": "properties",
      "outputs": [
        {
          "internalType": "string",
          "name": "name",
          "type": "string"
        },
        {
          "internalType": "string",
          "name": "location",
          "type": "string"
        },
        {
          "internalType": "uint256",
          "name": "valuation",
          "type": "uint256"
        }
      ],
      "stateMutability": "view",
      "type": "function"
    },
    {
      "inputs": [],
      "name": "propertyCounter",
      "outputs": [
        {
          "internalType": "uint256",
          "name": "",
          "type": "uint256"
        }
      ],
      "stateMutability": "view",
      "type": "function"
    },
    {
      "inputs": [],
      "name": "propertyDeed",
      "outputs": [
        {
          "internalType": "address",
          "name": "",
          "type": "address"
        }
      ],
      "stateMutability": "view",
      "type": "function"
    },
    {
      "inputs": [],
      "name": "propertyDeedAddress",
      "outputs": [
        {
          "internalType": "address",
          "name": "",
          "type": "address"
        }
      ],
      "stateMutability": "view",
      "type": "function"
    },
    {
      "inputs": [
        {
          "internalType": "uint256",
          "name": "",
          "type": "uint256"
        }
      ],
      "name": "propertyOwner",
      "outputs": [
        {
          "internalType": "address",
          "name": "",
          "type": "address"
        }
      ],
      "stateMutability": "view",
      "type": "function"
    },
    {
      "inputs": [],
      "name": "renounceOwnership",
      "outputs": [],
      "stateMutability": "nonpayable",
      "type": "function"
    },
    {
      "inputs": [
        {
          "internalType": "address",
          "name": "from",
          "type": "address"
        },
        {
          "internalType": "address",
          "name": "to",
          "type": "address"
        },
        {
          "internalType": "uint256",
          "name": "tokenId",
          "type": "uint256"
        }
      ],
      "name": "safeTransferFrom",
      "outputs": [],
      "stateMutability": "nonpayable",
      "type": "function"
    },
    {
      "inputs": [
        {
          "internalType": "address",
          "name": "from",
          "type": "address"
        },
        {
          "internalType": "address",
          "name": "to",
          "type": "address"
        },
        {
          "internalType": "uint256",
          "name": "tokenId",
          "type": "uint256"
        },
        {
          "internalType": "bytes",
          "name": "data",
          "type": "bytes"
        }
      ],
      "name": "safeTransferFrom",
      "outputs": [],
      "stateMutability": "nonpayable",
      "type": "function"
    },
    {
      "inputs": [
        {
          "internalType": "address",
          "name": "operator",
          "type": "address"
        },
        {
          "internalType": "bool",
          "name": "approved",
          "type": "bool"
        }
      ],
      "name": "setApprovalForAll",
      "outputs": [],
      "stateMutability": "nonpayable",
      "type": "function"
    },
    {
      "inputs": [
        {
          "internalType": "bytes4",
          "name": "interfaceId",
          "type": "bytes4"
        }
      ],
      "name": "supportsInterface",
      "outputs": [
        {
          "internalType": "bool",
          "name": "",
          "type": "bool"
        }
      ],
      "stateMutability": "view",
      "type": "function"
    },
    {
      "inputs": [],
      "name": "symbol",
      "outputs": [
        {
          "internalType": "string",
          "name": "",
          "type": "string"
        }
      ],
      "stateMutability": "view",
      "type": "function"
    },
    {
      "inputs": [],
      "name": "tokenId",
      "outputs": [
        {
          "internalType": "uint256",
          "name": "",
          "type": "uint256"
        }
      ],
      "stateMutability": "view",
      "type": "function"
    },
    {
      "inputs": [
        {
          "internalType": "uint256",
          "name": "tokenId",
          "type": "uint256"
        }
      ],
      "name": "tokenURI",
      "outputs": [
        {
          "internalType": "string",
          "name": "",
          "type": "string"
        }
      ],
      "stateMutability": "view",
      "type": "function"
    },
    {
      "inputs": [
        {
          "internalType": "uint256",
          "name": "",
          "type": "uint256"
        }
      ],
      "name": "totalFractions",
      "outputs": [
        {
          "internalType": "uint256",
          "name": "",
          "type": "uint256"
        }
      ],
      "stateMutability": "view",
      "type": "function"
    },
    {
      "inputs": [
        {
          "internalType": "address",
          "name": "from",
          "type": "address"
        },
        {
          "internalType": "address",
          "name": "to",
          "type": "address"
        },
        {
          "internalType": "uint256",
          "name": "tokenId",
          "type": "uint256"
        }
      ],
      "name": "transferFrom",
      "outputs": [],
      "stateMutability": "nonpayable",
      "type": "function"
    },
    {
      "inputs": [
        {
          "internalType": "address",
          "name": "newOwner",
          "type": "address"
        }
      ],
      "name": "transferOwnership",
      "outputs": [],
      "stateMutability": "nonpayable",
      "type": "function"
    }
  ],
  "bytecode": "0x60806040523480156200001157600080fd5b50336040518060400160405280600c81526020017f50726f70657274794465656400000000000000000000000000000000000000008152506040518060400160405280600581526020017f504445454400000000000000000000000000000000000000000000000000000081525081600b908162000090919062000472565b5080600c9081620000a2919062000472565b505050600073ffffffffffffffffffffffffffffffffffffffff168173ffffffffffffffffffffffffffffffffffffffff16036200011a5760006040517f1e4fbdf70000000000000000000000000000000000000000000000000000000081526004016200011191906200059e565b60405180910390fd5b6200012b816200013260201b60201c565b50620005bb565b6000601160009054906101000a900473ffffffffffffffffffffffffffffffffffffffff16905081601160006101000a81548173ffffffffffffffffffffffffffffffffffffffff021916908373ffffffffffffffffffffffffffffffffffffffff1602179055508173ffffffffffffffffffffffffffffffffffffffff168173ffffffffffffffffffffffffffffffffffffffff167f8be0079c531659141344cd1fd0a4f28419497f9722a3daafe3b4186f6b6457e060405160405180910390a35050565b600081519050919050565b7f4e487b7100000000000000000000000000000000000000000000000000000000600052604160045260246000fd5b7f4e487b7100000000000000000000000000000000000000000000000000000000600052602260045260246000fd5b600060028204905060018216806200027a57607f821691505b60208210810362000290576200028f62000232565b5b50919050565b60008190508160005260206000209050919050565b60006020601f8301049050919050565b600082821b905092915050565b600060088302620002fa7fffffffffffffffffffffffffffffffffffffffffffffffffffffffffffffffff82620002bb565b620003068683620002bb565b95508019841693508086168417925050509392505050565b6000819050919050565b6000819050919050565b6000620003536200034d62000347846200031e565b62000328565b6200031e565b9050919050565b6000819050919050565b6200036f8362000332565b620003876200037e826200035a565b848454620002c8565b825550505050565b600090565b6200039e6200038f565b620003ab81848462000364565b505050565b5b81811015620003d357620003c760008262000394565b600181019050620003b1565b5050565b601f8211156200042257620003ec8162000296565b620003f784620002ab565b8101602085101562000407578190505b6200041f6200041685620002ab565b830182620003b0565b50505b505050565b600082821c905092915050565b6000620004476000198460080262000427565b1980831691505092915050565b600062000462838362000434565b9150826002028217905092915050565b6200047d82620001f8565b67ffffffffffffffff81111562000499576200049862000203565b5b620004a5825462000261565b620004b2828285620003d7565b600060209050601f831160018114620004ea5760008415620004d5578287015190505b620004e1858262000454565b86555062000551565b601f198416620004fa8662000296565b60005b828110156200052457848901518255600182019150602085019450602081019050620004fd565b8683101562000544578489015162000540601f89168262000434565b8355505b6001600288020188555050505b505050505050565b600073ffffffffffffffffffffffffffffffffffffffff82169050919050565b6000620005868262000559565b9050919050565b620005988162000579565b82525050565b6000602082019050620005b560008301846200058d565b92915050565b612f2880620005cb6000396000f3fe608060405234801561001057600080fd5b50600436106101cf5760003560e01c8063715018a611610104578063c87b56dd116100a2578063f236412211610071578063f23641221461056b578063f2fde38b1461059b578063f657a95d146105b7578063f7b10808146105d5576101cf565b8063c87b56dd146104bd578063d090e47e146104ed578063d1fedbc21461050b578063e985e9c51461053b576101cf565b806395d89b41116100de57806395d89b4114610449578063a22cb46514610467578063b88d4fde14610483578063c1bd8cf91461049f576101cf565b8063715018a6146103f1578063766de47f146103fb5780638da5cb5b1461042b576101cf565b80632d487d2f1161017157806342842e0e1161014b57806342842e0e14610357578063481c6a75146103735780636352211e1461039157806370a08231146103c1576101cf565b80632d487d2f146102d857806332665ffb14610309578063359cd67b14610339576101cf565b8063095ea7b3116101ad578063095ea7b31461025257806312cda2541461026e57806317d70f7c1461029e57806323b872dd146102bc576101cf565b806301ffc9a7146101d457806306fdde0314610204578063081812fc14610222575b600080fd5b6101ee60048036038101906101e991906120b9565b610607565b6040516101fb9190612101565b60405180910390f35b61020c6106e9565b60405161021991906121ac565b60405180910390f35b61023c60048036038101906102379190612204565b61077b565b6040516102499190612272565b60405180910390f35b61026c600480360381019061026791906122b9565b610797565b005b61028860048036038101906102839190612204565b6107ad565b6040516102959190612272565b60405180910390f35b6102a66107e0565b6040516102b39190612308565b60405180910390f35b6102d660048036038101906102d19190612323565b6107e6565b005b6102f260048036038101906102ed9190612204565b6108e8565b604051610300929190612376565b60405180910390f35b610323600480360381019061031e9190612204565b610919565b604051610330919061244f565b60405180910390f35b610341610a73565b60405161034e9190612272565b60405180910390f35b610371600480360381019061036c9190612323565b610a99565b005b61037b610ab9565b6040516103889190612272565b60405180910390f35b6103ab60048036038101906103a69190612204565b610adf565b6040516103b89190612272565b60405180910390f35b6103db60048036038101906103d69190612471565b610af1565b6040516103e89190612308565b60405180910390f35b6103f9610bab565b005b61041560048036038101906104109190612204565b610bbf565b6040516104229190612308565b60405180910390f35b610433610bd7565b6040516104409190612272565b60405180910390f35b610451610c01565b60405161045e91906121ac565b60405180910390f35b610481600480360381019061047c91906124ca565b610c93565b005b61049d6004803603810190610498919061263f565b610ca9565b005b6104a7610cce565b6040516104b49190612308565b60405180910390f35b6104d760048036038101906104d29190612204565b610cd4565b6040516104e491906121ac565b60405180910390f35b6104f5610d3d565b6040516105029190612308565b60405180910390f35b61052560048036038101906105209190612204565b610d43565b6040516105329190612272565b60405180910390f35b610555600480360381019061055091906126c2565b610d76565b6040516105629190612101565b60405180910390f35b610585600480360381019061058091906127a3565b610e0a565b6040516105929190612308565b60405180910390f35b6105b560048036038101906105b09190612471565b610fbe565b005b6105bf611044565b6040516105cc9190612272565b60405180910390f35b6105ef60048036038101906105ea9190612204565b61106a565b6040516105fe93929190612842565b60405180910390f35b60007f80ac58cd000000000000000000000000000000000000000000000000000000007bffffffffffffffffffffffffffffffffffffffffffffffffffffffff1916827bffffffffffffffffffffffffffffffffffffffffffffffffffffffff191614806106d257507f5b5e139f000000000000000000000000000000000000000000000000000000007bffffffffffffffffffffffffffffffffffffffffffffffffffffffff1916827bffffffffffffffffffffffffffffffffffffffffffffffffffffffff1916145b806106e257506106e1826111a4565b5b9050919050565b6060600b80546106f8906128b6565b80601f0160208091040260200160405190810160405280929190818152602001828054610724906128b6565b80156107715780601f1061074657610100808354040283529160200191610771565b820191906000526020600020905b81548152906001019060200180831161075457829003601f168201915b5050505050905090565b60006107868261120e565b5061079082611296565b9050919050565b6107a982826107a46112d3565b6112db565b5050565b60036020528060005260406000206000915054906101000a900473ffffffffffffffffffffffffffffffffffffffff1681565b60075481565b600073ffffffffffffffffffffffffffffffffffffffff168273ffffffffffffffffffffffffffffffffffffffff16036108585760006040517f64a0ae9200000000000000000000000000000000000000000000000000000000815260040161084f9190612272565b60405180910390fd5b600061086c83836108676112d3565b6112ed565b90508373ffffffffffffffffffffffffffffffffffffffff168173ffffffffffffffffffffffffffffffffffffffff16146108e2578382826040517f64283d7b0000000000000000000000000000000000000000000000000000000081526004016108d9939291906128e7565b60405180910390fd5b50505050565b60056020528060005260406000206000915090508060000154908060010160009054906101000a900460ff16905082565b61092161202c565b60008083815260200190815260200160002060405180606001604052908160008201805461094e906128b6565b80601f016020809104026020016040519081016040528092919081815260200182805461097a906128b6565b80156109c75780601f1061099c576101008083540402835291602001916109c7565b820191906000526020600020905b8154815290600101906020018083116109aa57829003601f168201915b505050505081526020016001820180546109e0906128b6565b80601f0160208091040260200160405190810160405280929190818152602001828054610a0c906128b6565b8015610a595780601f10610a2e57610100808354040283529160200191610a59565b820191906000526020600020905b815481529060010190602001808311610a3c57829003601f168201915b505050505081526020016002820154815250509050919050565b600860009054906101000a900473ffffffffffffffffffffffffffffffffffffffff1681565b610ab483838360405180602001604052806000815250610ca9565b505050565b600960009054906101000a900473ffffffffffffffffffffffffffffffffffffffff1681565b6000610aea8261120e565b9050919050565b60008073ffffffffffffffffffffffffffffffffffffffff168273ffffffffffffffffffffffffffffffffffffffff1603610b645760006040517f89c62b64000000000000000000000000000000000000000000000000000000008152600401610b5b9190612272565b60405180910390fd5b600e60008373ffffffffffffffffffffffffffffffffffffffff1673ffffffffffffffffffffffffffffffffffffffff168152602001908152602001600020549050919050565b610bb3611507565b610bbd600061158e565b565b60026020528060005260406000206000915090505481565b6000601160009054906101000a900473ffffffffffffffffffffffffffffffffffffffff16905090565b6060600c8054610c10906128b6565b80601f0160208091040260200160405190810160405280929190818152602001828054610c3c906128b6565b8015610c895780601f10610c5e57610100808354040283529160200191610c89565b820191906000526020600020905b815481529060010190602001808311610c6c57829003601f168201915b5050505050905090565b610ca5610c9e6112d3565b8383611654565b5050565b610cb48484846107e6565b610cc8610cbf6112d3565b858585856117c3565b50505050565b600a5481565b6060610cdf8261120e565b506000610cea611974565b90506000815111610d0a5760405180602001604052806000815250610d35565b80610d148461198b565b604051602001610d2592919061295a565b6040516020818303038152906040525b915050919050565b60015481565b60066020528060005260406000206000915054906101000a900473ffffffffffffffffffffffffffffffffffffffff1681565b6000601060008473ffffffffffffffffffffffffffffffffffffffff1673ffffffffffffffffffffffffffffffffffffffff16815260200190815260200160002060008373ffffffffffffffffffffffffffffffffffffffff1673ffffffffffffffffffffffffffffffffffffffff16815260200190815260200160002060009054906101000a900460ff16905092915050565b6000610e14611507565b60016000815480929190610e27906129ad565b9190505550600060015490506000855111610e77576040517f08c379a0000000000000000000000000000000000000000000000000000000008152600401610e6e90612a41565b60405180910390fd5b6000845111610ebb576040517f08c379a0000000000000000000000000000000000000000000000000000000008152600401610eb290612aad565b60405180910390fd5b60008311610efe576040517f08c379a0000000000000000000000000000000000000000000000000000000008152600401610ef590612b19565b60405180910390fd5b6040518060600160405280868152602001858152602001848152506000808381526020019081526020016000206000820151816000019081610f409190612ce5565b506020820151816001019081610f569190612ce5565b5060408201518160020155905050610f6e8682611a59565b8573ffffffffffffffffffffffffffffffffffffffff16817fbb34aa4710e9aece41642e442b49b5b8aff84ba0def93849797c2f15398aab2360405160405180910390a380915050949350505050565b610fc6611507565b600073ffffffffffffffffffffffffffffffffffffffff168173ffffffffffffffffffffffffffffffffffffffff16036110385760006040517f1e4fbdf700000000000000000000000000000000000000000000000000000000815260040161102f9190612272565b60405180910390fd5b6110418161158e565b50565b600460009054906101000a900473ffffffffffffffffffffffffffffffffffffffff1681565b600060205280600052604060002060009150905080600001805461108d906128b6565b80601f01602080910402602001604051908101604052809291908181526020018280546110b9906128b6565b80156111065780601f106110db57610100808354040283529160200191611106565b820191906000526020600020905b8154815290600101906020018083116110e957829003601f168201915b50505050509080600101805461111b906128b6565b80601f0160208091040260200160405190810160405280929190818152602001828054611147906128b6565b80156111945780601f1061116957610100808354040283529160200191611194565b820191906000526020600020905b81548152906001019060200180831161117757829003601f168201915b5050505050908060020154905083565b60007f01ffc9a7000000000000000000000000000000000000000000000000000000007bffffffffffffffffffffffffffffffffffffffffffffffffffffffff1916827bffffffffffffffffffffffffffffffffffffffffffffffffffffffff1916149050919050565b60008061121a83611b52565b9050600073ffffffffffffffffffffffffffffffffffffffff168173ffffffffffffffffffffffffffffffffffffffff160361128d57826040517f7e2732890000000000000000000000000000000000000000000000000000000081526004016112849190612308565b60405180910390fd5b80915050919050565b6000600f600083815260200190815260200160002060009054906101000a900473ffffffffffffffffffffffffffffffffffffffff169050919050565b600033905090565b6112e88383836001611b8f565b505050565b6000806112f984611b52565b9050600073ffffffffffffffffffffffffffffffffffffffff168373ffffffffffffffffffffffffffffffffffffffff161461133b5761133a818486611d54565b5b600073ffffffffffffffffffffffffffffffffffffffff168173ffffffffffffffffffffffffffffffffffffffff16146113cc5761137d600085600080611b8f565b6001600e60008373ffffffffffffffffffffffffffffffffffffffff1673ffffffffffffffffffffffffffffffffffffffff168152602001908152602001600020600082825403925050819055505b600073ffffffffffffffffffffffffffffffffffffffff168573ffffffffffffffffffffffffffffffffffffffff161461144f576001600e60008773ffffffffffffffffffffffffffffffffffffffff1673ffffffffffffffffffffffffffffffffffffffff168152602001908152602001600020600082825401925050819055505b84600d600086815260200190815260200160002060006101000a81548173ffffffffffffffffffffffffffffffffffffffff021916908373ffffffffffffffffffffffffffffffffffffffff160217905550838573ffffffffffffffffffffffffffffffffffffffff168273ffffffffffffffffffffffffffffffffffffffff167fddf252ad1be2c89b69c2b068fc378daa952ba7f163c4a11628f55a4df523b3ef60405160405180910390a4809150509392505050565b61150f6112d3565b73ffffffffffffffffffffffffffffffffffffffff1661152d610bd7565b73ffffffffffffffffffffffffffffffffffffffff161461158c576115506112d3565b6040517f118cdaa70000000000000000000000000000000000000000000000000000000081526004016115839190612272565b60405180910390fd5b565b6000601160009054906101000a900473ffffffffffffffffffffffffffffffffffffffff16905081601160006101000a81548173ffffffffffffffffffffffffffffffffffffffff021916908373ffffffffffffffffffffffffffffffffffffffff1602179055508173ffffffffffffffffffffffffffffffffffffffff168173ffffffffffffffffffffffffffffffffffffffff167f8be0079c531659141344cd1fd0a4f28419497f9722a3daafe3b4186f6b6457e060405160405180910390a35050565b600073ffffffffffffffffffffffffffffffffffffffff168273ffffffffffffffffffffffffffffffffffffffff16036116c557816040517f5b08ba180000000000000000000000000000000000000000000000000000000081526004016116bc9190612272565b60405180910390fd5b80601060008573ffffffffffffffffffffffffffffffffffffffff1673ffffffffffffffffffffffffffffffffffffffff16815260200190815260200160002060008473ffffffffffffffffffffffffffffffffffffffff1673ffffffffffffffffffffffffffffffffffffffff16815260200190815260200160002060006101000a81548160ff0219169083151502179055508173ffffffffffffffffffffffffffffffffffffffff168373ffffffffffffffffffffffffffffffffffffffff167f17307eab39ab6107e8899845ad3d59bd9653f200f220920489ca2b5937696c31836040516117b69190612101565b60405180910390a3505050565b60008373ffffffffffffffffffffffffffffffffffffffff163b111561196d578273ffffffffffffffffffffffffffffffffffffffff1663150b7a02868685856040518563ffffffff1660e01b81526004016118229493929190612e0c565b6020604051808303816000875af192505050801561185e57506040513d601f19601f8201168201806040525081019061185b9190612e6d565b60015b6118e2573d806000811461188e576040519150601f19603f3d011682016040523d82523d6000602084013e611893565b606091505b5060008151036118da57836040517f64a0ae920000000000000000000000000000000000000000000000000000000081526004016118d19190612272565b60405180910390fd5b805160208201fd5b63150b7a0260e01b7bffffffffffffffffffffffffffffffffffffffffffffffffffffffff1916817bffffffffffffffffffffffffffffffffffffffffffffffffffffffff19161461196b57836040517f64a0ae920000000000000000000000000000000000000000000000000000000081526004016119629190612272565b60405180910390fd5b505b5050505050565b606060405180602001604052806000815250905090565b60606000600161199a84611e18565b01905060008167ffffffffffffffff8111156119b9576119b8612514565b5b6040519080825280601f01601f1916602001820160405280156119eb5781602001600182028036833780820191505090505b509050600082602083010190505b600115611a4e578080600190039150507f3031323334353637383961626364656600000000000000000000000000000000600a86061a8153600a8581611a4257611a41612e9a565b5b049450600085036119f9575b819350505050919050565b600073ffffffffffffffffffffffffffffffffffffffff168273ffffffffffffffffffffffffffffffffffffffff1603611acb5760006040517f64a0ae92000000000000000000000000000000000000000000000000000000008152600401611ac29190612272565b60405180910390fd5b6000611ad9838360006112ed565b9050600073ffffffffffffffffffffffffffffffffffffffff168173ffffffffffffffffffffffffffffffffffffffff1614611b4d5760006040517f73c6ac6e000000000000000000000000000000000000000000000000000000008152600401611b449190612272565b60405180910390fd5b505050565b6000600d600083815260200190815260200160002060009054906101000a900473ffffffffffffffffffffffffffffffffffffffff169050919050565b8080611bc85750600073ffffffffffffffffffffffffffffffffffffffff168273ffffffffffffffffffffffffffffffffffffffff1614155b15611cfc576000611bd88461120e565b9050600073ffffffffffffffffffffffffffffffffffffffff168373ffffffffffffffffffffffffffffffffffffffff1614158015611c4357508273ffffffffffffffffffffffffffffffffffffffff168173ffffffffffffffffffffffffffffffffffffffff1614155b8015611c565750611c548184610d76565b155b15611c9857826040517fa9fbf51f000000000000000000000000000000000000000000000000000000008152600401611c8f9190612272565b60405180910390fd5b8115611cfa57838573ffffffffffffffffffffffffffffffffffffffff168273ffffffffffffffffffffffffffffffffffffffff167f8c5be1e5ebec7d5bd14f71427d1e84f3dd0314c0f7b2291e5b200ac8c7c3b92560405160405180910390a45b505b83600f600085815260200190815260200160002060006101000a81548173ffffffffffffffffffffffffffffffffffffffff021916908373ffffffffffffffffffffffffffffffffffffffff16021790555050505050565b611d5f838383611f6b565b611e1357600073ffffffffffffffffffffffffffffffffffffffff168373ffffffffffffffffffffffffffffffffffffffff1603611dd457806040517f7e273289000000000000000000000000000000000000000000000000000000008152600401611dcb9190612308565b60405180910390fd5b81816040517f177e802f000000000000000000000000000000000000000000000000000000008152600401611e0a929190612ec9565b60405180910390fd5b505050565b600080600090507a184f03e93ff9f4daa797ed6e38ed64bf6a1f0100000000000000008310611e76577a184f03e93ff9f4daa797ed6e38ed64bf6a1f0100000000000000008381611e6c57611e6b612e9a565b5b0492506040810190505b6d04ee2d6d415b85acef81000000008310611eb3576d04ee2d6d415b85acef81000000008381611ea957611ea8612e9a565b5b0492506020810190505b662386f26fc100008310611ee257662386f26fc100008381611ed857611ed7612e9a565b5b0492506010810190505b6305f5e1008310611f0b576305f5e1008381611f0157611f00612e9a565b5b0492506008810190505b6127108310611f30576127108381611f2657611f25612e9a565b5b0492506004810190505b60648310611f535760648381611f4957611f48612e9a565b5b0492506002810190505b600a8310611f62576001810190505b80915050919050565b60008073ffffffffffffffffffffffffffffffffffffffff168373ffffffffffffffffffffffffffffffffffffffff161415801561202357508273ffffffffffffffffffffffffffffffffffffffff168473ffffffffffffffffffffffffffffffffffffffff161480611fe45750611fe38484610d76565b5b8061202257508273ffffffffffffffffffffffffffffffffffffffff1661200a83611296565b73ffffffffffffffffffffffffffffffffffffffff16145b5b90509392505050565b60405180606001604052806060815260200160608152602001600081525090565b6000604051905090565b600080fd5b600080fd5b60007fffffffff0000000000000000000000000000000000000000000000000000000082169050919050565b61209681612061565b81146120a157600080fd5b50565b6000813590506120b38161208d565b92915050565b6000602082840312156120cf576120ce612057565b5b60006120dd848285016120a4565b91505092915050565b60008115159050919050565b6120fb816120e6565b82525050565b600060208201905061211660008301846120f2565b92915050565b600081519050919050565b600082825260208201905092915050565b60005b8381101561215657808201518184015260208101905061213b565b60008484015250505050565b6000601f19601f8301169050919050565b600061217e8261211c565b6121888185612127565b9350612198818560208601612138565b6121a181612162565b840191505092915050565b600060208201905081810360008301526121c68184612173565b905092915050565b6000819050919050565b6121e1816121ce565b81146121ec57600080fd5b50565b6000813590506121fe816121d8565b92915050565b60006020828403121561221a57612219612057565b5b6000612228848285016121ef565b91505092915050565b600073ffffffffffffffffffffffffffffffffffffffff82169050919050565b600061225c82612231565b9050919050565b61226c81612251565b82525050565b60006020820190506122876000830184612263565b92915050565b61229681612251565b81146122a157600080fd5b50565b6000813590506122b38161228d565b92915050565b600080604083850312156122d0576122cf612057565b5b60006122de858286016122a4565b92505060206122ef858286016121ef565b9150509250929050565b612302816121ce565b82525050565b600060208201905061231d60008301846122f9565b92915050565b60008060006060848603121561233c5761233b612057565b5b600061234a868287016122a4565b935050602061235b868287016122a4565b925050604061236c868287016121ef565b9150509250925092565b600060408201905061238b60008301856122f9565b61239860208301846120f2565b9392505050565b600082825260208201905092915050565b60006123bb8261211c565b6123c5818561239f565b93506123d5818560208601612138565b6123de81612162565b840191505092915050565b6123f2816121ce565b82525050565b6000606083016000830151848203600086015261241582826123b0565b9150506020830151848203602086015261242f82826123b0565b915050604083015161244460408601826123e9565b508091505092915050565b6000602082019050818103600083015261246981846123f8565b905092915050565b60006020828403121561248757612486612057565b5b6000612495848285016122a4565b91505092915050565b6124a7816120e6565b81146124b257600080fd5b50565b6000813590506124c48161249e565b92915050565b600080604083850312156124e1576124e0612057565b5b60006124ef858286016122a4565b9250506020612500858286016124b5565b9150509250929050565b600080fd5b600080fd5b7f4e487b7100000000000000000000000000000000000000000000000000000000600052604160045260246000fd5b61254c82612162565b810181811067ffffffffffffffff8211171561256b5761256a612514565b5b80604052505050565b600061257e61204d565b905061258a8282612543565b919050565b600067ffffffffffffffff8211156125aa576125a9612514565b5b6125b382612162565b9050602081019050919050565b82818337600083830152505050565b60006125e26125dd8461258f565b612574565b9050828152602081018484840111156125fe576125fd61250f565b5b6126098482856125c0565b509392505050565b600082601f8301126126265761262561250a565b5b81356126368482602086016125cf565b91505092915050565b6000806000806080858703121561265957612658612057565b5b6000612667878288016122a4565b9450506020612678878288016122a4565b9350506040612689878288016121ef565b925050606085013567ffffffffffffffff8111156126aa576126a961205c565b5b6126b687828801612611565b91505092959194509250565b600080604083850312156126d9576126d8612057565b5b60006126e7858286016122a4565b92505060206126f8858286016122a4565b9150509250929050565b600067ffffffffffffffff82111561271d5761271c612514565b5b61272682612162565b9050602081019050919050565b600061274661274184612702565b612574565b9050828152602081018484840111156127625761276161250f565b5b61276d8482856125c0565b509392505050565b600082601f83011261278a5761278961250a565b5b813561279a848260208601612733565b91505092915050565b600080600080608085870312156127bd576127bc612057565b5b60006127cb878288016122a4565b945050602085013567ffffffffffffffff8111156127ec576127eb61205c565b5b6127f887828801612775565b935050604085013567ffffffffffffffff8111156128195761281861205c565b5b61282587828801612775565b9250506060612836878288016121ef565b91505092959194509250565b6000606082019050818103600083015261285c8186612173565b905081810360208301526128708185612173565b905061287f60408301846122f9565b949350505050565b7f4e487b7100000000000000000000000000000000000000000000000000000000600052602260045260246000fd5b600060028204905060018216806128ce57607f821691505b6020821081036128e1576128e0612887565b5b50919050565b60006060820190506128fc6000830186612263565b61290960208301856122f9565b6129166040830184612263565b949350505050565b600081905092915050565b60006129348261211c565b61293e818561291e565b935061294e818560208601612138565b80840191505092915050565b60006129668285612929565b91506129728284612929565b91508190509392505050565b7f4e487b7100000000000000000000000000000000000000000000000000000000600052601160045260246000fd5b60006129b8826121ce565b91507fffffffffffffffffffffffffffffffffffffffffffffffffffffffffffffffff82036129ea576129e961297e565b5b600182019050919050565b7f50726f7065727479206e616d6520726571756972656400000000000000000000600082015250565b6000612a2b601683612127565b9150612a36826129f5565b602082019050919050565b60006020820190508181036000830152612a5a81612a1e565b9050919050565b7f50726f7065727479206c6f636174696f6e207265717569726564000000000000600082015250565b6000612a97601a83612127565b9150612aa282612a61565b602082019050919050565b60006020820190508181036000830152612ac681612a8a565b9050919050565b7f50726f70657274792076616c756174696f6e206d757374206265203e20300000600082015250565b6000612b03601e83612127565b9150612b0e82612acd565b602082019050919050565b60006020820190508181036000830152612b3281612af6565b9050919050565b60008190508160005260206000209050919050565b60006020601f8301049050919050565b600082821b905092915050565b600060088302612b9b7fffffffffffffffffffffffffffffffffffffffffffffffffffffffffffffffff82612b5e565b612ba58683612b5e565b95508019841693508086168417925050509392505050565b6000819050919050565b6000612be2612bdd612bd8846121ce565b612bbd565b6121ce565b9050919050565b6000819050919050565b612bfc83612bc7565b612c10612c0882612be9565b848454612b6b565b825550505050565b600090565b612c25612c18565b612c30818484612bf3565b505050565b5b81811015612c5457612c49600082612c1d565b600181019050612c36565b5050565b601f821115612c9957612c6a81612b39565b612c7384612b4e565b81016020851015612c82578190505b612c96612c8e85612b4e565b830182612c35565b50505b505050565b600082821c905092915050565b6000612cbc60001984600802612c9e565b1980831691505092915050565b6000612cd58383612cab565b9150826002028217905092915050565b612cee8261211c565b67ffffffffffffffff811115612d0757612d06612514565b5b612d1182546128b6565b612d1c828285612c58565b600060209050601f831160018114612d4f5760008415612d3d578287015190505b612d478582612cc9565b865550612daf565b601f198416612d5d86612b39565b60005b82811015612d8557848901518255600182019150602085019450602081019050612d60565b86831015612da25784890151612d9e601f891682612cab565b8355505b6001600288020188555050505b505050505050565b600081519050919050565b600082825260208201905092915050565b6000612dde82612db7565b612de88185612dc2565b9350612df8818560208601612138565b612e0181612162565b840191505092915050565b6000608082019050612e216000830187612263565b612e2e6020830186612263565b612e3b60408301856122f9565b8181036060830152612e4d8184612dd3565b905095945050505050565b600081519050612e678161208d565b92915050565b600060208284031215612e8357612e82612057565b5b6000612e9184828501612e58565b91505092915050565b7f4e487b7100000000000000000000000000000000000000000000000000000000600052601260045260246000fd5b6000604082019050612ede6000830185612263565b612eeb60208301846122f9565b939250505056fea26469706673582212202ebaf4ff28c7a17cd071cef66abeba1b0f74696f44291991e16d29566c85f98a64736f6c63430008140033",
  "linkReferences": {},
  "deployedLinkReferences": {}
}